{
  "contractName": "CryptoCardsTreasury",
  "abi": [
    {
      "constant": false,
      "inputs": [],
      "name": "renounceOwnership",
      "outputs": [],
      "payable": false,
      "stateMutability": "nonpayable",
      "type": "function"
    },
    {
      "constant": true,
      "inputs": [],
      "name": "owner",
      "outputs": [
        {
          "name": "",
          "type": "address"
        }
      ],
      "payable": false,
      "stateMutability": "view",
      "type": "function"
    },
    {
      "constant": true,
      "inputs": [],
      "name": "isOwner",
      "outputs": [
        {
          "name": "",
          "type": "bool"
        }
      ],
      "payable": false,
      "stateMutability": "view",
      "type": "function"
    },
    {
      "constant": false,
      "inputs": [
        {
          "name": "newOwner",
          "type": "address"
        }
      ],
      "name": "transferOwnership",
      "outputs": [],
      "payable": false,
      "stateMutability": "nonpayable",
      "type": "function"
    },
    {
      "anonymous": false,
      "inputs": [
        {
          "indexed": true,
          "name": "previousOwner",
          "type": "address"
        },
        {
          "indexed": true,
          "name": "newOwner",
          "type": "address"
        }
      ],
      "name": "OwnershipTransferred",
      "type": "event"
    },
    {
      "constant": false,
      "inputs": [
        {
          "name": "owner",
          "type": "address"
        }
      ],
      "name": "initialize",
      "outputs": [],
      "payable": false,
      "stateMutability": "nonpayable",
      "type": "function"
    },
    {
      "constant": false,
      "inputs": [
        {
          "name": "controller",
          "type": "address"
        },
        {
          "name": "account",
          "type": "address"
        }
      ],
      "name": "setContractAddresses",
      "outputs": [],
      "payable": false,
      "stateMutability": "nonpayable",
      "type": "function"
    },
    {
      "constant": false,
      "inputs": [
        {
          "name": "controller",
          "type": "address"
        }
      ],
      "name": "setContractController",
      "outputs": [],
      "payable": false,
      "stateMutability": "nonpayable",
      "type": "function"
    },
    {
      "constant": false,
      "inputs": [
        {
          "name": "account",
          "type": "address"
        }
      ],
      "name": "setInHouseAccount",
      "outputs": [],
      "payable": false,
      "stateMutability": "nonpayable",
      "type": "function"
    },
    {
      "constant": true,
      "inputs": [],
      "name": "getOutSourcePoolPercentOnDeposit",
      "outputs": [
        {
          "name": "",
          "type": "uint256"
        }
      ],
      "payable": false,
      "stateMutability": "view",
      "type": "function"
    },
    {
      "constant": false,
      "inputs": [
        {
          "name": "percent",
          "type": "uint256"
        }
      ],
      "name": "setOutSourcePoolPercentOnDeposit",
      "outputs": [],
      "payable": false,
      "stateMutability": "nonpayable",
      "type": "function"
    },
    {
      "constant": true,
      "inputs": [],
      "name": "contractBalance",
      "outputs": [
        {
          "name": "",
          "type": "uint256"
        }
      ],
      "payable": false,
      "stateMutability": "view",
      "type": "function"
    },
    {
      "constant": false,
      "inputs": [
        {
          "name": "account",
          "type": "address"
        },
        {
          "name": "limit",
          "type": "uint256"
        }
      ],
      "name": "addOutsourcedMember",
      "outputs": [],
      "payable": false,
      "stateMutability": "nonpayable",
      "type": "function"
    },
    {
      "constant": false,
      "inputs": [
        {
          "name": "account",
          "type": "address"
        },
        {
          "name": "limitToAdd",
          "type": "uint256"
        }
      ],
      "name": "updateOutsourcedMemberLimit",
      "outputs": [],
      "payable": false,
      "stateMutability": "nonpayable",
      "type": "function"
    },
    {
      "constant": true,
      "inputs": [],
      "name": "getPaidBalanceOfEscrow",
      "outputs": [
        {
          "name": "",
          "type": "uint256"
        }
      ],
      "payable": false,
      "stateMutability": "view",
      "type": "function"
    },
    {
      "constant": true,
      "inputs": [],
      "name": "getUnpaidBalanceOfEscrow",
      "outputs": [
        {
          "name": "",
          "type": "uint256"
        }
      ],
      "payable": false,
      "stateMutability": "view",
      "type": "function"
    },
    {
      "constant": false,
      "inputs": [],
      "name": "withdrawFromEscrow",
      "outputs": [],
      "payable": false,
      "stateMutability": "nonpayable",
      "type": "function"
    },
    {
      "constant": true,
      "inputs": [
        {
          "name": "account",
          "type": "address"
        }
      ],
      "name": "getPaidBalanceOfReferrer",
      "outputs": [
        {
          "name": "",
          "type": "uint256"
        }
      ],
      "payable": false,
      "stateMutability": "view",
      "type": "function"
    },
    {
      "constant": true,
      "inputs": [
        {
          "name": "account",
          "type": "address"
        }
      ],
      "name": "getUnpaidBalanceOfReferrer",
      "outputs": [
        {
          "name": "",
          "type": "uint256"
        }
      ],
      "payable": false,
      "stateMutability": "view",
      "type": "function"
    },
    {
      "constant": false,
      "inputs": [],
      "name": "withdrawMyReferralBalance",
      "outputs": [],
      "payable": false,
      "stateMutability": "nonpayable",
      "type": "function"
    },
    {
      "constant": false,
      "inputs": [
        {
          "name": "account",
          "type": "address"
        }
      ],
      "name": "withdrawForReferrer",
      "outputs": [
        {
          "name": "",
          "type": "uint256"
        }
      ],
      "payable": false,
      "stateMutability": "nonpayable",
      "type": "function"
    },
    {
      "constant": true,
      "inputs": [],
      "name": "getCurrentPayoutIndex",
      "outputs": [
        {
          "name": "",
          "type": "uint256"
        }
      ],
      "payable": false,
      "stateMutability": "view",
      "type": "function"
    },
    {
      "constant": true,
      "inputs": [],
      "name": "getOutsourcedMemberCount",
      "outputs": [
        {
          "name": "",
          "type": "uint256"
        }
      ],
      "payable": false,
      "stateMutability": "view",
      "type": "function"
    },
    {
      "constant": true,
      "inputs": [],
      "name": "getOutsourcedPayoutLimit",
      "outputs": [
        {
          "name": "",
          "type": "uint256"
        }
      ],
      "payable": false,
      "stateMutability": "view",
      "type": "function"
    },
    {
      "constant": false,
      "inputs": [
        {
          "name": "limit",
          "type": "uint256"
        }
      ],
      "name": "setOutsourcedPayoutLimit",
      "outputs": [],
      "payable": false,
      "stateMutability": "nonpayable",
      "type": "function"
    },
    {
      "constant": true,
      "inputs": [],
      "name": "getOutsourcedPayoutInterval",
      "outputs": [
        {
          "name": "",
          "type": "uint256"
        }
      ],
      "payable": false,
      "stateMutability": "view",
      "type": "function"
    },
    {
      "constant": true,
      "inputs": [],
      "name": "getTotalBalanceOfPool",
      "outputs": [
        {
          "name": "",
          "type": "uint256"
        }
      ],
      "payable": false,
      "stateMutability": "view",
      "type": "function"
    },
    {
      "constant": true,
      "inputs": [],
      "name": "getPaidBalanceOfPool",
      "outputs": [
        {
          "name": "",
          "type": "uint256"
        }
      ],
      "payable": false,
      "stateMutability": "view",
      "type": "function"
    },
    {
      "constant": true,
      "inputs": [],
      "name": "getUnpaidBalanceOfPool",
      "outputs": [
        {
          "name": "",
          "type": "uint256"
        }
      ],
      "payable": false,
      "stateMutability": "view",
      "type": "function"
    },
    {
      "constant": true,
      "inputs": [
        {
          "name": "account",
          "type": "address"
        }
      ],
      "name": "getPaidBalanceOfMember",
      "outputs": [
        {
          "name": "",
          "type": "uint256"
        }
      ],
      "payable": false,
      "stateMutability": "view",
      "type": "function"
    },
    {
      "constant": true,
      "inputs": [
        {
          "name": "account",
          "type": "address"
        }
      ],
      "name": "getUnpaidBalanceOfMember",
      "outputs": [
        {
          "name": "",
          "type": "uint256"
        }
      ],
      "payable": false,
      "stateMutability": "view",
      "type": "function"
    },
    {
      "constant": true,
      "inputs": [
        {
          "name": "account",
          "type": "address"
        }
      ],
      "name": "getAvailableBalanceOfMember",
      "outputs": [
        {
          "name": "",
          "type": "uint256"
        }
      ],
      "payable": false,
      "stateMutability": "view",
      "type": "function"
    },
    {
      "constant": false,
      "inputs": [],
      "name": "withdrawMyMemberBalance",
      "outputs": [],
      "payable": false,
      "stateMutability": "nonpayable",
      "type": "function"
    },
    {
      "constant": false,
      "inputs": [
        {
          "name": "account",
          "type": "address"
        }
      ],
      "name": "withdrawForMember",
      "outputs": [
        {
          "name": "",
          "type": "uint256"
        }
      ],
      "payable": false,
      "stateMutability": "nonpayable",
      "type": "function"
    },
    {
      "constant": true,
      "inputs": [],
      "name": "getUnusedFundsInPool",
      "outputs": [
        {
          "name": "",
          "type": "uint256"
        }
      ],
      "payable": false,
      "stateMutability": "view",
      "type": "function"
    },
    {
      "constant": false,
      "inputs": [],
      "name": "transferUnusedFundsFromPool",
      "outputs": [],
      "payable": false,
      "stateMutability": "nonpayable",
      "type": "function"
    },
    {
      "constant": false,
      "inputs": [
        {
          "name": "_amountDeposited",
          "type": "uint256"
        },
        {
          "name": "_amountForReferrer",
          "type": "uint256"
        },
        {
          "name": "_referrer",
          "type": "address"
        }
      ],
      "name": "deposit",
      "outputs": [],
      "payable": true,
      "stateMutability": "payable",
      "type": "function"
    }
  ],
  "bytecode": "0x608060405234801561001057600080fd5b50612cea806100206000396000f3fe60806040526004361061022c576000357c010000000000000000000000000000000000000000000000000000000090048063814bdee211610135578063cd931e40116100bd578063e4dabb3e1161008c578063e4dabb3e14610a07578063edb0881b14610a32578063f0e9a7d614610a97578063f2fde38b14610ac2578063f7d6f73414610b135761022c565b8063cd931e40146108d5578063cf2dbfa214610946578063da98ad2e14610981578063e144760d146109dc5761022c565b80638f32d59b116101045780638f32d59b146107ae5780639d371f57146107dd578063b725d67214610808578063b756d82f1461081f578063c4d66de8146108845761022c565b8063814bdee2146106a95780638b7afe2e146106d45780638da5cb5b146106ff5780638dbdbe6d146107565761022c565b806340f8fefc116101b8578063692a9c1811610187578063692a9c18146105b0578063715018a61461061557806377c741e01461062c5780637c708e04146106435780637e1e788d1461067e5761022c565b806340f8fefc1461049a578063460bc3c3146104c55780634b685d83146105205780634d747499146105855761022c565b8063252d7eb3116101ff578063252d7eb3146102ef57806328f73b2a1461031a5780633834b3c71461037f5780633a175069146103e457806340a9fc9c146104355761022c565b80630689336d1461023157806313a3100b1461025c57806314f6f1551461027357806322cc9a021461029e575b600080fd5b34801561023d57600080fd5b50610246610b2a565b6040518082815260200191505060405180910390f35b34801561026857600080fd5b50610271610b34565b005b34801561027f57600080fd5b50610288610b40565b6040518082815260200191505060405180910390f35b3480156102aa57600080fd5b506102ed600480360360208110156102c157600080fd5b81019080803573ffffffffffffffffffffffffffffffffffffffff169060200190929190505050610b4a565b005b3480156102fb57600080fd5b50610304610c46565b6040518082815260200191505060405180910390f35b34801561032657600080fd5b506103696004803603602081101561033d57600080fd5b81019080803573ffffffffffffffffffffffffffffffffffffffff169060200190929190505050610c6e565b6040518082815260200191505060405180910390f35b34801561038b57600080fd5b506103ce600480360360208110156103a257600080fd5b81019080803573ffffffffffffffffffffffffffffffffffffffff169060200190929190505050610cb7565b6040518082815260200191505060405180910390f35b3480156103f057600080fd5b506104336004803603602081101561040757600080fd5b81019080803573ffffffffffffffffffffffffffffffffffffffff169060200190929190505050610d00565b005b34801561044157600080fd5b506104846004803603602081101561045857600080fd5b81019080803573ffffffffffffffffffffffffffffffffffffffff169060200190929190505050610dfc565b6040518082815260200191505060405180910390f35b3480156104a657600080fd5b506104af610e45565b6040518082815260200191505060405180910390f35b3480156104d157600080fd5b5061051e600480360360408110156104e857600080fd5b81019080803573ffffffffffffffffffffffffffffffffffffffff16906020019092919080359060200190929190505050610e4f565b005b34801561052c57600080fd5b5061056f6004803603602081101561054357600080fd5b81019080803573ffffffffffffffffffffffffffffffffffffffff1690602001909291905050506110ee565b6040518082815260200191505060405180910390f35b34801561059157600080fd5b5061059a611322565b6040518082815260200191505060405180910390f35b3480156105bc57600080fd5b506105ff600480360360208110156105d357600080fd5b81019080803573ffffffffffffffffffffffffffffffffffffffff16906020019092919050505061132c565b6040518082815260200191505060405180910390f35b34801561062157600080fd5b5061062a6113e6565b005b34801561063857600080fd5b506106416114ba565b005b34801561064f57600080fd5b5061067c6004803603602081101561066657600080fd5b81019080803590602001909291905050506114c6565b005b34801561068a57600080fd5b50610693611569565b6040518082815260200191505060405180910390f35b3480156106b557600080fd5b506106be611573565b6040518082815260200191505060405180910390f35b3480156106e057600080fd5b506106e961157d565b6040518082815260200191505060405180910390f35b34801561070b57600080fd5b5061071461159c565b604051808273ffffffffffffffffffffffffffffffffffffffff1673ffffffffffffffffffffffffffffffffffffffff16815260200191505060405180910390f35b6107ac6004803603606081101561076c57600080fd5b810190808035906020019092919080359060200190929190803573ffffffffffffffffffffffffffffffffffffffff1690602001909291905050506115c6565b005b3480156107ba57600080fd5b506107c361184e565b604051808215151515815260200191505060405180910390f35b3480156107e957600080fd5b506107f26118a6565b6040518082815260200191505060405180910390f35b34801561081457600080fd5b5061081d6118d2565b005b34801561082b57600080fd5b5061086e6004803603602081101561084257600080fd5b81019080803573ffffffffffffffffffffffffffffffffffffffff169060200190929190505050611a8f565b6040518082815260200191505060405180910390f35b34801561089057600080fd5b506108d3600480360360208110156108a757600080fd5b81019080803573ffffffffffffffffffffffffffffffffffffffff169060200190929190505050611b19565b005b3480156108e157600080fd5b50610944600480360360408110156108f857600080fd5b81019080803573ffffffffffffffffffffffffffffffffffffffff169060200190929190803573ffffffffffffffffffffffffffffffffffffffff169060200190929190505050611c4b565b005b34801561095257600080fd5b5061097f6004803603602081101561096957600080fd5b8101908080359060200190929190505050611df4565b005b34801561098d57600080fd5b506109da600480360360408110156109a457600080fd5b81019080803573ffffffffffffffffffffffffffffffffffffffff16906020019092919080359060200190929190505050611e96565b005b3480156109e857600080fd5b506109f1611fb9565b6040518082815260200191505060405180910390f35b348015610a1357600080fd5b50610a1c611fc3565b6040518082815260200191505060405180910390f35b348015610a3e57600080fd5b50610a8160048036036020811015610a5557600080fd5b81019080803573ffffffffffffffffffffffffffffffffffffffff169060200190929190505050611fcd565b6040518082815260200191505060405180910390f35b348015610aa357600080fd5b50610aac612087565b6040518082815260200191505060405180910390f35b348015610ace57600080fd5b50610b1160048036036020811015610ae557600080fd5b81019080803573ffffffffffffffffffffffffffffffffffffffff169060200190929190505050612091565b005b348015610b1f57600080fd5b50610b286120b0565b005b6000607054905090565b610b3d336121c0565b50565b6000606b54905090565b610b5261184e565b1515610b5d57600080fd5b600073ffffffffffffffffffffffffffffffffffffffff168173ffffffffffffffffffffffffffffffffffffffff1614151515610c02576040517f08c379a00000000000000000000000000000000000000000000000000000000081526004018080602001828103825260188152602001807f496e76616c6964206164647265737320737570706c696564000000000000000081525060200191505060405180910390fd5b80606660006101000a81548173ffffffffffffffffffffffffffffffffffffffff021916908373ffffffffffffffffffffffffffffffffffffffff16021790555050565b6000606c54606c54606a54811515610c5a57fe5b06606a5403811515610c6857fe5b04905090565b6000607460008373ffffffffffffffffffffffffffffffffffffffff1673ffffffffffffffffffffffffffffffffffffffff168152602001908152602001600020549050919050565b6000607560008373ffffffffffffffffffffffffffffffffffffffff1673ffffffffffffffffffffffffffffffffffffffff168152602001908152602001600020549050919050565b610d0861184e565b1515610d1357600080fd5b600073ffffffffffffffffffffffffffffffffffffffff168173ffffffffffffffffffffffffffffffffffffffff1614151515610db8576040517f08c379a00000000000000000000000000000000000000000000000000000000081526004018080602001828103825260188152602001807f496e76616c6964206164647265737320737570706c696564000000000000000081525060200191505060405180910390fd5b80606760006101000a81548173ffffffffffffffffffffffffffffffffffffffff021916908373ffffffffffffffffffffffffffffffffffffffff16021790555050565b6000607360008373ffffffffffffffffffffffffffffffffffffffff1673ffffffffffffffffffffffffffffffffffffffff168152602001908152602001600020549050919050565b6000606e54905090565b610e5761184e565b1515610e6257600080fd5b600073ffffffffffffffffffffffffffffffffffffffff168273ffffffffffffffffffffffffffffffffffffffff1614151515610f07576040517f08c379a00000000000000000000000000000000000000000000000000000000081526004018080602001828103825260188152602001807f496e76616c6964206164647265737320737570706c696564000000000000000081525060200191505060405180910390fd5b600081111515610f62576040517f08c379a0000000000000000000000000000000000000000000000000000000008152600401808060200182810382526024815260200180612b026024913960400191505060405180910390fd5b606b5481606e54606d54010111151515610fc7576040517f08c379a0000000000000000000000000000000000000000000000000000000008152600401808060200182810382526027815260200180612b266027913960400191505060405180910390fd5b607260008373ffffffffffffffffffffffffffffffffffffffff1673ffffffffffffffffffffffffffffffffffffffff16815260200190815260200160002054607360008473ffffffffffffffffffffffffffffffffffffffff1673ffffffffffffffffffffffffffffffffffffffff16815260200190815260200160002054141561105a576001606f5401606f819055505b80607260008473ffffffffffffffffffffffffffffffffffffffff1673ffffffffffffffffffffffffffffffffffffffff1681526020019081526020016000205401607260008473ffffffffffffffffffffffffffffffffffffffff1673ffffffffffffffffffffffffffffffffffffffff1681526020019081526020016000208190555080606d5401606d819055505050565b6000806110f9610c46565b905080607160008573ffffffffffffffffffffffffffffffffffffffff1673ffffffffffffffffffffffffffffffffffffffff16815260200190815260200160002054141561114c57600091505061131d565b6000607260008573ffffffffffffffffffffffffffffffffffffffff1673ffffffffffffffffffffffffffffffffffffffff1681526020019081526020016000205414806112175750607260008473ffffffffffffffffffffffffffffffffffffffff1673ffffffffffffffffffffffffffffffffffffffff16815260200190815260200160002054607360008573ffffffffffffffffffffffffffffffffffffffff1673ffffffffffffffffffffffffffffffffffffffff16815260200190815260200160002054145b1561122657600091505061131d565b6000607160008573ffffffffffffffffffffffffffffffffffffffff1673ffffffffffffffffffffffffffffffffffffffff16815260200190815260200160002054820390506000606f5482606c540281151561127f57fe5b0490506000607360008773ffffffffffffffffffffffffffffffffffffffff1673ffffffffffffffffffffffffffffffffffffffff16815260200190815260200160002054607260008873ffffffffffffffffffffffffffffffffffffffff1673ffffffffffffffffffffffffffffffffffffffff168152602001908152602001600020540390508181116113145780611316565b815b9450505050505b919050565b6000606954905090565b6000606660009054906101000a900473ffffffffffffffffffffffffffffffffffffffff1673ffffffffffffffffffffffffffffffffffffffff163373ffffffffffffffffffffffffffffffffffffffff161415156113d6576040517f08c379a000000000000000000000000000000000000000000000000000000000815260040180806020018281038252602a815260200180612b9b602a913960400191505060405180910390fd5b6113df8261245e565b9050919050565b6113ee61184e565b15156113f957600080fd5b600073ffffffffffffffffffffffffffffffffffffffff16603360009054906101000a900473ffffffffffffffffffffffffffffffffffffffff1673ffffffffffffffffffffffffffffffffffffffff167f8be0079c531659141344cd1fd0a4f28419497f9722a3daafe3b4186f6b6457e060405160405180910390a36000603360006101000a81548173ffffffffffffffffffffffffffffffffffffffff021916908373ffffffffffffffffffffffffffffffffffffffff160217905550565b6114c33361245e565b50565b6114ce61184e565b15156114d957600080fd5b606d54811180156114eb5750606a5481115b151561155f576040517f08c379a00000000000000000000000000000000000000000000000000000000081526004018080602001828103825260188152602001807f6c696d6974206d7573742062652073657420686967686572000000000000000081525060200191505060405180910390fd5b80606b8190555050565b6000606d54905090565b6000606854905090565b60003073ffffffffffffffffffffffffffffffffffffffff1631905090565b6000603360009054906101000a900473ffffffffffffffffffffffffffffffffffffffff16905090565b606660009054906101000a900473ffffffffffffffffffffffffffffffffffffffff1673ffffffffffffffffffffffffffffffffffffffff163373ffffffffffffffffffffffffffffffffffffffff1614151561166e576040517f08c379a000000000000000000000000000000000000000000000000000000000815260040180806020018281038252602a815260200180612b9b602a913960400191505060405180910390fd5b34831415156116c8576040517f08c379a000000000000000000000000000000000000000000000000000000000815260040180806020018281038252602e815260200180612c43602e913960400191505060405180910390fd5b600082840310151515611726576040517f08c379a0000000000000000000000000000000000000000000000000000000008152600401808060200182810382526027815260200180612b746027913960400191505060405180910390fd5b600073ffffffffffffffffffffffffffffffffffffffff168173ffffffffffffffffffffffffffffffffffffffff16141580156117635750600082115b156117f35781607460008373ffffffffffffffffffffffffffffffffffffffff1673ffffffffffffffffffffffffffffffffffffffff1681526020019081526020016000205401607460008373ffffffffffffffffffffffffffffffffffffffff1673ffffffffffffffffffffffffffffffffffffffff1681526020019081526020016000208190555081830392505b60006064607054850281151561180557fe5b049050606b54606a54101561183d57606b5481606a5401111561182c57606a54606b540390505b80606a5401606a8190555080840393505b836069540160698190555050505050565b6000603360009054906101000a900473ffffffffffffffffffffffffffffffffffffffff1673ffffffffffffffffffffffffffffffffffffffff163373ffffffffffffffffffffffffffffffffffffffff1614905090565b600080606d54606e54019050606a548111156118c65760009150506118cf565b80606a54039150505b90565b6118da61184e565b15156118e557600080fd5b600073ffffffffffffffffffffffffffffffffffffffff16606760009054906101000a900473ffffffffffffffffffffffffffffffffffffffff1673ffffffffffffffffffffffffffffffffffffffff16141515156119ac576040517f08c379a00000000000000000000000000000000000000000000000000000000081526004018080602001828103825260188152602001807f496e76616c6964206164647265737320737570706c696564000000000000000081525060200191505060405180910390fd5b6000606954111515611a09576040517f08c379a0000000000000000000000000000000000000000000000000000000008152600401808060200182810382526028815260200180612c976028913960400191505060405180910390fd5b6000606954905080606854016068819055506000606981905550606760009054906101000a900473ffffffffffffffffffffffffffffffffffffffff1673ffffffffffffffffffffffffffffffffffffffff166108fc829081150290604051600060405180830381858888f19350505050158015611a8b573d6000803e3d6000fd5b5050565b6000607360008373ffffffffffffffffffffffffffffffffffffffff1673ffffffffffffffffffffffffffffffffffffffff16815260200190815260200160002054607260008473ffffffffffffffffffffffffffffffffffffffff1673ffffffffffffffffffffffffffffffffffffffff16815260200190815260200160002054039050919050565b600060019054906101000a900460ff1680611b385750611b37612813565b5b80611b4f57506000809054906101000a900460ff16155b1515611ba6576040517f08c379a000000000000000000000000000000000000000000000000000000000815260040180806020018281038252602e815260200180612bf2602e913960400191505060405180910390fd5b60008060019054906101000a900460ff161590508015611bf6576001600060016101000a81548160ff02191690831515021790555060016000806101000a81548160ff0219169083151502179055505b611bff82612824565b681b1ae4d6e2ef500000606b819055506703782dace9d90000606c81905550601e6070819055508015611c475760008060016101000a81548160ff0219169083151502179055505b5050565b611c5361184e565b1515611c5e57600080fd5b600073ffffffffffffffffffffffffffffffffffffffff168273ffffffffffffffffffffffffffffffffffffffff1614151515611ce6576040517f08c379a0000000000000000000000000000000000000000000000000000000008152600401808060200182810382526023815260200180612c206023913960400191505060405180910390fd5b600073ffffffffffffffffffffffffffffffffffffffff168173ffffffffffffffffffffffffffffffffffffffff1614151515611d6e576040517f08c379a0000000000000000000000000000000000000000000000000000000008152600401808060200182810382526021815260200180612ae16021913960400191505060405180910390fd5b81606660006101000a81548173ffffffffffffffffffffffffffffffffffffffff021916908373ffffffffffffffffffffffffffffffffffffffff16021790555080606760006101000a81548173ffffffffffffffffffffffffffffffffffffffff021916908373ffffffffffffffffffffffffffffffffffffffff1602179055505050565b611dfc61184e565b1515611e0757600080fd5b60008110158015611e185750606481105b1515611e8c576040517f08c379a00000000000000000000000000000000000000000000000000000000081526004018080602001828103825260208152602001807f70657263656e74206d757374206265206265747765656e203020616e6420393981525060200191505060405180910390fd5b8060708190555050565b611e9e61184e565b1515611ea957600080fd5b6000607260008473ffffffffffffffffffffffffffffffffffffffff1673ffffffffffffffffffffffffffffffffffffffff16815260200190815260200160002054141515611f60576040517f08c379a00000000000000000000000000000000000000000000000000000000081526004018080602001828103825260208152602001807f4f7574736f75726365642d4d656d62657220616c72656164792065786973747381525060200191505060405180910390fd5b611f6a8282610e4f565b611f72610c46565b607160008473ffffffffffffffffffffffffffffffffffffffff1673ffffffffffffffffffffffffffffffffffffffff168152602001908152602001600020819055505050565b6000606a54905090565b6000606c54905090565b6000606660009054906101000a900473ffffffffffffffffffffffffffffffffffffffff1673ffffffffffffffffffffffffffffffffffffffff163373ffffffffffffffffffffffffffffffffffffffff16141515612077576040517f08c379a000000000000000000000000000000000000000000000000000000000815260040180806020018281038252602a815260200180612b9b602a913960400191505060405180910390fd5b612080826121c0565b9050919050565b6000606f54905090565b61209961184e565b15156120a457600080fd5b6120ad816129e4565b50565b6120b861184e565b15156120c357600080fd5b60006120cd6118a6565b905060008111151561212a576040517f08c379a0000000000000000000000000000000000000000000000000000000008152600401808060200182810382526026815260200180612c716026913960400191505060405180910390fd5b600081606a5403101515156121a7576040517f08c379a000000000000000000000000000000000000000000000000000000000815260040180806020018281038252601f8152602001807f556e757365642066756e6473206578636565647320706f6f6c20746f74616c0081525060200191505060405180910390fd5b80606a5403606a81905550806069540160698190555050565b60008073ffffffffffffffffffffffffffffffffffffffff168273ffffffffffffffffffffffffffffffffffffffff1614151515612266576040517f08c379a00000000000000000000000000000000000000000000000000000000081526004018080602001828103825260208152602001807f496e76616c6964206163636f756e74206164647265737320737570706c69656481525060200191505060405180910390fd5b6000607460008473ffffffffffffffffffffffffffffffffffffffff1673ffffffffffffffffffffffffffffffffffffffff16815260200190815260200160002054111515612300576040517f08c379a0000000000000000000000000000000000000000000000000000000008152600401808060200182810382526028815260200180612c976028913960400191505060405180910390fd5b6000607460008473ffffffffffffffffffffffffffffffffffffffff1673ffffffffffffffffffffffffffffffffffffffff16815260200190815260200160002054905080607560008573ffffffffffffffffffffffffffffffffffffffff1673ffffffffffffffffffffffffffffffffffffffff1681526020019081526020016000205401607560008573ffffffffffffffffffffffffffffffffffffffff1673ffffffffffffffffffffffffffffffffffffffff168152602001908152602001600020819055506000607460008573ffffffffffffffffffffffffffffffffffffffff1673ffffffffffffffffffffffffffffffffffffffff168152602001908152602001600020819055508273ffffffffffffffffffffffffffffffffffffffff166108fc829081150290604051600060405180830381858888f19350505050158015612454573d6000803e3d6000fd5b5080915050919050565b60008073ffffffffffffffffffffffffffffffffffffffff168273ffffffffffffffffffffffffffffffffffffffff1614151515612504576040517f08c379a00000000000000000000000000000000000000000000000000000000081526004018080602001828103825260208152602001807f496e76616c6964206163636f756e74206164647265737320737570706c69656481525060200191505060405180910390fd5b600061250f836110ee565b905060008111151561256c576040517f08c379a0000000000000000000000000000000000000000000000000000000008152600401808060200182810382526027815260200180612b4d6027913960400191505060405180910390fd5b600081606d5403101515156125cc576040517f08c379a000000000000000000000000000000000000000000000000000000000815260040180806020018281038252602d815260200180612bc5602d913960400191505060405180910390fd5b80606e5401606e8190555080606d5403606d8190555080607360008573ffffffffffffffffffffffffffffffffffffffff1673ffffffffffffffffffffffffffffffffffffffff1681526020019081526020016000205401607360008573ffffffffffffffffffffffffffffffffffffffff1673ffffffffffffffffffffffffffffffffffffffff1681526020019081526020016000208190555061266f610c46565b607160008573ffffffffffffffffffffffffffffffffffffffff1673ffffffffffffffffffffffffffffffffffffffff16815260200190815260200160002081905550607260008473ffffffffffffffffffffffffffffffffffffffff1673ffffffffffffffffffffffffffffffffffffffff16815260200190815260200160002054607360008573ffffffffffffffffffffffffffffffffffffffff1673ffffffffffffffffffffffffffffffffffffffff1681526020019081526020016000205414156127c35760006001606f5403101515156127b6576040517f08c379a00000000000000000000000000000000000000000000000000000000081526004018080602001828103825260148152602001807f496e76616c6964206d656d62657220636f756e7400000000000000000000000081525060200191505060405180910390fd5b6001606f5403606f819055505b8273ffffffffffffffffffffffffffffffffffffffff166108fc829081150290604051600060405180830381858888f19350505050158015612809573d6000803e3d6000fd5b5080915050919050565b600080303b90506000811491505090565b600060019054906101000a900460ff16806128435750612842612813565b5b8061285a57506000809054906101000a900460ff16155b15156128b1576040517f08c379a000000000000000000000000000000000000000000000000000000000815260040180806020018281038252602e815260200180612bf2602e913960400191505060405180910390fd5b60008060019054906101000a900460ff161590508015612901576001600060016101000a81548160ff02191690831515021790555060016000806101000a81548160ff0219169083151502179055505b81603360006101000a81548173ffffffffffffffffffffffffffffffffffffffff021916908373ffffffffffffffffffffffffffffffffffffffff160217905550603360009054906101000a900473ffffffffffffffffffffffffffffffffffffffff1673ffffffffffffffffffffffffffffffffffffffff16600073ffffffffffffffffffffffffffffffffffffffff167f8be0079c531659141344cd1fd0a4f28419497f9722a3daafe3b4186f6b6457e060405160405180910390a380156129e05760008060016101000a81548160ff0219169083151502179055505b5050565b600073ffffffffffffffffffffffffffffffffffffffff168173ffffffffffffffffffffffffffffffffffffffff1614151515612a2057600080fd5b8073ffffffffffffffffffffffffffffffffffffffff16603360009054906101000a900473ffffffffffffffffffffffffffffffffffffffff1673ffffffffffffffffffffffffffffffffffffffff167f8be0079c531659141344cd1fd0a4f28419497f9722a3daafe3b4186f6b6457e060405160405180910390a380603360006101000a81548173ffffffffffffffffffffffffffffffffffffffff021916908373ffffffffffffffffffffffffffffffffffffffff1602179055505056fe496e76616c6964207472656173757279206164647265737320737570706c6965646c696d6974546f416464206d7573742062652067726561746572207468616e207a65726f6c696d6974546f41646420657863656564732072656d61696e696e6720706f6f6c206c696d6974416d6f756e7420746f20706179206d7573742062652067726561746572207468616e207a65726f526566657272616c20616d6f756e74206578636565647320616d6f756e744465706f7369746564416374696f6e206f6e6c7920616c6c6f77656420627920436f6e74726f6c6c657220636f6e7472616374416d6f756e7420746f20706179206578636565647320617661696c61626c652066756e647320696e20706f6f6c436f6e747261637420696e7374616e63652068617320616c7265616479206265656e20696e697469616c697a6564496e76616c696420636f6e74726f6c6c6572206164647265737320737570706c696564616d6f756e744465706f736974656420646f6573206e6f74206d6174636820616d6f756e74207265636569766564556e757365642066756e6473206d7573742062652067726561746572207468616e207a65726f556e706169642062616c616e6365206d7573742062652067726561746572207468616e207a65726fa165627a7a72305820821b4e7bca311010c6fe55baa8c218ba7cbbeceb2f98ff64df26bd7e76066e270029",
  "source": "/**\n * Phat Cats - Crypto-Cards\n *  - https://crypto-cards.io\n *  - https://phatcats.co\n *\n * Copyright 2019 (c) Phat Cats, Inc.\n */\n/*\n    - when receiving funds:\n        - referral amount to referrals\n\n        - up to 30% to out-source pool\n\n                if outSourcePool.total < outSourcePool.limit\n                    amountToAdd = receivedFunds / 30\n                    if outSourcePool.total + amountToAdd > outSourcePool.limit\n                        amountToAdd = outSourcePool.limit - outSourcePool.total\n                    outSourcePool.total += amountToAdd\n\n        - remaining 70% or more to in-house accounts\n\n    - when a member is added:\n        currentPayoutIndex = ((outSourcePool.total - (outSourcePool.total % outSourcePool.interval)) / outSourcePool.interval)\n        outsourcedMembers[address].payoutIndex = currentPayoutIndex\n        outSourcePool.memberCount += 1\n\n    - when a member limit is updated:\n        if outSourcePool.unpaid + outSourcePool.paid + limitToAdd <= outSourcePool.limit\n            outsourcedMembers[address].limit += limitToAdd\n            outSourcePool.unpaid += limitToAdd\n\n    - when a member requests payment:\n        currentPayoutIndex = ((outSourcePool.total - (outSourcePool.total % outSourcePool.interval)) / outSourcePool.interval)\n        if outsourcedMembers[address].payoutIndex < currentPayoutIndex && outsourcedMembers[address].paid < outsourcedMembers[address].limit\n\n            payoutMultiplier = currentPayoutIndex - outsourcedMembers[address].payoutIndex\n            maxPayable = (outSourcePool.interval * payoutMultiplier) / teamCounts.design\n\n            remainingToBePaid = outsourcedMembers[address].limit - outsourcedMembers[address].paid\n            amountToPay = remainingToBePaid > maxPayable ? maxPayable : remainingToBePaid\n\n            outSourcePool.paid += amountToPay;\n            outSourcePool.unpaid -= amountToPay;\n\n            outsourcedMembers[address].paid += amountToPay\n            outsourcedMembers[address].payoutIndex = currentPayoutIndex\n\n    - when recovering unused pool funds:\n        recoverableFunds = outSourcePool.total - (outSourcePool.paid + outSourcePool.unpaid)\n\n*/\npragma solidity 0.5.2;\n\nimport \"zos-lib/contracts/Initializable.sol\";\nimport \"openzeppelin-eth/contracts/ownership/Ownable.sol\";\n\n\n//\n// NOTE on Ownable:\n//   Owner Account is attached to a Multi-Sig wallet controlled by a minimum of 3 C-Level Executives.\n//\n\ncontract CryptoCardsTreasury is Initializable, Ownable {\n    //\n    // Storage\n    //\n    // Contract Controller\n    address internal _contractController;  // Points to CryptoCardsController Contract\n\n    // In-house Escrow - 70%\n    address payable internal _inHouseAccount;\n    uint256 internal _inHouseEscrow_paid;\n    uint256 internal _inHouseEscrow_unpaid;\n\n    // Out-sourcing - 30% up to Pool Limit\n    uint256 internal _outSourcePool_total;        // Payout Total Accumulated\n    uint256 internal _outSourcePool_limit;        // Payout Maximum\n    uint256 internal _outSourcePool_interval;     // Payout Interval\n    uint256 internal _outSourcePool_unpaid;       // Amount left Unpaid\n    uint256 internal _outSourcePool_paid;         // Amount Paid Out\n    uint256 internal _outSourcePool_memberCount;\n    uint256 internal _outSourcePool_percentOnDeposit;\n\n    mapping(address => uint256) internal _outsourcedMembers_payoutIndex;\n    mapping(address => uint256) internal _outsourcedMembers_limit;\n    mapping(address => uint256) internal _outsourcedMembers_paid;\n\n    // Referral Account Escrows\n    mapping(address => uint256) internal _referrals_unpaid;\n    mapping(address => uint256) internal _referrals_paid;\n\n    //\n    // Modifiers\n    //\n    modifier onlyController() {\n        require(msg.sender == _contractController, \"Action only allowed by Controller contract\");\n        _;\n    }\n\n    //\n    // Initialize\n    //\n    function initialize(address owner) public initializer {\n        Ownable.initialize(owner);\n\n        _outSourcePool_limit = 500 ether;\n        _outSourcePool_interval = 250 finney; // cannot change once live\n        _outSourcePool_percentOnDeposit = 30; // As percentage of deposit\n    }\n\n    function setContractAddresses(\n        address controller,\n        address payable account\n    ) public onlyOwner {\n        require(controller != address(0), \"Invalid controller address supplied\");\n        require(account != address(0), \"Invalid treasury address supplied\");\n\n        _contractController = controller;\n        _inHouseAccount = account;\n    }\n\n    function setContractController(address controller) public onlyOwner {\n        require(controller != address(0), \"Invalid address supplied\");\n        _contractController = controller;\n    }\n\n    function setInHouseAccount(address payable account) public onlyOwner {\n        require(account != address(0), \"Invalid address supplied\");\n        _inHouseAccount = account;\n    }\n\n    function getOutSourcePoolPercentOnDeposit() public view returns (uint256) {\n        return _outSourcePool_percentOnDeposit;\n    }\n\n    function setOutSourcePoolPercentOnDeposit(uint256 percent) public onlyOwner {\n        require(percent >= 0 && percent < 100, \"percent must be between 0 and 99\");\n        _outSourcePool_percentOnDeposit = percent;\n    }\n\n    function contractBalance() public view returns (uint256) {\n        return address(this).balance;\n    }\n\n    function addOutsourcedMember(address account, uint256 limit) public onlyOwner {\n        require(_outsourcedMembers_limit[account] == 0, \"Outsourced-Member already exists\");\n\n        updateOutsourcedMemberLimit(account, limit);\n        _outsourcedMembers_payoutIndex[account] = getCurrentPayoutIndex();\n    }\n\n    function updateOutsourcedMemberLimit(address account, uint256 limitToAdd) public onlyOwner {\n        require(account != address(0), \"Invalid address supplied\");\n        require(limitToAdd > 0, \"limitToAdd must be greater than zero\");\n        require(_outSourcePool_unpaid + _outSourcePool_paid + limitToAdd <= _outSourcePool_limit, \"limitToAdd exceeds remaining pool limit\");\n\n        // New Member, or previously paid out and removed from memberCount\n        if (_outsourcedMembers_paid[account] == _outsourcedMembers_limit[account]) {\n            _outSourcePool_memberCount = _outSourcePool_memberCount + 1;\n        }\n\n        _outsourcedMembers_limit[account] = _outsourcedMembers_limit[account] + limitToAdd;\n        _outSourcePool_unpaid = _outSourcePool_unpaid + limitToAdd;\n    }\n\n    //\n    // In-house Escrow\n    //\n\n    function getPaidBalanceOfEscrow() public view returns (uint256) {\n        return _inHouseEscrow_paid;\n    }\n\n    function getUnpaidBalanceOfEscrow() public view returns (uint256) {\n        return _inHouseEscrow_unpaid;\n    }\n\n    function withdrawFromEscrow() public onlyOwner {\n        require(_inHouseAccount != address(0), \"Invalid address supplied\");\n        require(_inHouseEscrow_unpaid > 0, \"Unpaid balance must be greater than zero\");\n        uint256 amount = _inHouseEscrow_unpaid;\n        _inHouseEscrow_paid = _inHouseEscrow_paid + amount;\n        _inHouseEscrow_unpaid = 0;\n        _inHouseAccount.transfer(amount);\n    }\n\n    //\n    // Referrals\n    //\n\n    function getPaidBalanceOfReferrer(address account) public view returns (uint256) {\n        return _referrals_paid[account];\n    }\n\n    function getUnpaidBalanceOfReferrer(address account) public view returns (uint256) {\n        return _referrals_unpaid[account];\n    }\n\n    function withdrawMyReferralBalance() public {\n        _withdrawForReferrer(address(msg.sender));\n    }\n\n    function withdrawForReferrer(address payable account) public onlyController returns (uint256) {\n        return _withdrawForReferrer(account);\n    }\n\n    //\n    // Out-source Pool\n    //\n\n    function getCurrentPayoutIndex() public view returns (uint256) {\n        return ((_outSourcePool_total - (_outSourcePool_total % _outSourcePool_interval)) / _outSourcePool_interval);\n    }\n\n    function getOutsourcedMemberCount() public view returns (uint256) {\n        return _outSourcePool_memberCount;\n    }\n\n    function getOutsourcedPayoutLimit() public view returns (uint256) {\n        return _outSourcePool_limit;\n    }\n\n    function setOutsourcedPayoutLimit(uint256 limit) public onlyOwner {\n        require(limit > _outSourcePool_unpaid && limit > _outSourcePool_total, \"limit must be set higher\");\n        _outSourcePool_limit = limit;\n    }\n\n    function getOutsourcedPayoutInterval() public view returns (uint256) {\n        return _outSourcePool_interval;\n    }\n\n    function getTotalBalanceOfPool() public view returns (uint256) {\n        return _outSourcePool_total;\n    }\n\n    function getPaidBalanceOfPool() public view returns (uint256) {\n        return _outSourcePool_paid;\n    }\n\n    function getUnpaidBalanceOfPool() public view returns (uint256) {\n        return _outSourcePool_unpaid;\n    }\n\n    function getPaidBalanceOfMember(address account) public view returns (uint256) {\n        return _outsourcedMembers_paid[account];\n    }\n\n    function getUnpaidBalanceOfMember(address account) public view returns (uint256) {\n        return _outsourcedMembers_limit[account] - _outsourcedMembers_paid[account];\n    }\n\n    function getAvailableBalanceOfMember(address account) public view returns (uint256) {\n        uint256 currentPayoutIndex = getCurrentPayoutIndex();\n        if (_outsourcedMembers_payoutIndex[account] == currentPayoutIndex) { return 0; }\n        if (_outsourcedMembers_limit[account] == 0 || _outsourcedMembers_paid[account] == _outsourcedMembers_limit[account]) { return 0; }\n\n        uint256 payoutMultiplier = currentPayoutIndex - _outsourcedMembers_payoutIndex[account];\n        uint256 maxPayable = (_outSourcePool_interval * payoutMultiplier) / _outSourcePool_memberCount;\n        uint256 remainingToBePaid = _outsourcedMembers_limit[account] - _outsourcedMembers_paid[account];\n        return remainingToBePaid > maxPayable ? maxPayable : remainingToBePaid;\n    }\n\n    function withdrawMyMemberBalance() public {\n        _withdrawForMember(address(msg.sender));\n    }\n\n    function withdrawForMember(address payable account) public onlyController returns (uint256) {\n        return _withdrawForMember(account);\n    }\n\n    function getUnusedFundsInPool() public view returns (uint256) {\n        uint256 payouts = (_outSourcePool_paid + _outSourcePool_unpaid);\n        if (payouts > _outSourcePool_total) { return 0; }\n        return _outSourcePool_total - payouts;\n    }\n\n    function transferUnusedFundsFromPool() public onlyOwner {\n        uint256 unusedFunds = getUnusedFundsInPool();\n        require(unusedFunds > 0, \"Unused funds must be greater than zero\");\n        require(_outSourcePool_total - unusedFunds >= 0, \"Unused funds exceeds pool total\");\n\n        // Remove from Outsource Pool\n        _outSourcePool_total = _outSourcePool_total - unusedFunds;\n\n        // Transfer to In-house Escrow\n        _inHouseEscrow_unpaid = _inHouseEscrow_unpaid + unusedFunds;\n    }\n\n    //\n    // Deposit\n    //\n\n    function deposit(uint256 _amountDeposited, uint256 _amountForReferrer, address _referrer) public onlyController payable {\n        require(_amountDeposited == msg.value, \"amountDeposited does not match amount received\");\n        require(_amountDeposited - _amountForReferrer >= 0, \"Referral amount exceeds amountDeposited\");\n\n        // Referrals\n        if (_referrer != address(0) && _amountForReferrer > 0) {\n            _referrals_unpaid[_referrer] = _referrals_unpaid[_referrer] + _amountForReferrer;\n            _amountDeposited = _amountDeposited - _amountForReferrer;\n        }\n\n        // Out-sourcing\n        uint256 outsourcePortion = _amountDeposited * _outSourcePool_percentOnDeposit / 100;\n        if (_outSourcePool_total < _outSourcePool_limit) {\n            if (_outSourcePool_total + outsourcePortion > _outSourcePool_limit) {\n                outsourcePortion = _outSourcePool_limit - _outSourcePool_total;\n            }\n            _outSourcePool_total = _outSourcePool_total + outsourcePortion;\n            _amountDeposited = _amountDeposited - outsourcePortion;\n        }\n\n        // In-house\n        _inHouseEscrow_unpaid = _inHouseEscrow_unpaid + _amountDeposited;\n    }\n\n    function _withdrawForReferrer(address payable account) internal returns (uint256) {\n        require(account != address(0), \"Invalid account address supplied\");\n        require(_referrals_unpaid[account] > 0, \"Unpaid balance must be greater than zero\");\n\n        uint256 amount = _referrals_unpaid[account];\n        _referrals_paid[account] = _referrals_paid[account] + amount;\n        _referrals_unpaid[account] = 0;\n\n        account.transfer(amount);\n        return amount;\n    }\n\n    function _withdrawForMember(address payable account) internal returns (uint256) {\n        require(account != address(0), \"Invalid account address supplied\");\n        uint256 amountToPay = getAvailableBalanceOfMember(account);\n        require(amountToPay > 0, \"Amount to pay must be greater than zero\");\n        require(_outSourcePool_unpaid - amountToPay >= 0, \"Amount to pay exceeds available funds in pool\");\n\n        _outSourcePool_paid = _outSourcePool_paid + amountToPay;\n        _outSourcePool_unpaid = _outSourcePool_unpaid - amountToPay;\n\n        _outsourcedMembers_paid[account] = _outsourcedMembers_paid[account] + amountToPay;\n        _outsourcedMembers_payoutIndex[account] = getCurrentPayoutIndex();\n\n        if (_outsourcedMembers_paid[account] == _outsourcedMembers_limit[account]) {\n            // No more bounty to pay out, remove from memberCount\n            require(_outSourcePool_memberCount - 1 >= 0, \"Invalid member count\");\n            _outSourcePool_memberCount = _outSourcePool_memberCount - 1;\n        }\n\n        account.transfer(amountToPay);\n        return amountToPay;\n    }\n}\n",
  "sourcePath": "/Users/robsecord/workspace/Ethereum/CryptoCards/cryptocards_contracts/contracts/CryptoCardsTreasury.sol",
  "compiler": {
    "name": "solc",
    "version": "0.5.2+commit.1df8f40c.Emscripten.clang"
  },
  "schemaVersion": "3.0.11",
  "updatedAt": "2019-10-03T03:51:26.026Z",
  "devdoc": {
    "methods": {
      "isOwner()": {
        "return": "true if `msg.sender` is the owner of the contract."
      },
      "owner()": {
        "return": "the address of the owner."
      },
      "renounceOwnership()": {
        "details": "Allows the current owner to relinquish control of the contract. It will not be possible to call the functions with the `onlyOwner` modifier anymore."
      },
      "transferOwnership(address)": {
        "details": "Allows the current owner to transfer control of the contract to a newOwner.",
        "params": {
          "newOwner": "The address to transfer ownership to."
        }
      }
    }
  },
  "userdoc": {
    "methods": {
      "renounceOwnership()": {
        "notice": "Renouncing ownership will leave the contract without an owner, thereby removing any functionality that is only available to the owner."
      }
    }
  }
}