{
  "contractName": "CryptoCardsTokenMigrator",
  "abi": [
    {
      "constant": false,
      "inputs": [],
      "name": "renounceOwnership",
      "outputs": [],
      "payable": false,
      "stateMutability": "nonpayable",
      "type": "function"
    },
    {
      "constant": true,
      "inputs": [],
      "name": "owner",
      "outputs": [
        {
          "name": "",
          "type": "address"
        }
      ],
      "payable": false,
      "stateMutability": "view",
      "type": "function"
    },
    {
      "constant": true,
      "inputs": [],
      "name": "isOwner",
      "outputs": [
        {
          "name": "",
          "type": "bool"
        }
      ],
      "payable": false,
      "stateMutability": "view",
      "type": "function"
    },
    {
      "constant": false,
      "inputs": [
        {
          "name": "newOwner",
          "type": "address"
        }
      ],
      "name": "transferOwnership",
      "outputs": [],
      "payable": false,
      "stateMutability": "nonpayable",
      "type": "function"
    },
    {
      "anonymous": false,
      "inputs": [
        {
          "indexed": true,
          "name": "owner",
          "type": "address"
        },
        {
          "indexed": false,
          "name": "oldAmount",
          "type": "uint256"
        },
        {
          "indexed": false,
          "name": "newAmount",
          "type": "uint256"
        }
      ],
      "name": "OwnerGumMigrated",
      "type": "event"
    },
    {
      "anonymous": false,
      "inputs": [
        {
          "indexed": true,
          "name": "previousOwner",
          "type": "address"
        },
        {
          "indexed": true,
          "name": "newOwner",
          "type": "address"
        }
      ],
      "name": "OwnershipTransferred",
      "type": "event"
    },
    {
      "constant": false,
      "inputs": [
        {
          "name": "owner",
          "type": "address"
        }
      ],
      "name": "initialize",
      "outputs": [],
      "payable": false,
      "stateMutability": "nonpayable",
      "type": "function"
    },
    {
      "constant": false,
      "inputs": [
        {
          "name": "accounts",
          "type": "address[]"
        }
      ],
      "name": "setInitialAccounts",
      "outputs": [],
      "payable": false,
      "stateMutability": "nonpayable",
      "type": "function"
    },
    {
      "constant": false,
      "inputs": [],
      "name": "distributeInitialGum",
      "outputs": [],
      "payable": false,
      "stateMutability": "nonpayable",
      "type": "function"
    },
    {
      "constant": false,
      "inputs": [
        {
          "name": "to",
          "type": "address"
        },
        {
          "name": "amount",
          "type": "uint256"
        }
      ],
      "name": "distributeGum",
      "outputs": [],
      "payable": false,
      "stateMutability": "nonpayable",
      "type": "function"
    },
    {
      "constant": false,
      "inputs": [
        {
          "name": "tokenHolder",
          "type": "address"
        }
      ],
      "name": "migrateTokenHolder",
      "outputs": [
        {
          "name": "",
          "type": "uint256"
        },
        {
          "name": "",
          "type": "uint256"
        }
      ],
      "payable": false,
      "stateMutability": "nonpayable",
      "type": "function"
    },
    {
      "constant": true,
      "inputs": [
        {
          "name": "owner",
          "type": "address"
        }
      ],
      "name": "cardsBalanceOf",
      "outputs": [
        {
          "name": "",
          "type": "uint256"
        }
      ],
      "payable": false,
      "stateMutability": "view",
      "type": "function"
    },
    {
      "constant": true,
      "inputs": [
        {
          "name": "owner",
          "type": "address"
        },
        {
          "name": "index",
          "type": "uint256"
        }
      ],
      "name": "cardsTokenOfOwnerByIndex",
      "outputs": [
        {
          "name": "",
          "type": "uint256"
        }
      ],
      "payable": false,
      "stateMutability": "view",
      "type": "function"
    },
    {
      "constant": true,
      "inputs": [
        {
          "name": "cardId",
          "type": "uint256"
        }
      ],
      "name": "cardHashById",
      "outputs": [
        {
          "name": "",
          "type": "string"
        }
      ],
      "payable": false,
      "stateMutability": "view",
      "type": "function"
    },
    {
      "constant": true,
      "inputs": [
        {
          "name": "cardData",
          "type": "uint256"
        }
      ],
      "name": "cardIssueFromHash",
      "outputs": [
        {
          "name": "",
          "type": "uint16"
        }
      ],
      "payable": false,
      "stateMutability": "pure",
      "type": "function"
    },
    {
      "constant": true,
      "inputs": [
        {
          "name": "cardData",
          "type": "uint256"
        }
      ],
      "name": "cardRankFromHash",
      "outputs": [
        {
          "name": "",
          "type": "uint8"
        }
      ],
      "payable": false,
      "stateMutability": "pure",
      "type": "function"
    },
    {
      "constant": true,
      "inputs": [
        {
          "name": "cardId",
          "type": "uint256"
        }
      ],
      "name": "cardExists",
      "outputs": [
        {
          "name": "",
          "type": "bool"
        }
      ],
      "payable": false,
      "stateMutability": "view",
      "type": "function"
    },
    {
      "constant": false,
      "inputs": [
        {
          "name": "to",
          "type": "address"
        },
        {
          "name": "tokenIds",
          "type": "uint256[]"
        }
      ],
      "name": "mintNewCards",
      "outputs": [],
      "payable": false,
      "stateMutability": "nonpayable",
      "type": "function"
    },
    {
      "constant": true,
      "inputs": [
        {
          "name": "owner",
          "type": "address"
        }
      ],
      "name": "packsBalanceOf",
      "outputs": [
        {
          "name": "",
          "type": "uint256"
        }
      ],
      "payable": false,
      "stateMutability": "view",
      "type": "function"
    },
    {
      "constant": true,
      "inputs": [
        {
          "name": "owner",
          "type": "address"
        },
        {
          "name": "index",
          "type": "uint256"
        }
      ],
      "name": "packsTokenOfOwnerByIndex",
      "outputs": [
        {
          "name": "",
          "type": "uint256"
        }
      ],
      "payable": false,
      "stateMutability": "view",
      "type": "function"
    },
    {
      "constant": true,
      "inputs": [
        {
          "name": "tokenId",
          "type": "uint256"
        }
      ],
      "name": "packHashById",
      "outputs": [
        {
          "name": "",
          "type": "string"
        }
      ],
      "payable": false,
      "stateMutability": "view",
      "type": "function"
    },
    {
      "constant": true,
      "inputs": [
        {
          "name": "tokenId",
          "type": "uint256"
        }
      ],
      "name": "isTokenFrozen",
      "outputs": [
        {
          "name": "",
          "type": "bool"
        }
      ],
      "payable": false,
      "stateMutability": "view",
      "type": "function"
    },
    {
      "constant": false,
      "inputs": [
        {
          "name": "owner",
          "type": "address"
        },
        {
          "name": "packData",
          "type": "string"
        }
      ],
      "name": "mintNewPack",
      "outputs": [
        {
          "name": "",
          "type": "uint256"
        }
      ],
      "payable": false,
      "stateMutability": "nonpayable",
      "type": "function"
    },
    {
      "constant": false,
      "inputs": [
        {
          "name": "gum",
          "type": "address"
        }
      ],
      "name": "setGumToken",
      "outputs": [],
      "payable": false,
      "stateMutability": "nonpayable",
      "type": "function"
    },
    {
      "constant": false,
      "inputs": [
        {
          "name": "gum",
          "type": "address"
        }
      ],
      "name": "setOldGumToken",
      "outputs": [],
      "payable": false,
      "stateMutability": "nonpayable",
      "type": "function"
    },
    {
      "constant": false,
      "inputs": [
        {
          "name": "packsToken",
          "type": "address"
        }
      ],
      "name": "setPacksToken",
      "outputs": [],
      "payable": false,
      "stateMutability": "nonpayable",
      "type": "function"
    },
    {
      "constant": false,
      "inputs": [
        {
          "name": "packs",
          "type": "address"
        }
      ],
      "name": "setOldPacks",
      "outputs": [],
      "payable": false,
      "stateMutability": "nonpayable",
      "type": "function"
    },
    {
      "constant": false,
      "inputs": [
        {
          "name": "cardsToken",
          "type": "address"
        }
      ],
      "name": "setCardsToken",
      "outputs": [],
      "payable": false,
      "stateMutability": "nonpayable",
      "type": "function"
    },
    {
      "constant": false,
      "inputs": [
        {
          "name": "cardsToken",
          "type": "address"
        }
      ],
      "name": "setOldCardsToken",
      "outputs": [],
      "payable": false,
      "stateMutability": "nonpayable",
      "type": "function"
    },
    {
      "constant": false,
      "inputs": [
        {
          "name": "cards",
          "type": "address"
        }
      ],
      "name": "setOldCards",
      "outputs": [],
      "payable": false,
      "stateMutability": "nonpayable",
      "type": "function"
    },
    {
      "constant": true,
      "inputs": [
        {
          "name": "num",
          "type": "uint256"
        },
        {
          "name": "from",
          "type": "uint256"
        },
        {
          "name": "len",
          "type": "uint256"
        }
      ],
      "name": "_readBits",
      "outputs": [
        {
          "name": "",
          "type": "uint256"
        }
      ],
      "payable": false,
      "stateMutability": "pure",
      "type": "function"
    }
  ],
  "bytecode": "0x608060405234801561001057600080fd5b50612e6f806100206000396000f3fe608060405234801561001057600080fd5b50600436106101eb576000357c0100000000000000000000000000000000000000000000000000000000900480638bf1ab2d11610121578063ba574496116100bf578063dd7f27201161008e578063dd7f272014610b02578063eaf06bb514610b64578063f2fde38b14610ba8578063ff70736a14610bec576101eb565b8063ba5744961461098d578063c461916a14610a34578063c4d66de814610a78578063cc888bab14610abc576101eb565b8063a13cda1a116100fb578063a13cda1a146107ea578063b0e6f01f14610832578063b14b9d4d146108ea578063b7469dc714610949576101eb565b80638bf1ab2d146106d75780638da5cb5b1461077e5780638f32d59b146107c8576101eb565b80634ae3540e1161018e578063715018a611610168578063715018a61461061f57806371acd5a9146106295780637f40f9f11461067757806382488fda146106cd576101eb565b80634ae3540e1461053d5780634e40d4e2146105835780635148f200146105c7576101eb565b8063259bf2e2116101ca578063259bf2e21461038557806328c95673146103c957806333ea18c51461040d57806336658ddc146104e5576101eb565b8062c23e5b146101f05780630e09ed0414610234578063167d534c14610296575b600080fd5b6102326004803603602081101561020657600080fd5b81019080803573ffffffffffffffffffffffffffffffffffffffff169060200190929190505050610c36565b005b6102806004803603604081101561024a57600080fd5b81019080803573ffffffffffffffffffffffffffffffffffffffff16906020019092919080359060200190929190505050610d32565b6040518082815260200191505060405180910390f35b61036f600480360360408110156102ac57600080fd5b81019080803573ffffffffffffffffffffffffffffffffffffffff169060200190929190803590602001906401000000008111156102e957600080fd5b8201836020820111156102fb57600080fd5b8035906020019184600183028401116401000000008311171561031d57600080fd5b91908080601f016020809104026020016040519081016040528093929190818152602001838380828437600081840152601f19601f820116905080830192505050505050509192919290505050610e3a565b6040518082815260200191505060405180910390f35b6103c76004803603602081101561039b57600080fd5b81019080803573ffffffffffffffffffffffffffffffffffffffff169060200190929190505050610fbc565b005b61040b600480360360208110156103df57600080fd5b81019080803573ffffffffffffffffffffffffffffffffffffffff1690602001909291905050506110b8565b005b6104e36004803603604081101561042357600080fd5b81019080803573ffffffffffffffffffffffffffffffffffffffff1690602001909291908035906020019064010000000081111561046057600080fd5b82018360208201111561047257600080fd5b8035906020019184602083028401116401000000008311171561049457600080fd5b919080806020026020016040519081016040528093929190818152602001838360200280828437600081840152601f19601f820116905080830192505050505050509192919290505050611197565b005b610527600480360360208110156104fb57600080fd5b81019080803573ffffffffffffffffffffffffffffffffffffffff1690602001909291905050506112cc565b6040518082815260200191505060405180910390f35b6105696004803603602081101561055357600080fd5b81019080803590602001909291905050506113cb565b604051808215151515815260200191505060405180910390f35b6105c56004803603602081101561059957600080fd5b81019080803573ffffffffffffffffffffffffffffffffffffffff16906020019092919050505061149e565b005b610609600480360360208110156105dd57600080fd5b81019080803573ffffffffffffffffffffffffffffffffffffffff16906020019092919050505061157d565b6040518082815260200191505060405180910390f35b61062761167c565b005b6106756004803603604081101561063f57600080fd5b81019080803573ffffffffffffffffffffffffffffffffffffffff16906020019092919080359060200190929190505050611750565b005b6106b76004803603606081101561068d57600080fd5b81019080803590602001909291908035906020019092919080359060200190929190505050611771565b6040518082815260200191505060405180910390f35b6106d561179f565b005b610703600480360360208110156106ed57600080fd5b810190808035906020019092919050505061197d565b6040518080602001828103825283818151815260200191508051906020019080838360005b83811015610743578082015181840152602081019050610728565b50505050905090810190601f1680156107705780820380516001836020036101000a031916815260200191505b509250505060405180910390f35b610786611aa6565b604051808273ffffffffffffffffffffffffffffffffffffffff1673ffffffffffffffffffffffffffffffffffffffff16815260200191505060405180910390f35b6107d0611ad0565b604051808215151515815260200191505060405180910390f35b6108166004803603602081101561080057600080fd5b8101908080359060200190929190505050611b28565b604051808260ff1660ff16815260200191505060405180910390f35b6108e86004803603602081101561084857600080fd5b810190808035906020019064010000000081111561086557600080fd5b82018360208201111561087757600080fd5b8035906020019184602083028401116401000000008311171561089957600080fd5b919080806020026020016040519081016040528093929190818152602001838360200280828437600081840152601f19601f820116905080830192505050505050509192919290505050611b3e565b005b61092c6004803603602081101561090057600080fd5b81019080803573ffffffffffffffffffffffffffffffffffffffff169060200190929190505050611d38565b604051808381526020018281526020019250505060405180910390f35b61098b6004803603602081101561095f57600080fd5b81019080803573ffffffffffffffffffffffffffffffffffffffff169060200190929190505050611d60565b005b6109b9600480360360208110156109a357600080fd5b8101908080359060200190929190505050611e5c565b6040518080602001828103825283818151815260200191508051906020019080838360005b838110156109f95780820151818401526020810190506109de565b50505050905090810190601f168015610a265780820380516001836020036101000a031916815260200191505b509250505060405180910390f35b610a7660048036036020811015610a4a57600080fd5b81019080803573ffffffffffffffffffffffffffffffffffffffff169060200190929190505050611f85565b005b610aba60048036036020811015610a8e57600080fd5b81019080803573ffffffffffffffffffffffffffffffffffffffff169060200190929190505050612081565b005b610ae860048036036020811015610ad257600080fd5b81019080803590602001909291905050506121fb565b604051808215151515815260200191505060405180910390f35b610b4e60048036036040811015610b1857600080fd5b81019080803573ffffffffffffffffffffffffffffffffffffffff169060200190929190803590602001909291905050506122ce565b6040518082815260200191505060405180910390f35b610ba660048036036020811015610b7a57600080fd5b81019080803573ffffffffffffffffffffffffffffffffffffffff1690602001909291905050506123d6565b005b610bea60048036036020811015610bbe57600080fd5b81019080803573ffffffffffffffffffffffffffffffffffffffff1690602001909291905050506124b5565b005b610c1860048036036020811015610c0257600080fd5b81019080803590602001909291905050506124d4565b604051808261ffff1661ffff16815260200191505060405180910390f35b610c3e611ad0565b1515610c4957600080fd5b600073ffffffffffffffffffffffffffffffffffffffff168173ffffffffffffffffffffffffffffffffffffffff1614151515610cee576040517f08c379a000000000000000000000000000000000000000000000000000000000815260040180806020018281038252601e8152602001807f496e76616c6964206361726473206164647265737320737570706c696564000081525060200191505060405180910390fd5b80606b60006101000a81548173ffffffffffffffffffffffffffffffffffffffff021916908373ffffffffffffffffffffffffffffffffffffffff16021790555050565b6000606c60009054906101000a900473ffffffffffffffffffffffffffffffffffffffff1673ffffffffffffffffffffffffffffffffffffffff16632f745c5984846040518363ffffffff167c0100000000000000000000000000000000000000000000000000000000028152600401808373ffffffffffffffffffffffffffffffffffffffff1673ffffffffffffffffffffffffffffffffffffffff1681526020018281526020019250505060206040518083038186803b158015610df757600080fd5b505afa158015610e0b573d6000803e3d6000fd5b505050506040513d6020811015610e2157600080fd5b8101908080519060200190929190505050905092915050565b6000610e44611ad0565b1515610e4f57600080fd5b606760009054906101000a900473ffffffffffffffffffffffffffffffffffffffff1673ffffffffffffffffffffffffffffffffffffffff16637273b29984846040518363ffffffff167c0100000000000000000000000000000000000000000000000000000000028152600401808373ffffffffffffffffffffffffffffffffffffffff1673ffffffffffffffffffffffffffffffffffffffff16815260200180602001828103825283818151815260200191508051906020019080838360005b83811015610f2c578082015181840152602081019050610f11565b50505050905090810190601f168015610f595780820380516001836020036101000a031916815260200191505b509350505050602060405180830381600087803b158015610f7957600080fd5b505af1158015610f8d573d6000803e3d6000fd5b505050506040513d6020811015610fa357600080fd5b8101908080519060200190929190505050905092915050565b610fc4611ad0565b1515610fcf57600080fd5b600073ffffffffffffffffffffffffffffffffffffffff168173ffffffffffffffffffffffffffffffffffffffff1614151515611074576040517f08c379a000000000000000000000000000000000000000000000000000000000815260040180806020018281038252601c8152602001807f496e76616c69642067756d206164647265737320737570706c6965640000000081525060200191505060405180910390fd5b80606960006101000a81548173ffffffffffffffffffffffffffffffffffffffff021916908373ffffffffffffffffffffffffffffffffffffffff16021790555050565b6110c0611ad0565b15156110cb57600080fd5b600073ffffffffffffffffffffffffffffffffffffffff168173ffffffffffffffffffffffffffffffffffffffff1614151515611153576040517f08c379a0000000000000000000000000000000000000000000000000000000008152600401808060200182810382526023815260200180612dfb6023913960400191505060405180910390fd5b80606c60006101000a81548173ffffffffffffffffffffffffffffffffffffffff021916908373ffffffffffffffffffffffffffffffffffffffff16021790555050565b61119f611ad0565b15156111aa57600080fd5b606860009054906101000a900473ffffffffffffffffffffffffffffffffffffffff1673ffffffffffffffffffffffffffffffffffffffff166367d97e9f83836040518363ffffffff167c0100000000000000000000000000000000000000000000000000000000028152600401808373ffffffffffffffffffffffffffffffffffffffff1673ffffffffffffffffffffffffffffffffffffffff16815260200180602001828103825283818151815260200191508051906020019060200280838360005b8381101561128a57808201518184015260208101905061126f565b505050509050019350505050600060405180830381600087803b1580156112b057600080fd5b505af11580156112c4573d6000803e3d6000fd5b505050505050565b6000606a60009054906101000a900473ffffffffffffffffffffffffffffffffffffffff1673ffffffffffffffffffffffffffffffffffffffff166370a08231836040518263ffffffff167c0100000000000000000000000000000000000000000000000000000000028152600401808273ffffffffffffffffffffffffffffffffffffffff1673ffffffffffffffffffffffffffffffffffffffff16815260200191505060206040518083038186803b15801561138957600080fd5b505afa15801561139d573d6000803e3d6000fd5b505050506040513d60208110156113b357600080fd5b81019080805190602001909291905050509050919050565b6000606860009054906101000a900473ffffffffffffffffffffffffffffffffffffffff1673ffffffffffffffffffffffffffffffffffffffff16634f558e79836040518263ffffffff167c01000000000000000000000000000000000000000000000000000000000281526004018082815260200191505060206040518083038186803b15801561145c57600080fd5b505afa158015611470573d6000803e3d6000fd5b505050506040513d602081101561148657600080fd5b81019080805190602001909291905050509050919050565b6114a6611ad0565b15156114b157600080fd5b600073ffffffffffffffffffffffffffffffffffffffff168173ffffffffffffffffffffffffffffffffffffffff1614151515611539576040517f08c379a0000000000000000000000000000000000000000000000000000000008152600401808060200182810382526023815260200180612dfb6023913960400191505060405180910390fd5b80606860006101000a81548173ffffffffffffffffffffffffffffffffffffffff021916908373ffffffffffffffffffffffffffffffffffffffff16021790555050565b6000606b60009054906101000a900473ffffffffffffffffffffffffffffffffffffffff1673ffffffffffffffffffffffffffffffffffffffff166370a08231836040518263ffffffff167c0100000000000000000000000000000000000000000000000000000000028152600401808273ffffffffffffffffffffffffffffffffffffffff1673ffffffffffffffffffffffffffffffffffffffff16815260200191505060206040518083038186803b15801561163a57600080fd5b505afa15801561164e573d6000803e3d6000fd5b505050506040513d602081101561166457600080fd5b81019080805190602001909291905050509050919050565b611684611ad0565b151561168f57600080fd5b600073ffffffffffffffffffffffffffffffffffffffff16603360009054906101000a900473ffffffffffffffffffffffffffffffffffffffff1673ffffffffffffffffffffffffffffffffffffffff167f8be0079c531659141344cd1fd0a4f28419497f9722a3daafe3b4186f6b6457e060405160405180910390a36000603360006101000a81548173ffffffffffffffffffffffffffffffffffffffff021916908373ffffffffffffffffffffffffffffffffffffffff160217905550565b611758611ad0565b151561176357600080fd5b61176d82826124ea565b5050565b6000808360018460019060020a02039060020a02905083818616908060020a82049150509150509392505050565b6117a7611ad0565b15156117b257600080fd5b607960009054906101000a900460ff1615151561181a576040517f08c379a0000000000000000000000000000000000000000000000000000000008152600401808060200182810382526038815260200180612d0f6038913960400191505060405180910390fd5b6000607a54670de0b6b3a76400006073600060068110151561183857fe5b01540203111515611894576040517f08c379a0000000000000000000000000000000000000000000000000000000008152600401808060200182810382526025815260200180612cea6025913960400191505060405180910390fd5b6118ee606d60006006811015156118a757fe5b0160009054906101000a900473ffffffffffffffffffffffffffffffffffffffff16607a54670de0b6b3a7640000607360006006811015156118e557fe5b015402036124ea565b6000600190505b600681101561195f57611952606d8260068110151561191057fe5b0160009054906101000a900473ffffffffffffffffffffffffffffffffffffffff16670de0b6b3a764000060738460068110151561194a57fe5b0154026124ea565b80806001019150506118f5565b506001607960006101000a81548160ff021916908315150217905550565b6060606a60009054906101000a900473ffffffffffffffffffffffffffffffffffffffff1673ffffffffffffffffffffffffffffffffffffffff1663314903e0836040518263ffffffff167c01000000000000000000000000000000000000000000000000000000000281526004018082815260200191505060006040518083038186803b158015611a0e57600080fd5b505afa158015611a22573d6000803e3d6000fd5b505050506040513d6000823e3d601f19601f820116820180604052506020811015611a4c57600080fd5b810190808051640100000000811115611a6457600080fd5b82810190506020810184811115611a7a57600080fd5b8151856001820283011164010000000082111715611a9757600080fd5b50509291905050509050919050565b6000603360009054906101000a900473ffffffffffffffffffffffffffffffffffffffff16905090565b6000603360009054906101000a900473ffffffffffffffffffffffffffffffffffffffff1673ffffffffffffffffffffffffffffffffffffffff163373ffffffffffffffffffffffffffffffffffffffff1614905090565b6000611b378260166008611771565b9050919050565b611b46611ad0565b1515611b5157600080fd5b607960009054906101000a900460ff16151515611bb9576040517f08c379a0000000000000000000000000000000000000000000000000000000008152600401808060200182810382526038815260200180612d0f6038913960400191505060405180910390fd5b60068151141515611c15576040517f08c379a0000000000000000000000000000000000000000000000000000000008152600401808060200182810382526037815260200180612dc46037913960400191505060405180910390fd5b60008090505b6006811015611d3457600073ffffffffffffffffffffffffffffffffffffffff168282815181101515611c4a57fe5b9060200190602002015173ffffffffffffffffffffffffffffffffffffffff1614151515611cc3576040517f08c379a000000000000000000000000000000000000000000000000000000000815260040180806020018281038252602c815260200180612d47602c913960400191505060405180910390fd5b8181815181101515611cd157fe5b90602001906020020151606d82600681101515611cea57fe5b0160006101000a81548173ffffffffffffffffffffffffffffffffffffffff021916908373ffffffffffffffffffffffffffffffffffffffff160217905550806001019050611c1b565b5050565b600080611d43611ad0565b1515611d4e57600080fd5b611d57836125ef565b91509150915091565b611d68611ad0565b1515611d7357600080fd5b600073ffffffffffffffffffffffffffffffffffffffff168173ffffffffffffffffffffffffffffffffffffffff1614151515611e18576040517f08c379a000000000000000000000000000000000000000000000000000000000815260040180806020018281038252601e8152602001807f496e76616c6964207061636b73206164647265737320737570706c696564000081525060200191505060405180910390fd5b80606a60006101000a81548173ffffffffffffffffffffffffffffffffffffffff021916908373ffffffffffffffffffffffffffffffffffffffff16021790555050565b6060606b60009054906101000a900473ffffffffffffffffffffffffffffffffffffffff1673ffffffffffffffffffffffffffffffffffffffff1663ba574496836040518263ffffffff167c01000000000000000000000000000000000000000000000000000000000281526004018082815260200191505060006040518083038186803b158015611eed57600080fd5b505afa158015611f01573d6000803e3d6000fd5b505050506040513d6000823e3d601f19601f820116820180604052506020811015611f2b57600080fd5b810190808051640100000000811115611f4357600080fd5b82810190506020810184811115611f5957600080fd5b8151856001820283011164010000000082111715611f7657600080fd5b50509291905050509050919050565b611f8d611ad0565b1515611f9857600080fd5b600073ffffffffffffffffffffffffffffffffffffffff168173ffffffffffffffffffffffffffffffffffffffff161415151561203d576040517f08c379a000000000000000000000000000000000000000000000000000000000815260040180806020018281038252601c8152602001807f496e76616c69642067756d206164647265737320737570706c6965640000000081525060200191505060405180910390fd5b80606660006101000a81548173ffffffffffffffffffffffffffffffffffffffff021916908373ffffffffffffffffffffffffffffffffffffffff16021790555050565b600060019054906101000a900460ff16806120a0575061209f6129b0565b5b806120b757506000809054906101000a900460ff16155b151561210e576040517f08c379a000000000000000000000000000000000000000000000000000000000815260040180806020018281038252602e815260200180612d96602e913960400191505060405180910390fd5b60008060019054906101000a900460ff16159050801561215e576001600060016101000a81548160ff02191690831515021790555060016000806101000a81548160ff0219169083151502179055505b612167826129c1565b60c060405190810160405280620aae6062ffffff168152602001620aae6062ffffff16815260200162030d4062ffffff16815260200162030d4062ffffff16815260200162030d4062ffffff168152602001620f424062ffffff1681525060739060066121d5929190612c7d565b5080156121f75760008060016101000a81548160ff0219169083151502179055505b5050565b6000606a60009054906101000a900473ffffffffffffffffffffffffffffffffffffffff1673ffffffffffffffffffffffffffffffffffffffff16638a06e559836040518263ffffffff167c01000000000000000000000000000000000000000000000000000000000281526004018082815260200191505060206040518083038186803b15801561228c57600080fd5b505afa1580156122a0573d6000803e3d6000fd5b505050506040513d60208110156122b657600080fd5b81019080805190602001909291905050509050919050565b6000606a60009054906101000a900473ffffffffffffffffffffffffffffffffffffffff1673ffffffffffffffffffffffffffffffffffffffff16632f745c5984846040518363ffffffff167c0100000000000000000000000000000000000000000000000000000000028152600401808373ffffffffffffffffffffffffffffffffffffffff1673ffffffffffffffffffffffffffffffffffffffff1681526020018281526020019250505060206040518083038186803b15801561239357600080fd5b505afa1580156123a7573d6000803e3d6000fd5b505050506040513d60208110156123bd57600080fd5b8101908080519060200190929190505050905092915050565b6123de611ad0565b15156123e957600080fd5b600073ffffffffffffffffffffffffffffffffffffffff168173ffffffffffffffffffffffffffffffffffffffff1614151515612471576040517f08c379a0000000000000000000000000000000000000000000000000000000008152600401808060200182810382526023815260200180612d736023913960400191505060405180910390fd5b80606760006101000a81548173ffffffffffffffffffffffffffffffffffffffff021916908373ffffffffffffffffffffffffffffffffffffffff16021790555050565b6124bd611ad0565b15156124c857600080fd5b6124d181612b81565b50565b60006124e38260006016611771565b9050919050565b606660009054906101000a900473ffffffffffffffffffffffffffffffffffffffff1673ffffffffffffffffffffffffffffffffffffffff1663a9059cbb83836040518363ffffffff167c0100000000000000000000000000000000000000000000000000000000028152600401808373ffffffffffffffffffffffffffffffffffffffff1673ffffffffffffffffffffffffffffffffffffffff16815260200182815260200192505050602060405180830381600087803b1580156125af57600080fd5b505af11580156125c3573d6000803e3d6000fd5b505050506040513d60208110156125d957600080fd5b8101908080519060200190929190505050505050565b600080607b60008473ffffffffffffffffffffffffffffffffffffffff1673ffffffffffffffffffffffffffffffffffffffff16815260200190815260200160002060009054906101000a900460ff16151515612697576040517f08c379a0000000000000000000000000000000000000000000000000000000008152600401808060200182810382526026815260200180612e1e6026913960400191505060405180910390fd5b6000670de0b6b3a7640000606a60009054906101000a900473ffffffffffffffffffffffffffffffffffffffff1673ffffffffffffffffffffffffffffffffffffffff16635c5329fc866040518263ffffffff167c0100000000000000000000000000000000000000000000000000000000028152600401808273ffffffffffffffffffffffffffffffffffffffff1673ffffffffffffffffffffffffffffffffffffffff16815260200191505060206040518083038186803b15801561275d57600080fd5b505afa158015612771573d6000803e3d6000fd5b505050506040513d602081101561278757600080fd5b8101908080519060200190929190505050606960009054906101000a900473ffffffffffffffffffffffffffffffffffffffff1673ffffffffffffffffffffffffffffffffffffffff166370a08231876040518263ffffffff167c0100000000000000000000000000000000000000000000000000000000028152600401808273ffffffffffffffffffffffffffffffffffffffff1673ffffffffffffffffffffffffffffffffffffffff16815260200191505060206040518083038186803b15801561285357600080fd5b505afa158015612867573d6000803e3d6000fd5b505050506040513d602081101561287d57600080fd5b81019080805190602001909291905050500181151561289857fe5b0490506000600a828115156128a957fe5b0690506000670de0b6b3a7640000600083116128c65760006128c9565b60015b60ff16600a8486038115156128da57fe5b040102905080607a5401607a819055506128f486826124ea565b6001607b60008873ffffffffffffffffffffffffffffffffffffffff1673ffffffffffffffffffffffffffffffffffffffff16815260200190815260200160002060006101000a81548160ff0219169083151502179055508573ffffffffffffffffffffffffffffffffffffffff167ff5cca2977b4272d9b3fd353e54e5b9c2761e95247d3099b5ce4c191eb587ef668483604051808381526020018281526020019250505060405180910390a2828194509450505050915091565b600080303b90506000811491505090565b600060019054906101000a900460ff16806129e057506129df6129b0565b5b806129f757506000809054906101000a900460ff16155b1515612a4e576040517f08c379a000000000000000000000000000000000000000000000000000000000815260040180806020018281038252602e815260200180612d96602e913960400191505060405180910390fd5b60008060019054906101000a900460ff161590508015612a9e576001600060016101000a81548160ff02191690831515021790555060016000806101000a81548160ff0219169083151502179055505b81603360006101000a81548173ffffffffffffffffffffffffffffffffffffffff021916908373ffffffffffffffffffffffffffffffffffffffff160217905550603360009054906101000a900473ffffffffffffffffffffffffffffffffffffffff1673ffffffffffffffffffffffffffffffffffffffff16600073ffffffffffffffffffffffffffffffffffffffff167f8be0079c531659141344cd1fd0a4f28419497f9722a3daafe3b4186f6b6457e060405160405180910390a38015612b7d5760008060016101000a81548160ff0219169083151502179055505b5050565b600073ffffffffffffffffffffffffffffffffffffffff168173ffffffffffffffffffffffffffffffffffffffff1614151515612bbd57600080fd5b8073ffffffffffffffffffffffffffffffffffffffff16603360009054906101000a900473ffffffffffffffffffffffffffffffffffffffff1673ffffffffffffffffffffffffffffffffffffffff167f8be0079c531659141344cd1fd0a4f28419497f9722a3daafe3b4186f6b6457e060405160405180910390a380603360006101000a81548173ffffffffffffffffffffffffffffffffffffffff021916908373ffffffffffffffffffffffffffffffffffffffff16021790555050565b8260068101928215612cb3579160200282015b82811115612cb2578251829062ffffff16905591602001919060010190612c90565b5b509050612cc09190612cc4565b5090565b612ce691905b80821115612ce2576000816000905550600101612cca565b5090565b9056fe4d696772617465642047554d206973206d6f7265207468616e20526573657276652047554d546f6b656e73206861766520616c7265616479206265656e20646973747269627574656420746f20696e697469616c206163636f756e7473496e76616c6964206164647265737320737570706c69656420666f722072657365727665206163636f756e74496e76616c6964207061636b73546f6b656e206164647265737320737570706c696564436f6e747261637420696e7374616e63652068617320616c7265616479206265656e20696e697469616c697a6564496e76616c6964206163636f756e747320737570706c6965643b206d75737420626520616e206172726179206f66206c656e6774682036496e76616c6964206361726473546f6b656e206164647265737320737570706c696564546f6b656e20486f6c6465722068617320616c7265616479206265656e206d69677261746564a165627a7a72305820fbdb62a950ae107e2eebc7a1d26af06e9a2860220e5e3e98115468c12b47dcb80029",
  "source": "\n/**\n * Phat Cats - Crypto-Cards\n *  - https://crypto-cards.io\n *  - https://phatcats.co\n *\n * Copyright 2019 (c) Phat Cats, Inc.\n */\n\npragma solidity 0.5.2;\n\nimport \"zos-lib/contracts/Initializable.sol\";\nimport \"openzeppelin-eth/contracts/ownership/Ownable.sol\";\n\nimport \"./CryptoCardsPackToken.sol\";\nimport \"./CryptoCardsCardToken.sol\";\nimport \"./CryptoCardsGumToken.sol\";\n\n// Old Cards Controller (links to token)\ncontract CryptoCardsOld {\n    function balanceOf(address owner) public view returns (uint256);\n    function cardHashById(uint256 _cardId) public view returns (string memory);\n    function cardIssueById(uint256 _cardId) public view returns (uint16);\n    function cardIndexById(uint256 _cardId) public view returns (uint8);\n    function cardGenById(uint256 _cardId) public view returns (uint8);\n}\n\ncontract CryptoCardsCardTokenOld {\n    function tokenOfOwnerByIndex(address owner, uint256 index) public view returns (uint256);\n}\n\n// Old Packs Controller (links to token)\ncontract CryptoCardPacksOld {\n    function balanceOf(address owner) public view returns (uint256);\n    function tokenOfOwnerByIndex(address owner, uint256 index) public view returns (uint256);\n    function packDataById(uint256 tokenId) public view returns (string memory);\n    function isPackOpened(uint256 _packId) public view returns (bool);\n    function unclaimedGumOf(address owner) public view returns (uint256);\n}\n\n/**\n * @title Crypto-Cards Token Migrator\n */\ncontract CryptoCardsTokenMigrator is Initializable, Ownable {\n    // New Contracts\n    CryptoCardsGumToken internal _gumToken;\n    CryptoCardsPackToken internal _packsToken;\n    CryptoCardsCardToken internal _cardsToken;\n\n    // Old Contracts\n    CryptoCardsGumToken internal _gumTokenOld;\n    CryptoCardPacksOld internal _packsOld;\n    CryptoCardsOld internal _cardsOld;\n    CryptoCardsCardTokenOld internal _cardsTokenOld;\n\n    // THIS CONTRACT IS INITIAL GUM HOLDER\n\n    // [0] = Reserve                (Sent to Reserve-Escrow Account)\n    // [1] = In-House               (Sent to In-House Account)\n    // [2] = Bounty Rewards         (Sent to Bounty-Rewards Account)\n    // [3] = Marketing Rewards      (Sent to Marketing Rewards Account)\n    // [4] = Airdrop                (Sent to Airdrop-Escrow Account)\n    // [5] = For Packs and Cards    (Sent to CryptoCardsGum Contract for distribution)\n    address[6] internal _initialAccounts;\n    uint256[6] internal _initialAmounts;\n\n    bool internal _initialTokensDistributed;\n\n    uint256 internal _migratedGum;\n\n    mapping (address => bool) internal _isMigrated;\n\n    event OwnerGumMigrated(address indexed owner, uint256 oldAmount, uint256 newAmount);\n\n    //\n    // Initialize\n    //\n    function initialize(address owner) public initializer {\n        Ownable.initialize(owner);\n\n        _initialAmounts = [\n             700000,  // minus _migratedGum\n             700000,\n             200000,\n             200000,\n             200000,\n            1000000\n        ];\n        //  3000000  Total Supply\n    }\n\n    //\n    // GUM Tokens - Distribution\n    //\n\n    function setInitialAccounts(address[] memory accounts) public onlyOwner {\n        require(!_initialTokensDistributed, \"Tokens have already been distributed to initial accounts\");\n        require(accounts.length == 6, \"Invalid accounts supplied; must be an array of length 6\");\n\n        for (uint256 i = 0; i < 6; ++i) {\n            require(accounts[i] != address(0), \"Invalid address supplied for reserve account\");\n            _initialAccounts[i] = accounts[i];\n        }\n    }\n\n    function distributeInitialGum() public onlyOwner {\n        require(!_initialTokensDistributed, \"Tokens have already been distributed to initial accounts\");\n        require((_initialAmounts[0] * (1 ether)) - _migratedGum > 0, \"Migrated GUM is more than Reserve GUM\");\n\n        _transferGum(_initialAccounts[0], (_initialAmounts[0] * (1 ether)) - _migratedGum);\n        for (uint i = 1; i < _initialAccounts.length; i++) {\n            _transferGum(_initialAccounts[i], (_initialAmounts[i] * (1 ether)));\n        }\n\n        _initialTokensDistributed = true;\n    }\n\n    function distributeGum(address to, uint256 amount) public onlyOwner {\n        _transferGum(to, amount);\n    }\n\n    //\n    // GUM Tokens - Migration\n    //\n\n    function migrateTokenHolder(address tokenHolder) public onlyOwner returns (uint256, uint256) {\n        return _migrate(tokenHolder);\n    }\n\n    //\n    // Cards Token Functions for Assisting Migration\n    //\n\n    function cardsBalanceOf(address owner) public view returns (uint256) {\n        return _cardsOld.balanceOf(owner);\n    }\n    function cardsTokenOfOwnerByIndex(address owner, uint256 index) public view returns (uint256) {\n        return _cardsTokenOld.tokenOfOwnerByIndex(owner, index);\n    }\n    function cardHashById(uint256 cardId) public view returns (string memory) {\n        return _cardsOld.cardHashById(cardId);\n    }\n    function cardIssueFromHash(uint256 cardData) public pure returns (uint16) {\n        return uint16(_readBits(cardData, 0, 22));\n    }\n    function cardRankFromHash(uint256 cardData) public pure returns (uint8) {\n        return uint8(_readBits(cardData, 22, 8));\n    }\n    function cardExists(uint256 cardId) public view returns (bool) {\n        return _cardsToken.exists(cardId);\n    }\n    function mintNewCards(address to, uint[] memory tokenIds) public onlyOwner {\n        _cardsToken.migrateCards(to, tokenIds);\n    }\n\n    //\n    // Packs Token Functions for Assisting Migration\n    //\n\n    function packsBalanceOf(address owner) public view returns (uint256) {\n        return _packsOld.balanceOf(owner);\n    }\n    function packsTokenOfOwnerByIndex(address owner, uint256 index) public view returns (uint256) {\n        return _packsOld.tokenOfOwnerByIndex(owner, index);\n    }\n    function packHashById(uint256 tokenId) public view returns (string memory) {\n        return _packsOld.packDataById(tokenId);\n    }\n    function isTokenFrozen(uint256 tokenId) public view returns (bool) {\n        return _packsOld.isPackOpened(tokenId);\n    }\n    function mintNewPack(address owner, string memory packData) public onlyOwner returns (uint256) {\n        return _packsToken.mintPack(owner, packData);\n    }\n\n    //\n    // Only Owner\n    //\n\n    function setGumToken(CryptoCardsGumToken gum) public onlyOwner {\n        require(address(gum) != address(0), \"Invalid gum address supplied\");\n        _gumToken = gum;\n    }\n\n    function setOldGumToken(CryptoCardsGumToken gum) public onlyOwner {\n        require(address(gum) != address(0), \"Invalid gum address supplied\");\n        _gumTokenOld = gum;\n    }\n\n    function setPacksToken(CryptoCardsPackToken packsToken) public onlyOwner {\n        require(address(packsToken) != address(0), \"Invalid packsToken address supplied\");\n        _packsToken = packsToken;\n    }\n\n    function setOldPacks(CryptoCardPacksOld packs) public onlyOwner {\n        require(address(packs) != address(0), \"Invalid packs address supplied\");\n        _packsOld = packs;\n    }\n\n    function setCardsToken(CryptoCardsCardToken cardsToken) public onlyOwner {\n        require(address(cardsToken) != address(0), \"Invalid cardsToken address supplied\");\n        _cardsToken = cardsToken;\n    }\n\n    function setOldCardsToken(CryptoCardsCardTokenOld cardsToken) public onlyOwner {\n        require(address(cardsToken) != address(0), \"Invalid cardsToken address supplied\");\n        _cardsTokenOld = cardsToken;\n    }\n\n    function setOldCards(CryptoCardsOld cards) public onlyOwner {\n        require(address(cards) != address(0), \"Invalid cards address supplied\");\n        _cardsOld = cards;\n    }\n\n    //\n    // Private\n    //\n\n    function _migrate(address tokenHolder) internal returns (uint256, uint256) {\n        require(!_isMigrated[tokenHolder], \"Token Holder has already been migrated\");\n\n        // 10 Old GUM exchanged for 1 New GUM   (10x reduction)\n        //   Old GUM Supply: 3,000,000,000\n        //   New GUM Supply:     3,000,000      (1000x reduction)\n        //     Value of New Tokens increases by 100x\n        uint256 oldAmount = (_gumTokenOld.balanceOf(tokenHolder) + _packsOld.unclaimedGumOf(tokenHolder)) / (1 ether);\n        uint256 remainder = (oldAmount % 10);\n        uint256 newAmount = (((oldAmount - remainder) / 10) + (remainder > 0 ? 1 : 0)) * (1 ether);\n        _migratedGum = _migratedGum + newAmount;\n        _transferGum(tokenHolder, newAmount);\n        _isMigrated[tokenHolder] = true;\n        emit OwnerGumMigrated(tokenHolder, oldAmount, newAmount);\n        return (oldAmount, newAmount);\n    }\n\n    function _transferGum(address to, uint256 amount) internal {\n        _gumToken.transfer(to, amount);\n    }\n\n    function _readBits(uint num, uint from, uint len) public pure returns (uint) {\n        uint mask = ((1 << len) - 1) << from;\n        return (num & mask) >> from;\n    }\n}\n",
  "sourcePath": "/Users/robsecord/workspace/Ethereum/CryptoCards/cryptocards_contracts/contracts/CryptoCardsTokenMigrator.sol",
  "compiler": {
    "name": "solc",
    "version": "0.5.2+commit.1df8f40c.Emscripten.clang"
  },
  "schemaVersion": "3.0.11",
  "updatedAt": "2019-09-17T00:52:56.760Z",
  "devdoc": {
    "methods": {
      "isOwner()": {
        "return": "true if `msg.sender` is the owner of the contract."
      },
      "owner()": {
        "return": "the address of the owner."
      },
      "renounceOwnership()": {
        "details": "Allows the current owner to relinquish control of the contract. It will not be possible to call the functions with the `onlyOwner` modifier anymore."
      },
      "transferOwnership(address)": {
        "details": "Allows the current owner to transfer control of the contract to a newOwner.",
        "params": {
          "newOwner": "The address to transfer ownership to."
        }
      }
    },
    "title": "Crypto-Cards Token Migrator"
  },
  "userdoc": {
    "methods": {
      "renounceOwnership()": {
        "notice": "Renouncing ownership will leave the contract without an owner, thereby removing any functionality that is only available to the owner."
      }
    }
  }
}