{
  "contractName": "CryptoCardsLib",
  "abi": [
    {
      "constant": false,
      "inputs": [],
      "name": "renounceOwnership",
      "outputs": [],
      "payable": false,
      "stateMutability": "nonpayable",
      "type": "function"
    },
    {
      "constant": true,
      "inputs": [
        {
          "name": "account",
          "type": "address"
        }
      ],
      "name": "isSigner",
      "outputs": [
        {
          "name": "",
          "type": "bool"
        }
      ],
      "payable": false,
      "stateMutability": "view",
      "type": "function"
    },
    {
      "constant": true,
      "inputs": [],
      "name": "owner",
      "outputs": [
        {
          "name": "",
          "type": "address"
        }
      ],
      "payable": false,
      "stateMutability": "view",
      "type": "function"
    },
    {
      "constant": true,
      "inputs": [],
      "name": "isOwner",
      "outputs": [
        {
          "name": "",
          "type": "bool"
        }
      ],
      "payable": false,
      "stateMutability": "view",
      "type": "function"
    },
    {
      "constant": false,
      "inputs": [],
      "name": "renounceSigner",
      "outputs": [],
      "payable": false,
      "stateMutability": "nonpayable",
      "type": "function"
    },
    {
      "constant": false,
      "inputs": [
        {
          "name": "account",
          "type": "address"
        }
      ],
      "name": "addSigner",
      "outputs": [],
      "payable": false,
      "stateMutability": "nonpayable",
      "type": "function"
    },
    {
      "constant": false,
      "inputs": [
        {
          "name": "newOwner",
          "type": "address"
        }
      ],
      "name": "transferOwnership",
      "outputs": [],
      "payable": false,
      "stateMutability": "nonpayable",
      "type": "function"
    },
    {
      "anonymous": false,
      "inputs": [
        {
          "indexed": true,
          "name": "account",
          "type": "address"
        }
      ],
      "name": "SignerAdded",
      "type": "event"
    },
    {
      "anonymous": false,
      "inputs": [
        {
          "indexed": true,
          "name": "account",
          "type": "address"
        }
      ],
      "name": "SignerRemoved",
      "type": "event"
    },
    {
      "anonymous": false,
      "inputs": [
        {
          "indexed": true,
          "name": "previousOwner",
          "type": "address"
        },
        {
          "indexed": true,
          "name": "newOwner",
          "type": "address"
        }
      ],
      "name": "OwnershipTransferred",
      "type": "event"
    },
    {
      "constant": false,
      "inputs": [
        {
          "name": "owner",
          "type": "address"
        }
      ],
      "name": "initialize",
      "outputs": [],
      "payable": false,
      "stateMutability": "nonpayable",
      "type": "function"
    },
    {
      "constant": true,
      "inputs": [
        {
          "name": "owner",
          "type": "address"
        }
      ],
      "name": "getPurchasedPackCount",
      "outputs": [
        {
          "name": "",
          "type": "uint256"
        }
      ],
      "payable": false,
      "stateMutability": "view",
      "type": "function"
    },
    {
      "constant": true,
      "inputs": [
        {
          "name": "index",
          "type": "uint8"
        }
      ],
      "name": "getPromoCode",
      "outputs": [
        {
          "name": "",
          "type": "uint256"
        }
      ],
      "payable": false,
      "stateMutability": "view",
      "type": "function"
    },
    {
      "constant": true,
      "inputs": [
        {
          "name": "index",
          "type": "uint8"
        }
      ],
      "name": "getPromoDiscount",
      "outputs": [
        {
          "name": "",
          "type": "uint256"
        }
      ],
      "payable": false,
      "stateMutability": "view",
      "type": "function"
    },
    {
      "constant": true,
      "inputs": [
        {
          "name": "index",
          "type": "uint8"
        }
      ],
      "name": "getReferralLevel",
      "outputs": [
        {
          "name": "",
          "type": "uint256"
        }
      ],
      "payable": false,
      "stateMutability": "view",
      "type": "function"
    },
    {
      "constant": true,
      "inputs": [],
      "name": "getPrice",
      "outputs": [
        {
          "name": "",
          "type": "uint256"
        }
      ],
      "payable": false,
      "stateMutability": "view",
      "type": "function"
    },
    {
      "constant": true,
      "inputs": [
        {
          "name": "promoCode",
          "type": "uint256"
        },
        {
          "name": "hasReferral",
          "type": "bool"
        }
      ],
      "name": "getPricePerPack",
      "outputs": [
        {
          "name": "",
          "type": "uint256"
        }
      ],
      "payable": false,
      "stateMutability": "view",
      "type": "function"
    },
    {
      "constant": true,
      "inputs": [
        {
          "name": "referrer",
          "type": "address"
        },
        {
          "name": "cost",
          "type": "uint256"
        }
      ],
      "name": "getAmountForReferrer",
      "outputs": [
        {
          "name": "",
          "type": "uint256"
        }
      ],
      "payable": false,
      "stateMutability": "view",
      "type": "function"
    },
    {
      "constant": true,
      "inputs": [
        {
          "name": "s",
          "type": "string"
        }
      ],
      "name": "strToUint",
      "outputs": [
        {
          "name": "",
          "type": "uint256"
        }
      ],
      "payable": false,
      "stateMutability": "pure",
      "type": "function"
    },
    {
      "constant": true,
      "inputs": [
        {
          "name": "b",
          "type": "bytes"
        }
      ],
      "name": "bytesToUint",
      "outputs": [
        {
          "name": "",
          "type": "uint256"
        }
      ],
      "payable": false,
      "stateMutability": "pure",
      "type": "function"
    },
    {
      "constant": true,
      "inputs": [
        {
          "name": "c",
          "type": "uint8"
        }
      ],
      "name": "fromHexChar",
      "outputs": [
        {
          "name": "",
          "type": "uint8"
        }
      ],
      "payable": false,
      "stateMutability": "pure",
      "type": "function"
    },
    {
      "constant": true,
      "inputs": [
        {
          "name": "s",
          "type": "string"
        }
      ],
      "name": "fromHex",
      "outputs": [
        {
          "name": "",
          "type": "bytes"
        }
      ],
      "payable": false,
      "stateMutability": "pure",
      "type": "function"
    },
    {
      "constant": false,
      "inputs": [
        {
          "name": "owner",
          "type": "address"
        },
        {
          "name": "amount",
          "type": "uint256"
        }
      ],
      "name": "incrementPurchasedPackCount",
      "outputs": [
        {
          "name": "",
          "type": "uint256"
        }
      ],
      "payable": false,
      "stateMutability": "nonpayable",
      "type": "function"
    },
    {
      "constant": false,
      "inputs": [
        {
          "name": "price",
          "type": "uint256"
        }
      ],
      "name": "updatePricePerPack",
      "outputs": [],
      "payable": false,
      "stateMutability": "nonpayable",
      "type": "function"
    },
    {
      "constant": false,
      "inputs": [
        {
          "name": "index",
          "type": "uint8"
        },
        {
          "name": "code",
          "type": "uint256"
        }
      ],
      "name": "updatePromoCode",
      "outputs": [],
      "payable": false,
      "stateMutability": "nonpayable",
      "type": "function"
    },
    {
      "constant": false,
      "inputs": [
        {
          "name": "controller",
          "type": "address"
        }
      ],
      "name": "setContractController",
      "outputs": [],
      "payable": false,
      "stateMutability": "nonpayable",
      "type": "function"
    },
    {
      "constant": false,
      "inputs": [
        {
          "name": "index",
          "type": "uint8"
        },
        {
          "name": "discount",
          "type": "uint256"
        }
      ],
      "name": "updatePromoDiscount",
      "outputs": [],
      "payable": false,
      "stateMutability": "nonpayable",
      "type": "function"
    },
    {
      "constant": false,
      "inputs": [
        {
          "name": "level",
          "type": "uint8"
        },
        {
          "name": "amount",
          "type": "uint256"
        }
      ],
      "name": "updateReferralLevels",
      "outputs": [],
      "payable": false,
      "stateMutability": "nonpayable",
      "type": "function"
    }
  ],
  "bytecode": "0x608060405234801561001057600080fd5b5061280a806100206000396000f3fe608060405234801561001057600080fd5b5060043610610190576000357c0100000000000000000000000000000000000000000000000000000000900480639204cc31116100fb578063c5ef3ec5116100b4578063e5c8b03d1161008e578063e5c8b03d146108e0578063e8438094146108ea578063eb12d61e1461094c578063f2fde38b1461099057610190565b8063c5ef3ec514610788578063cef17d4914610857578063e4a40b121461089257610190565b80639204cc31146105e257806398d5fdca1461063a578063ab678f7114610658578063ac0c84a1146106ba578063c429d896146106ff578063c4d66de81461074457610190565b8063627d853b1161014d578063627d853b146103a1578063715018a6146103dc5780637df73e27146103e65780638da5cb5b146104425780638e7e34d71461048c5780638f32d59b146105c057610190565b806302d06d05146101955780630862ad031461026457806322cc9a021461029257806323ef92f1146102d65780632ecb20d3146103115780633cdad5f01461035c575b600080fd5b61024e600480360360208110156101ab57600080fd5b81019080803590602001906401000000008111156101c857600080fd5b8201836020820111156101da57600080fd5b803590602001918460018302840111640100000000831117156101fc57600080fd5b91908080601f016020809104026020016040519081016040528093929190818152602001838380828437600081840152601f19601f8201169050808301925050505050505091929192905050506109d4565b6040518082815260200191505060405180910390f35b6102906004803603602081101561027a57600080fd5b8101908080359060200190929190505050610a8e565b005b6102d4600480360360208110156102a857600080fd5b81019080803573ffffffffffffffffffffffffffffffffffffffff169060200190929190505050610b0d565b005b61030f600480360360408110156102ec57600080fd5b81019080803560ff16906020019092919080359060200190929190505050610c09565b005b6103406004803603602081101561032757600080fd5b81019080803560ff169060200190929190505050610cc4565b604051808260ff1660ff16815260200191505060405180910390f35b61038b6004803603602081101561037257600080fd5b81019080803560ff169060200190929190505050611120565b6040518082815260200191505060405180910390f35b6103da600480360360408110156103b757600080fd5b81019080803560ff169060200190929190803590602001909291905050506111c7565b005b6103e4611281565b005b610428600480360360208110156103fc57600080fd5b81019080803573ffffffffffffffffffffffffffffffffffffffff169060200190929190505050611355565b604051808215151515815260200191505060405180910390f35b61044a611372565b604051808273ffffffffffffffffffffffffffffffffffffffff1673ffffffffffffffffffffffffffffffffffffffff16815260200191505060405180910390f35b610545600480360360208110156104a257600080fd5b81019080803590602001906401000000008111156104bf57600080fd5b8201836020820111156104d157600080fd5b803590602001918460018302840111640100000000831117156104f357600080fd5b91908080601f016020809104026020016040519081016040528093929190818152602001838380828437600081840152601f19601f82011690508083019250505050505050919291929050505061139c565b6040518080602001828103825283818151815260200191508051906020019080838360005b8381101561058557808201518184015260208101905061056a565b50505050905090810190601f1680156105b25780820380516001836020036101000a031916815260200191505b509250505060405180910390f35b6105c86115a9565b604051808215151515815260200191505060405180910390f35b610624600480360360208110156105f857600080fd5b81019080803573ffffffffffffffffffffffffffffffffffffffff169060200190929190505050611601565b6040518082815260200191505060405180910390f35b61064261164a565b6040518082815260200191505060405180910390f35b6106a46004803603604081101561066e57600080fd5b81019080803573ffffffffffffffffffffffffffffffffffffffff16906020019092919080359060200190929190505050611654565b6040518082815260200191505060405180910390f35b6106e9600480360360208110156106d057600080fd5b81019080803560ff1690602001909291905050506117cb565b6040518082815260200191505060405180910390f35b61072e6004803603602081101561071557600080fd5b81019080803560ff169060200190929190505050611872565b6040518082815260200191505060405180910390f35b6107866004803603602081101561075a57600080fd5b81019080803573ffffffffffffffffffffffffffffffffffffffff169060200190929190505050611919565b005b6108416004803603602081101561079e57600080fd5b81019080803590602001906401000000008111156107bb57600080fd5b8201836020820111156107cd57600080fd5b803590602001918460018302840111640100000000831117156107ef57600080fd5b91908080601f016020809104026020016040519081016040528093929190818152602001838380828437600081840152601f19601f820116905080830192505050505050509192919290505050611aeb565b6040518082815260200191505060405180910390f35b6108906004803603604081101561086d57600080fd5b81019080803560ff16906020019092919080359060200190929190505050611cc1565b005b6108ca600480360360408110156108a857600080fd5b8101908080359060200190929190803515159060200190929190505050611df3565b6040518082815260200191505060405180910390f35b6108e8611e83565b005b6109366004803603604081101561090057600080fd5b81019080803573ffffffffffffffffffffffffffffffffffffffff16906020019092919080359060200190929190505050611e8e565b6040518082815260200191505060405180910390f35b61098e6004803603602081101561096257600080fd5b81019080803573ffffffffffffffffffffffffffffffffffffffff169060200190929190505050611fe5565b005b6109d2600480360360208110156109a657600080fd5b81019080803573ffffffffffffffffffffffffffffffffffffffff169060200190929190505050612005565b005b60008060008090505b8351811015610a84576001810184510360080260020a8482815181101515610a0157fe5b9060200101517f010000000000000000000000000000000000000000000000000000000000000090047f0100000000000000000000000000000000000000000000000000000000000000027f0100000000000000000000000000000000000000000000000000000000000000900460ff16028201915080806001019150506109dd565b5080915050919050565b610a9733611355565b1515610aa257600080fd5b6611c37937e0800081111515610b03576040517f08c379a00000000000000000000000000000000000000000000000000000000081526004018080602001828103825260238152602001806127bc6023913960400191505060405180910390fd5b8060998190555050565b610b156115a9565b1515610b2057600080fd5b600073ffffffffffffffffffffffffffffffffffffffff168173ffffffffffffffffffffffffffffffffffffffff1614151515610bc5576040517f08c379a00000000000000000000000000000000000000000000000000000000081526004018080602001828103825260188152602001807f496e76616c6964206164647265737320737570706c696564000000000000000081525060200191505060405180910390fd5b8060a460006101000a81548173ffffffffffffffffffffffffffffffffffffffff021916908373ffffffffffffffffffffffffffffffffffffffff16021790555050565b610c1233611355565b1515610c1d57600080fd5b60008260ff1610158015610c34575060038260ff16105b1515610ca8576040517f08c379a00000000000000000000000000000000000000000000000000000000081526004018080602001828103825260168152602001807f496e76616c696420696e64657820737570706c6965640000000000000000000081525060200191505060405180910390fd5b80609d8360ff16600381101515610cbb57fe5b01819055505050565b60007f30000000000000000000000000000000000000000000000000000000000000007effffffffffffffffffffffffffffffffffffffffffffffffffffffffffffff1916827f0100000000000000000000000000000000000000000000000000000000000000027effffffffffffffffffffffffffffffffffffffffffffffffffffffffffffff191610158015610de257507f39000000000000000000000000000000000000000000000000000000000000007effffffffffffffffffffffffffffffffffffffffffffffffffffffffffffff1916827f0100000000000000000000000000000000000000000000000000000000000000027effffffffffffffffffffffffffffffffffffffffffffffffffffffffffffff191611155b15610e34577f30000000000000000000000000000000000000000000000000000000000000007f010000000000000000000000000000000000000000000000000000000000000090048203905061111b565b7f61000000000000000000000000000000000000000000000000000000000000007effffffffffffffffffffffffffffffffffffffffffffffffffffffffffffff1916827f0100000000000000000000000000000000000000000000000000000000000000027effffffffffffffffffffffffffffffffffffffffffffffffffffffffffffff191610158015610f5057507f66000000000000000000000000000000000000000000000000000000000000007effffffffffffffffffffffffffffffffffffffffffffffffffffffffffffff1916827f0100000000000000000000000000000000000000000000000000000000000000027effffffffffffffffffffffffffffffffffffffffffffffffffffffffffffff191611155b15610fa5577f61000000000000000000000000000000000000000000000000000000000000007f0100000000000000000000000000000000000000000000000000000000000000900482600a0103905061111b565b7f41000000000000000000000000000000000000000000000000000000000000007effffffffffffffffffffffffffffffffffffffffffffffffffffffffffffff1916827f0100000000000000000000000000000000000000000000000000000000000000027effffffffffffffffffffffffffffffffffffffffffffffffffffffffffffff1916101580156110c157507f46000000000000000000000000000000000000000000000000000000000000007effffffffffffffffffffffffffffffffffffffffffffffffffffffffffffff1916827f0100000000000000000000000000000000000000000000000000000000000000027effffffffffffffffffffffffffffffffffffffffffffffffffffffffffffff191611155b15611116577f41000000000000000000000000000000000000000000000000000000000000007f0100000000000000000000000000000000000000000000000000000000000000900482600a0103905061111b565b600090505b919050565b6000808260ff1610158015611138575060038260ff16105b15156111ac576040517f08c379a00000000000000000000000000000000000000000000000000000000081526004018080602001828103825260168152602001807f496e76616c696420696e64657820737570706c6965640000000000000000000081525060200191505060405180910390fd5b60a08260ff166003811015156111be57fe5b01549050919050565b6111cf6115a9565b15156111da57600080fd5b60008260ff16101580156111f1575060038260ff16105b1515611265576040517f08c379a00000000000000000000000000000000000000000000000000000000081526004018080602001828103825260168152602001807f496e76616c696420696e64657820737570706c6965640000000000000000000081525060200191505060405180910390fd5b8060a08360ff1660038110151561127857fe5b01819055505050565b6112896115a9565b151561129457600080fd5b600073ffffffffffffffffffffffffffffffffffffffff16603360009054906101000a900473ffffffffffffffffffffffffffffffffffffffff1673ffffffffffffffffffffffffffffffffffffffff167f8be0079c531659141344cd1fd0a4f28419497f9722a3daafe3b4186f6b6457e060405160405180910390a36000603360006101000a81548173ffffffffffffffffffffffffffffffffffffffff021916908373ffffffffffffffffffffffffffffffffffffffff160217905550565b600061136b82606661202490919063ffffffff16565b9050919050565b6000603360009054906101000a900473ffffffffffffffffffffffffffffffffffffffff16905090565b6060808290506000600282518115156113b157fe5b061415156113be57600080fd5b6060600282518115156113cd57fe5b046040519080825280601f01601f1916602001820160405280156114005781602001600182028038833980820191505090505b50905060008090505b6002835181151561141657fe5b0481101561159e576114a8836001836002020181518110151561143557fe5b9060200101517f010000000000000000000000000000000000000000000000000000000000000090047f0100000000000000000000000000000000000000000000000000000000000000027f01000000000000000000000000000000000000000000000000000000000000009004610cc4565b601061153185846002028151811015156114be57fe5b9060200101517f010000000000000000000000000000000000000000000000000000000000000090047f0100000000000000000000000000000000000000000000000000000000000000027f01000000000000000000000000000000000000000000000000000000000000009004610cc4565b02017f010000000000000000000000000000000000000000000000000000000000000002828281518110151561156357fe5b9060200101907effffffffffffffffffffffffffffffffffffffffffffffffffffffffffffff1916908160001a905350806001019050611409565b508092505050919050565b6000603360009054906101000a900473ffffffffffffffffffffffffffffffffffffffff1673ffffffffffffffffffffffffffffffffffffffff163373ffffffffffffffffffffffffffffffffffffffff1614905090565b600060a360008373ffffffffffffffffffffffffffffffffffffffff1673ffffffffffffffffffffffffffffffffffffffff168152602001908152602001600020549050919050565b6000609954905090565b600060a460009054906101000a900473ffffffffffffffffffffffffffffffffffffffff1673ffffffffffffffffffffffffffffffffffffffff163373ffffffffffffffffffffffffffffffffffffffff161415156116fe576040517f08c379a000000000000000000000000000000000000000000000000000000000815260040180806020018281038252602a815260200180612764602a913960400191505060405180910390fd5b8160a360008573ffffffffffffffffffffffffffffffffffffffff1673ffffffffffffffffffffffffffffffffffffffff168152602001908152602001600020540160a360008573ffffffffffffffffffffffffffffffffffffffff1673ffffffffffffffffffffffffffffffffffffffff1681526020019081526020016000208190555060a360008473ffffffffffffffffffffffffffffffffffffffff1673ffffffffffffffffffffffffffffffffffffffff16815260200190815260200160002054905092915050565b6000808260ff16101580156117e3575060038260ff16105b1515611857576040517f08c379a00000000000000000000000000000000000000000000000000000000081526004018080602001828103825260168152602001807f496e76616c696420696e64657820737570706c6965640000000000000000000081525060200191505060405180910390fd5b609a8260ff1660038110151561186957fe5b01549050919050565b6000808260ff161015801561188a575060038260ff16105b15156118fe576040517f08c379a00000000000000000000000000000000000000000000000000000000081526004018080602001828103825260168152602001807f496e76616c696420696e64657820737570706c6965640000000000000000000081525060200191505060405180910390fd5b609d8260ff1660038110151561191057fe5b01549050919050565b600060019054906101000a900460ff168061193857506119376120b8565b5b8061194f57506000809054906101000a900460ff16155b15156119a6576040517f08c379a000000000000000000000000000000000000000000000000000000000815260040180806020018281038252602e81526020018061278e602e913960400191505060405180910390fd5b60008060019054906101000a900460ff1615905080156119f6576001600060016101000a81548160ff02191690831515021790555060016000806101000a81548160ff0219169083151502179055505b6119ff826120c9565b611a0882612289565b662386f26fc10000609981905550606060405190810160405280600160ff168152602001600a60ff168152602001601460ff16815250609a906003611a4e9291906126b3565b50606060405190810160405280607b61ffff1681526020016101c861ffff16815260200161031561ffff16815250609d906003611a8c9291906126f8565b50606060405190810160405280600560ff168152602001600a60ff168152602001600f60ff1681525060a0906003611ac59291906126b3565b508015611ae75760008060016101000a81548160ff0219169083151502179055505b5050565b60006060829050600080905060008251905060008090505b81811015611cb55760308482815181101515611b1b57fe5b9060200101517f010000000000000000000000000000000000000000000000000000000000000090047f0100000000000000000000000000000000000000000000000000000000000000027f0100000000000000000000000000000000000000000000000000000000000000900460ff1610158015611c19575060398482815181101515611ba557fe5b9060200101517f010000000000000000000000000000000000000000000000000000000000000090047f0100000000000000000000000000000000000000000000000000000000000000027f0100000000000000000000000000000000000000000000000000000000000000900460ff1611155b15611ca85760308482815181101515611c2e57fe5b9060200101517f010000000000000000000000000000000000000000000000000000000000000090047f0100000000000000000000000000000000000000000000000000000000000000027f010000000000000000000000000000000000000000000000000000000000000090040360ff16600a84020192505b8080600101915050611b03565b50819350505050919050565b611cc96115a9565b1515611cd457600080fd5b60008260ff1610158015611ceb575060038260ff16105b1515611d5f576040517f08c379a00000000000000000000000000000000000000000000000000000000081526004018080602001828103825260168152602001807f496e76616c6964206c6576656c20737570706c6965640000000000000000000081525060200191505060405180910390fd5b600081111515611dd7576040517f08c379a00000000000000000000000000000000000000000000000000000000081526004018080602001828103825260208152602001807f616d6f756e74206d7573742062652067726561746572207468616e207a65726f81525060200191505060405180910390fd5b80609a8360ff16600381101515611dea57fe5b01819055505050565b600080600090505b6003811015611e565783609d82600381101515611e1457fe5b01541415611e4957606460a082600381101515611e2d57fe5b015460995402811515611e3c57fe5b0460995403915050611e7d565b8080600101915050611dfb565b508115611e77576014609954811515611e6b57fe5b04609954039050611e7d565b60995490505b92915050565b611e8c336123a4565b565b6000609a6002600381101515611ea057fe5b015460a360008573ffffffffffffffffffffffffffffffffffffffff1673ffffffffffffffffffffffffffffffffffffffff16815260200190815260200160002054101515611f00576064600f8302811515611ef857fe5b049050611fdf565b609a6001600381101515611f1057fe5b015460a360008573ffffffffffffffffffffffffffffffffffffffff1673ffffffffffffffffffffffffffffffffffffffff16815260200190815260200160002054101515611f6d57600a82811515611f6557fe5b049050611fdf565b609a6000600381101515611f7d57fe5b015460a360008573ffffffffffffffffffffffffffffffffffffffff1673ffffffffffffffffffffffffffffffffffffffff16815260200190815260200160002054101515611fda57601482811515611fd257fe5b049050611fdf565b600090505b92915050565b611fee33611355565b1515611ff957600080fd5b612002816123fe565b50565b61200d6115a9565b151561201857600080fd5b61202181612458565b50565b60008073ffffffffffffffffffffffffffffffffffffffff168273ffffffffffffffffffffffffffffffffffffffff161415151561206157600080fd5b8260000160008373ffffffffffffffffffffffffffffffffffffffff1673ffffffffffffffffffffffffffffffffffffffff16815260200190815260200160002060009054906101000a900460ff16905092915050565b600080303b90506000811491505090565b600060019054906101000a900460ff16806120e857506120e76120b8565b5b806120ff57506000809054906101000a900460ff16155b1515612156576040517f08c379a000000000000000000000000000000000000000000000000000000000815260040180806020018281038252602e81526020018061278e602e913960400191505060405180910390fd5b60008060019054906101000a900460ff1615905080156121a6576001600060016101000a81548160ff02191690831515021790555060016000806101000a81548160ff0219169083151502179055505b81603360006101000a81548173ffffffffffffffffffffffffffffffffffffffff021916908373ffffffffffffffffffffffffffffffffffffffff160217905550603360009054906101000a900473ffffffffffffffffffffffffffffffffffffffff1673ffffffffffffffffffffffffffffffffffffffff16600073ffffffffffffffffffffffffffffffffffffffff167f8be0079c531659141344cd1fd0a4f28419497f9722a3daafe3b4186f6b6457e060405160405180910390a380156122855760008060016101000a81548160ff0219169083151502179055505b5050565b600060019054906101000a900460ff16806122a857506122a76120b8565b5b806122bf57506000809054906101000a900460ff16155b1515612316576040517f08c379a000000000000000000000000000000000000000000000000000000000815260040180806020018281038252602e81526020018061278e602e913960400191505060405180910390fd5b60008060019054906101000a900460ff161590508015612366576001600060016101000a81548160ff02191690831515021790555060016000806101000a81548160ff0219169083151502179055505b61236f82611355565b151561237f5761237e826123fe565b5b80156123a05760008060016101000a81548160ff0219169083151502179055505b5050565b6123b881606661255490919063ffffffff16565b8073ffffffffffffffffffffffffffffffffffffffff167f3525e22824a8a7df2c9a6029941c824cf95b6447f1e13d5128fd3826d35afe8b60405160405180910390a250565b61241281606661260390919063ffffffff16565b8073ffffffffffffffffffffffffffffffffffffffff167f47d1c22a25bb3a5d4e481b9b1e6944c2eade3181a0a20b495ed61d35b5323f2460405160405180910390a250565b600073ffffffffffffffffffffffffffffffffffffffff168173ffffffffffffffffffffffffffffffffffffffff161415151561249457600080fd5b8073ffffffffffffffffffffffffffffffffffffffff16603360009054906101000a900473ffffffffffffffffffffffffffffffffffffffff1673ffffffffffffffffffffffffffffffffffffffff167f8be0079c531659141344cd1fd0a4f28419497f9722a3daafe3b4186f6b6457e060405160405180910390a380603360006101000a81548173ffffffffffffffffffffffffffffffffffffffff021916908373ffffffffffffffffffffffffffffffffffffffff16021790555050565b600073ffffffffffffffffffffffffffffffffffffffff168173ffffffffffffffffffffffffffffffffffffffff161415151561259057600080fd5b61259a8282612024565b15156125a557600080fd5b60008260000160008373ffffffffffffffffffffffffffffffffffffffff1673ffffffffffffffffffffffffffffffffffffffff16815260200190815260200160002060006101000a81548160ff0219169083151502179055505050565b600073ffffffffffffffffffffffffffffffffffffffff168173ffffffffffffffffffffffffffffffffffffffff161415151561263f57600080fd5b6126498282612024565b15151561265557600080fd5b60018260000160008373ffffffffffffffffffffffffffffffffffffffff1673ffffffffffffffffffffffffffffffffffffffff16815260200190815260200160002060006101000a81548160ff0219169083151502179055505050565b82600381019282156126e7579160200282015b828111156126e6578251829060ff169055916020019190600101906126c6565b5b5090506126f4919061273e565b5090565b826003810192821561272d579160200282015b8281111561272c578251829061ffff1690559160200191906001019061270b565b5b50905061273a919061273e565b5090565b61276091905b8082111561275c576000816000905550600101612744565b5090565b9056fe416374696f6e206f6e6c7920616c6c6f77656420627920436f6e74726f6c6c657220636f6e7472616374436f6e747261637420696e7374616e63652068617320616c7265616479206265656e20696e697469616c697a65647072696365206d75737420626520686967686572207468616e20302e30303520455448a165627a7a723058203a18766a31afad6602de0f64f9a624e6e6da6f4eebf53d24a0be4a1e952f39100029",
  "source": "/**\n * Phat Cats - Crypto-Cards\n *  - https://crypto-cards.io\n *  - https://phatcats.co\n *\n * Copyright 2019 (c) Phat Cats, Inc.\n */\n\npragma solidity 0.5.2;\n\nimport \"zos-lib/contracts/Initializable.sol\";\nimport \"openzeppelin-eth/contracts/ownership/Ownable.sol\";\nimport \"openzeppelin-eth/contracts/access/roles/SignerRole.sol\";\n\n//\n// NOTE on Ownable:\n//   Owner Account is attached to a Multi-Sig wallet controlled by a minimum of 3 C-Level Executives.\n//\n\ncontract CryptoCardsLib is Initializable, Ownable, SignerRole {\n    uint256 private constant MAX_LEVELS = 3;\n    uint256 private constant MAX_CODES = 3;\n\n    uint256 internal _packPrice;\n\n    uint256[MAX_LEVELS] internal _referralLevels;\n    uint256[MAX_CODES] internal _promoCodes;\n    uint256[MAX_CODES] internal _promoDiscounts;\n\n    mapping(address => uint256) internal _purchasedPackCount;\n\n    // Contract Reference Addresses\n    address internal _controller;\n\n    //\n    // Modifiers\n    //\n    modifier onlyController() {\n        require(msg.sender == _controller, \"Action only allowed by Controller contract\");\n        _;\n    }\n\n    function initialize(address owner) public initializer {\n        Ownable.initialize(owner);\n        SignerRole.initialize(owner);\n\n        _packPrice = 10 finney;\n        _referralLevels = [1, 10, 20];\n        _promoCodes = [123, 456, 789];\n        _promoDiscounts = [5, 10, 15];\n    }\n\n    function getPurchasedPackCount(address owner) public view returns (uint256) {\n        return _purchasedPackCount[owner];\n    }\n\n    function getPromoCode(uint8 index) public view returns (uint256) {\n        require(index >= 0 && index < MAX_CODES, \"Invalid index supplied\");\n        return _promoCodes[index];\n    }\n\n    function getPromoDiscount(uint8 index) public view returns (uint256) {\n        require(index >= 0 && index < MAX_CODES, \"Invalid index supplied\");\n        return _promoDiscounts[index];\n    }\n\n    function getReferralLevel(uint8 index) public view returns (uint256) {\n        require(index >= 0 && index < MAX_LEVELS, \"Invalid index supplied\");\n        return _referralLevels[index];\n    }\n\n    function getPrice() public view returns (uint256) {\n        return _packPrice;\n    }\n\n    function getPricePerPack(uint256 promoCode, bool hasReferral) public view returns (uint256) {\n        // Promo Codes\n        for (uint256 i = 0; i < MAX_CODES; i++) {\n            if (_promoCodes[i] == promoCode) {\n                return _packPrice - (_packPrice * _promoDiscounts[i] / 100);\n            }\n        }\n\n        // Referrals\n        if (hasReferral) {\n            return _packPrice - (_packPrice / 20);    // 5% off\n        }\n\n        // Default (Full) Price\n        return _packPrice;\n    }\n\n    function getAmountForReferrer(address referrer, uint256 cost) public view returns (uint256) {\n        if (_purchasedPackCount[referrer] >= _referralLevels[2]) {\n            return cost * 15 / 100;     // 15%\n        }\n        if (_purchasedPackCount[referrer] >= _referralLevels[1]) {\n            return cost / 10;           // 10%\n        }\n        if (_purchasedPackCount[referrer] >= _referralLevels[0]) {\n            return cost / 20;           // 5%\n        }\n        return 0;\n    }\n\n    // @dev from https://ethereum.stackexchange.com/questions/10932/how-to-convert-string-to-int\n    function strToUint(string memory s) public pure returns (uint) {\n        bytes memory b = bytes(s);\n        uint result = 0;\n        uint len = b.length;\n        for (uint i = 0; i < len; i++) {\n            if (uint8(b[i]) >= 48 && uint8(b[i]) <= 57) {\n                result = result * 10 + (uint8(b[i]) - 48);\n            }\n        }\n        return result;\n    }\n\n    // @dev from https://ethereum.stackexchange.com/questions/64998/converting-from-bytes-in-0-5-x\n    function bytesToUint(bytes memory b) public pure returns (uint256) {\n        uint256 number;\n        for (uint i = 0; i < b.length; i++) {\n            number = number + uint256(uint8(b[i])) * (2**(8 * (b.length-(i+1))));\n        }\n        return number;\n    }\n\n    // Convert an hexadecimal character to their value\n    function fromHexChar(uint8 c) public pure returns (uint8) {\n        if (byte(c) >= byte('0') && byte(c) <= byte('9')) {\n            return c - uint8(byte('0'));\n        }\n        if (byte(c) >= byte('a') && byte(c) <= byte('f')) {\n            return 10 + c - uint8(byte('a'));\n        }\n        if (byte(c) >= byte('A') && byte(c) <= byte('F')) {\n            return 10 + c - uint8(byte('A'));\n        }\n        return 0;\n    }\n\n    // Convert an hexadecimal string to raw bytes\n    function fromHex(string memory s) public pure returns (bytes memory) {\n        bytes memory ss = bytes(s);\n        require(ss.length%2 == 0); // length must be even\n        bytes memory r = new bytes(ss.length/2);\n        for (uint i=0; i<ss.length/2; ++i) {\n            r[i] = byte(fromHexChar(uint8(ss[2*i])) * 16 + fromHexChar(uint8(ss[2*i+1])));\n        }\n        return r;\n    }\n\n    function _readBits(uint num, uint from, uint len) private pure returns (uint) {\n        uint mask = ((1 << len) - 1) << from;\n        return (num & mask) >> from;\n    }\n\n    //\n    // Only Controller\n    //\n\n    function incrementPurchasedPackCount(address owner, uint256 amount) public onlyController returns (uint256) {\n        _purchasedPackCount[owner] = _purchasedPackCount[owner] + amount;\n        return _purchasedPackCount[owner];\n    }\n\n    //\n    // Only Signer\n    //\n\n    function updatePricePerPack(uint256 price) public onlySigner {\n        require(price > 5 finney, \"price must be higher than 0.005 ETH\");\n        _packPrice = price;\n    }\n\n    function updatePromoCode(uint8 index, uint256 code) public onlySigner {\n        require(index >= 0 && index < MAX_CODES, \"Invalid index supplied\");\n        _promoCodes[index] = code;\n    }\n\n    //\n    // Only Owner\n    //\n\n    function setContractController(address controller) public onlyOwner {\n        require(controller != address(0), \"Invalid address supplied\");\n        _controller = controller;\n    }\n\n    function updatePromoDiscount(uint8 index, uint256 discount) public onlyOwner {\n        require(index >= 0 && index < MAX_CODES, \"Invalid index supplied\");\n        _promoDiscounts[index] = discount;\n    }\n\n    function updateReferralLevels(uint8 level, uint256 amount) public onlyOwner {\n        require(level >= 0 && level < MAX_LEVELS, \"Invalid level supplied\");\n        require(amount > 0, \"amount must be greater than zero\");\n        _referralLevels[level] = amount;\n    }\n}\n",
  "sourcePath": "/Users/robsecord/workspace/Ethereum/CryptoCards/cryptocards_contracts/contracts/CryptoCardsLib.sol",
  "compiler": {
    "name": "solc",
    "version": "0.5.2+commit.1df8f40c.Emscripten.clang"
  },
  "schemaVersion": "3.0.11",
  "updatedAt": "2019-10-03T20:59:07.094Z",
  "devdoc": {
    "methods": {
      "isOwner()": {
        "return": "true if `msg.sender` is the owner of the contract."
      },
      "owner()": {
        "return": "the address of the owner."
      },
      "renounceOwnership()": {
        "details": "Allows the current owner to relinquish control of the contract. It will not be possible to call the functions with the `onlyOwner` modifier anymore."
      },
      "transferOwnership(address)": {
        "details": "Allows the current owner to transfer control of the contract to a newOwner.",
        "params": {
          "newOwner": "The address to transfer ownership to."
        }
      }
    }
  },
  "userdoc": {
    "methods": {
      "renounceOwnership()": {
        "notice": "Renouncing ownership will leave the contract without an owner, thereby removing any functionality that is only available to the owner."
      }
    }
  }
}