{
  "contractName": "CryptoCardsGum",
  "abi": [
    {
      "constant": false,
      "inputs": [],
      "name": "renounceOwnership",
      "outputs": [],
      "payable": false,
      "stateMutability": "nonpayable",
      "type": "function"
    },
    {
      "constant": true,
      "inputs": [],
      "name": "owner",
      "outputs": [
        {
          "name": "",
          "type": "address"
        }
      ],
      "payable": false,
      "stateMutability": "view",
      "type": "function"
    },
    {
      "constant": true,
      "inputs": [],
      "name": "isOwner",
      "outputs": [
        {
          "name": "",
          "type": "bool"
        }
      ],
      "payable": false,
      "stateMutability": "view",
      "type": "function"
    },
    {
      "constant": false,
      "inputs": [
        {
          "name": "newOwner",
          "type": "address"
        }
      ],
      "name": "transferOwnership",
      "outputs": [],
      "payable": false,
      "stateMutability": "nonpayable",
      "type": "function"
    },
    {
      "anonymous": false,
      "inputs": [
        {
          "indexed": true,
          "name": "previousOwner",
          "type": "address"
        },
        {
          "indexed": true,
          "name": "newOwner",
          "type": "address"
        }
      ],
      "name": "OwnershipTransferred",
      "type": "event"
    },
    {
      "constant": false,
      "inputs": [
        {
          "name": "owner",
          "type": "address"
        }
      ],
      "name": "initialize",
      "outputs": [],
      "payable": false,
      "stateMutability": "nonpayable",
      "type": "function"
    },
    {
      "constant": true,
      "inputs": [],
      "name": "availableFlavors",
      "outputs": [
        {
          "name": "",
          "type": "uint256"
        }
      ],
      "payable": false,
      "stateMutability": "view",
      "type": "function"
    },
    {
      "constant": true,
      "inputs": [
        {
          "name": "flavor",
          "type": "uint256"
        }
      ],
      "name": "gumFlavorAvailable",
      "outputs": [
        {
          "name": "",
          "type": "bool"
        }
      ],
      "payable": false,
      "stateMutability": "view",
      "type": "function"
    },
    {
      "constant": true,
      "inputs": [
        {
          "name": "flavor",
          "type": "uint256"
        }
      ],
      "name": "gumFlavorName",
      "outputs": [
        {
          "name": "",
          "type": "bytes32"
        }
      ],
      "payable": false,
      "stateMutability": "view",
      "type": "function"
    },
    {
      "constant": true,
      "inputs": [
        {
          "name": "flavor",
          "type": "uint256"
        }
      ],
      "name": "gumFlavorAddress",
      "outputs": [
        {
          "name": "",
          "type": "address"
        }
      ],
      "payable": false,
      "stateMutability": "view",
      "type": "function"
    },
    {
      "constant": true,
      "inputs": [
        {
          "name": "flavor",
          "type": "uint256"
        }
      ],
      "name": "gumPerPack",
      "outputs": [
        {
          "name": "",
          "type": "uint256"
        }
      ],
      "payable": false,
      "stateMutability": "view",
      "type": "function"
    },
    {
      "constant": true,
      "inputs": [
        {
          "name": "owner",
          "type": "address"
        },
        {
          "name": "flavor",
          "type": "uint256"
        }
      ],
      "name": "balanceOf",
      "outputs": [
        {
          "name": "",
          "type": "uint256"
        }
      ],
      "payable": false,
      "stateMutability": "view",
      "type": "function"
    },
    {
      "constant": true,
      "inputs": [
        {
          "name": "flavor",
          "type": "uint256"
        }
      ],
      "name": "packGumAvailable",
      "outputs": [
        {
          "name": "",
          "type": "uint256"
        }
      ],
      "payable": false,
      "stateMutability": "view",
      "type": "function"
    },
    {
      "constant": false,
      "inputs": [
        {
          "name": "packs",
          "type": "address"
        }
      ],
      "name": "setPacksAddress",
      "outputs": [],
      "payable": false,
      "stateMutability": "nonpayable",
      "type": "function"
    },
    {
      "constant": false,
      "inputs": [
        {
          "name": "cards",
          "type": "address"
        }
      ],
      "name": "setCardsAddress",
      "outputs": [],
      "payable": false,
      "stateMutability": "nonpayable",
      "type": "function"
    },
    {
      "constant": false,
      "inputs": [
        {
          "name": "token",
          "type": "address"
        },
        {
          "name": "flavor",
          "type": "uint256"
        },
        {
          "name": "flavorName",
          "type": "bytes32"
        }
      ],
      "name": "setGumToken",
      "outputs": [],
      "payable": false,
      "stateMutability": "nonpayable",
      "type": "function"
    },
    {
      "constant": false,
      "inputs": [
        {
          "name": "flavor",
          "type": "uint256"
        },
        {
          "name": "amount",
          "type": "uint256"
        }
      ],
      "name": "setGumPerPack",
      "outputs": [],
      "payable": false,
      "stateMutability": "nonpayable",
      "type": "function"
    },
    {
      "constant": false,
      "inputs": [
        {
          "name": "flavor",
          "type": "uint256"
        }
      ],
      "name": "setEarnedGumFlavor",
      "outputs": [],
      "payable": false,
      "stateMutability": "nonpayable",
      "type": "function"
    },
    {
      "constant": false,
      "inputs": [
        {
          "name": "to",
          "type": "address"
        },
        {
          "name": "gumAmount",
          "type": "uint256"
        }
      ],
      "name": "transferCardGum",
      "outputs": [
        {
          "name": "",
          "type": "uint256"
        }
      ],
      "payable": false,
      "stateMutability": "nonpayable",
      "type": "function"
    },
    {
      "constant": false,
      "inputs": [
        {
          "name": "to",
          "type": "address"
        },
        {
          "name": "packCount",
          "type": "uint256"
        }
      ],
      "name": "transferPackGum",
      "outputs": [
        {
          "name": "",
          "type": "uint256"
        }
      ],
      "payable": false,
      "stateMutability": "nonpayable",
      "type": "function"
    }
  ],
  "bytecode": "0x608060405234801561001057600080fd5b50611897806100206000396000f3fe608060405234801561001057600080fd5b506004361061013d576000357c01000000000000000000000000000000000000000000000000000000009004806371bcf6ab116100ca578063d0141da01161008e578063d0141da014610538578063db1ae16514610566578063df2b911914610584578063e2f13d0a146105c8578063f2fde38b146106005761013d565b806371bcf6ab146103e457806388ebbc4b146104265780638da5cb5b146104885780638f32d59b146104d2578063c4d66de8146104f45761013d565b80635230018f116101115780635230018f14610296578063663c9fd1146102ee5780636cdb1b7514610334578063707208d614610378578063715018a6146103da5761013d565b8062fdd58e1461014257806315e5c4d8146101a45780632df734f0146102125780634a1f4a4614610254575b600080fd5b61018e6004803603604081101561015857600080fd5b81019080803573ffffffffffffffffffffffffffffffffffffffff16906020019092919080359060200190929190505050610644565b6040518082815260200191505060405180910390f35b6101d0600480360360208110156101ba57600080fd5b810190808035906020019092919050505061076b565b604051808273ffffffffffffffffffffffffffffffffffffffff1673ffffffffffffffffffffffffffffffffffffffff16815260200191505060405180910390f35b61023e6004803603602081101561022857600080fd5b81019080803590602001909291905050506107be565b6040518082815260200191505060405180910390f35b6102806004803603602081101561026a57600080fd5b81019080803590602001909291905050506107f1565b6040518082815260200191505060405180910390f35b6102ec600480360360608110156102ac57600080fd5b81019080803573ffffffffffffffffffffffffffffffffffffffff1690602001909291908035906020019092919080359060200190929190505050610824565b005b61031a6004803603602081101561030457600080fd5b81019080803590602001909291905050506109c8565b604051808215151515815260200191505060405180910390f35b6103766004803603602081101561034a57600080fd5b81019080803573ffffffffffffffffffffffffffffffffffffffff169060200190929190505050610a4f565b005b6103c46004803603604081101561038e57600080fd5b81019080803573ffffffffffffffffffffffffffffffffffffffff16906020019092919080359060200190929190505050610b4b565b6040518082815260200191505060405180910390f35b6103e2610dd0565b005b610410600480360360208110156103fa57600080fd5b8101908080359060200190929190505050610ea4565b6040518082815260200191505060405180910390f35b6104726004803603604081101561043c57600080fd5b81019080803573ffffffffffffffffffffffffffffffffffffffff16906020019092919080359060200190929190505050610eb7565b6040518082815260200191505060405180910390f35b610490611156565b604051808273ffffffffffffffffffffffffffffffffffffffff1673ffffffffffffffffffffffffffffffffffffffff16815260200191505060405180910390f35b6104da611180565b604051808215151515815260200191505060405180910390f35b6105366004803603602081101561050a57600080fd5b81019080803573ffffffffffffffffffffffffffffffffffffffff1690602001909291905050506111d8565b005b6105646004803603602081101561054e57600080fd5b81019080803590602001909291905050506112e3565b005b61056e61137d565b6040518082815260200191505060405180910390f35b6105c66004803603602081101561059a57600080fd5b81019080803573ffffffffffffffffffffffffffffffffffffffff169060200190929190505050611387565b005b6105fe600480360360408110156105de57600080fd5b810190808035906020019092919080359060200190929190505050611483565b005b6106426004803603602081101561061657600080fd5b81019080803573ffffffffffffffffffffffffffffffffffffffff16906020019092919050505061152c565b005b600061064f826109c8565b151561065e5760009050610765565b60668260058110151561066d57fe5b0160009054906101000a900473ffffffffffffffffffffffffffffffffffffffff1673ffffffffffffffffffffffffffffffffffffffff166370a08231846040518263ffffffff167c0100000000000000000000000000000000000000000000000000000000028152600401808273ffffffffffffffffffffffffffffffffffffffff1673ffffffffffffffffffffffffffffffffffffffff16815260200191505060206040518083038186803b15801561072757600080fd5b505afa15801561073b573d6000803e3d6000fd5b505050506040513d602081101561075157600080fd5b810190808051906020019092919050505090505b92915050565b6000610776826109c8565b151561078557600090506107b9565b60668260058110151561079457fe5b0160009054906101000a900473ffffffffffffffffffffffffffffffffffffffff1690505b919050565b60006107c9826109c8565b15156107d857600090506107ec565b606b826005811015156107e757fe5b015490505b919050565b60006107fc826109c8565b151561080b576000905061081f565b60708260058110151561081a57fe5b015490505b919050565b61082c611180565b151561083757600080fd5b600073ffffffffffffffffffffffffffffffffffffffff168373ffffffffffffffffffffffffffffffffffffffff16141515156108dc576040517f08c379a00000000000000000000000000000000000000000000000000000000081526004018080602001828103825260188152602001807f496e76616c6964206164647265737320737570706c696564000000000000000081525060200191505060405180910390fd5b60755482141515610955576040517f08c379a00000000000000000000000000000000000000000000000000000000081526004018080602001828103825260178152602001807f496e76616c696420666c61766f7220737570706c69656400000000000000000081525060200191505060405180910390fd5b8260668360058110151561096557fe5b0160006101000a81548173ffffffffffffffffffffffffffffffffffffffff021916908373ffffffffffffffffffffffffffffffffffffffff16021790555080606b836005811015156109b457fe5b018190555060018201607581905550505050565b6000808210806109d85750600582115b156109e65760009050610a4a565b600073ffffffffffffffffffffffffffffffffffffffff16606683600581101515610a0d57fe5b0160009054906101000a900473ffffffffffffffffffffffffffffffffffffffff1673ffffffffffffffffffffffffffffffffffffffff16141590505b919050565b610a57611180565b1515610a6257600080fd5b600073ffffffffffffffffffffffffffffffffffffffff168173ffffffffffffffffffffffffffffffffffffffff1614151515610b07576040517f08c379a00000000000000000000000000000000000000000000000000000000081526004018080602001828103825260188152602001807f496e76616c6964206164647265737320737570706c696564000000000000000081525060200191505060405180910390fd5b80607860006101000a81548173ffffffffffffffffffffffffffffffffffffffff021916908373ffffffffffffffffffffffffffffffffffffffff16021790555050565b6000607860009054906101000a900473ffffffffffffffffffffffffffffffffffffffff1673ffffffffffffffffffffffffffffffffffffffff163373ffffffffffffffffffffffffffffffffffffffff16141515610bf5576040517f08c379a00000000000000000000000000000000000000000000000000000000081526004018080602001828103825260258152602001806118476025913960400191505060405180910390fd5b600073ffffffffffffffffffffffffffffffffffffffff168373ffffffffffffffffffffffffffffffffffffffff1614151515610c9a576040517f08c379a00000000000000000000000000000000000000000000000000000000081526004018080602001828103825260188152602001807f496e76616c6964206164647265737320737570706c696564000000000000000081525060200191505060405180910390fd5b6000610ca7607654610ea4565b905080831115610cb5578092505b6066607654600581101515610cc657fe5b0160009054906101000a900473ffffffffffffffffffffffffffffffffffffffff1673ffffffffffffffffffffffffffffffffffffffff1663a9059cbb85856040518363ffffffff167c0100000000000000000000000000000000000000000000000000000000028152600401808373ffffffffffffffffffffffffffffffffffffffff1673ffffffffffffffffffffffffffffffffffffffff16815260200182815260200192505050602060405180830381600087803b158015610d8a57600080fd5b505af1158015610d9e573d6000803e3d6000fd5b505050506040513d6020811015610db457600080fd5b8101908080519060200190929190505050508291505092915050565b610dd8611180565b1515610de357600080fd5b600073ffffffffffffffffffffffffffffffffffffffff16603360009054906101000a900473ffffffffffffffffffffffffffffffffffffffff1673ffffffffffffffffffffffffffffffffffffffff167f8be0079c531659141344cd1fd0a4f28419497f9722a3daafe3b4186f6b6457e060405160405180910390a36000603360006101000a81548173ffffffffffffffffffffffffffffffffffffffff021916908373ffffffffffffffffffffffffffffffffffffffff160217905550565b6000610eb03083610644565b9050919050565b6000607760009054906101000a900473ffffffffffffffffffffffffffffffffffffffff1673ffffffffffffffffffffffffffffffffffffffff163373ffffffffffffffffffffffffffffffffffffffff16141515610f61576040517f08c379a00000000000000000000000000000000000000000000000000000000081526004018080602001828103825260258152602001806118476025913960400191505060405180910390fd5b600073ffffffffffffffffffffffffffffffffffffffff168373ffffffffffffffffffffffffffffffffffffffff1614151515611006576040517f08c379a00000000000000000000000000000000000000000000000000000000081526004018080602001828103825260188152602001807f496e76616c6964206164647265737320737570706c696564000000000000000081525060200191505060405180910390fd5b600082607060765460058110151561101a57fe5b0154029050600061102c607654610ea4565b90508082111561103a578091505b606660765460058110151561104b57fe5b0160009054906101000a900473ffffffffffffffffffffffffffffffffffffffff1673ffffffffffffffffffffffffffffffffffffffff1663a9059cbb86846040518363ffffffff167c0100000000000000000000000000000000000000000000000000000000028152600401808373ffffffffffffffffffffffffffffffffffffffff1673ffffffffffffffffffffffffffffffffffffffff16815260200182815260200192505050602060405180830381600087803b15801561110f57600080fd5b505af1158015611123573d6000803e3d6000fd5b505050506040513d602081101561113957600080fd5b810190808051906020019092919050505050819250505092915050565b6000603360009054906101000a900473ffffffffffffffffffffffffffffffffffffffff16905090565b6000603360009054906101000a900473ffffffffffffffffffffffffffffffffffffffff1673ffffffffffffffffffffffffffffffffffffffff163373ffffffffffffffffffffffffffffffffffffffff1614905090565b600060019054906101000a900460ff16806111f757506111f661154b565b5b8061120e57506000809054906101000a900460ff16155b1515611265576040517f08c379a000000000000000000000000000000000000000000000000000000000815260040180806020018281038252602e815260200180611819602e913960400191505060405180910390fd5b60008060019054906101000a900460ff1615905080156112b5576001600060016101000a81548160ff02191690831515021790555060016000806101000a81548160ff0219169083151502179055505b6112be8261155c565b80156112df5760008060016101000a81548160ff0219169083151502179055505b5050565b6112eb611180565b15156112f657600080fd5b6112ff816109c8565b1515611373576040517f08c379a00000000000000000000000000000000000000000000000000000000081526004018080602001828103825260148152602001807f466c61766f72206e6f7420617661696c61626c6500000000000000000000000081525060200191505060405180910390fd5b8060768190555050565b6000607554905090565b61138f611180565b151561139a57600080fd5b600073ffffffffffffffffffffffffffffffffffffffff168173ffffffffffffffffffffffffffffffffffffffff161415151561143f576040517f08c379a00000000000000000000000000000000000000000000000000000000081526004018080602001828103825260188152602001807f496e76616c6964206164647265737320737570706c696564000000000000000081525060200191505060405180910390fd5b80607760006101000a81548173ffffffffffffffffffffffffffffffffffffffff021916908373ffffffffffffffffffffffffffffffffffffffff16021790555050565b61148b611180565b151561149657600080fd5b61149f826109c8565b1515611513576040517f08c379a00000000000000000000000000000000000000000000000000000000081526004018080602001828103825260148152602001807f466c61766f72206e6f7420617661696c61626c6500000000000000000000000081525060200191505060405180910390fd5b8060708360058110151561152357fe5b01819055505050565b611534611180565b151561153f57600080fd5b6115488161171c565b50565b600080303b90506000811491505090565b600060019054906101000a900460ff168061157b575061157a61154b565b5b8061159257506000809054906101000a900460ff16155b15156115e9576040517f08c379a000000000000000000000000000000000000000000000000000000000815260040180806020018281038252602e815260200180611819602e913960400191505060405180910390fd5b60008060019054906101000a900460ff161590508015611639576001600060016101000a81548160ff02191690831515021790555060016000806101000a81548160ff0219169083151502179055505b81603360006101000a81548173ffffffffffffffffffffffffffffffffffffffff021916908373ffffffffffffffffffffffffffffffffffffffff160217905550603360009054906101000a900473ffffffffffffffffffffffffffffffffffffffff1673ffffffffffffffffffffffffffffffffffffffff16600073ffffffffffffffffffffffffffffffffffffffff167f8be0079c531659141344cd1fd0a4f28419497f9722a3daafe3b4186f6b6457e060405160405180910390a380156117185760008060016101000a81548160ff0219169083151502179055505b5050565b600073ffffffffffffffffffffffffffffffffffffffff168173ffffffffffffffffffffffffffffffffffffffff161415151561175857600080fd5b8073ffffffffffffffffffffffffffffffffffffffff16603360009054906101000a900473ffffffffffffffffffffffffffffffffffffffff1673ffffffffffffffffffffffffffffffffffffffff167f8be0079c531659141344cd1fd0a4f28419497f9722a3daafe3b4186f6b6457e060405160405180910390a380603360006101000a81548173ffffffffffffffffffffffffffffffffffffffff021916908373ffffffffffffffffffffffffffffffffffffffff1602179055505056fe436f6e747261637420696e7374616e63652068617320616c7265616479206265656e20696e697469616c697a6564416374696f6e206f6e6c7920616c6c6f776564206279205061636b7320636f6e7472616374a165627a7a72305820b04322115b5730bb4ad418daaf49f72021f560fea2f0f9ee5dfbf7039dc0b43c0029",
  "source": "/**\n * Phat Cats - Crypto-Cards\n *  - https://crypto-cards.io\n *  - https://phatcats.co\n *\n * Copyright 2019 (c) Phat Cats, Inc.\n */\n\npragma solidity 0.5.2;\n\nimport \"zos-lib/contracts/Initializable.sol\";\nimport \"openzeppelin-eth/contracts/ownership/Ownable.sol\";\n\nimport \"./CryptoCardsGumToken.sol\";\n\n//\n// NOTE on Ownable:\n//   Owner Account is attached to a Multi-Sig wallet controlled by a minimum of 3 C-Level Executives.\n//\n\ncontract CryptoCardsGum is Initializable, Ownable {\n    uint256 private constant MAX_FLAVORS = 5;\n\n    //\n    // Storage\n    //\n    CryptoCardsGumToken[MAX_FLAVORS] internal _gumToken;\n\n    bytes32[MAX_FLAVORS] internal _flavorName;\n    uint256[MAX_FLAVORS] internal _gumPerPack;\n\n    uint internal _flavorsAvailable;\n    uint internal _earnedGumFlavor;\n\n    address internal _cryptoCardsPacks;\n    address internal _cryptoCardsCards;\n\n    //\n    // Modifiers\n    //\n    modifier onlyPacks() {\n        require(msg.sender == _cryptoCardsPacks, \"Action only allowed by Packs contract\");\n        _;\n    }\n\n    modifier onlyCards() {\n        require(msg.sender == _cryptoCardsCards, \"Action only allowed by Packs contract\");\n        _;\n    }\n\n    //\n    // Initialize\n    //\n    function initialize(address owner) public initializer {\n        Ownable.initialize(owner);\n    }\n\n    //\n    // Public\n    //\n\n    function availableFlavors() public view returns (uint) {\n        return _flavorsAvailable;\n    }\n\n    function gumFlavorAvailable(uint flavor) public view returns (bool) {\n        if (flavor < 0 || flavor > MAX_FLAVORS) { return false; }\n        return address(_gumToken[flavor]) != address(0x0);\n    }\n\n    function gumFlavorName(uint flavor) public view returns (bytes32) {\n        if (!gumFlavorAvailable(flavor)) { return \"\"; }\n        return _flavorName[flavor];\n    }\n\n    function gumFlavorAddress(uint flavor) public view returns (address) {\n        if (!gumFlavorAvailable(flavor)) { return address(0x0); }\n        return address(_gumToken[flavor]);\n    }\n\n    function gumPerPack(uint flavor) public view returns (uint256) {\n        if (!gumFlavorAvailable(flavor)) { return 0; }\n        return _gumPerPack[flavor];\n    }\n\n    function balanceOf(address owner, uint flavor) public view returns (uint256) {\n        if (!gumFlavorAvailable(flavor)) { return 0; }\n        return _gumToken[flavor].balanceOf(owner);\n    }\n\n    function packGumAvailable(uint flavor) public view returns (uint256) {\n        return balanceOf(address(this), flavor);\n    }\n\n    //\n    // Only Owner\n    //\n\n    function setPacksAddress(address packs) public onlyOwner {\n        require(address(packs) != address(0x0), \"Invalid address supplied\");\n        _cryptoCardsPacks = packs;\n    }\n\n    function setCardsAddress(address cards) public onlyOwner {\n        require(address(cards) != address(0x0), \"Invalid address supplied\");\n        _cryptoCardsCards = cards;\n    }\n\n    function setGumToken(CryptoCardsGumToken token, uint flavor, bytes32 flavorName) public onlyOwner {\n        require(address(token) != address(0x0), \"Invalid address supplied\");\n        require(flavor == _flavorsAvailable, \"Invalid flavor supplied\");\n\n        _gumToken[flavor] = token;\n        _flavorName[flavor] = flavorName;\n        _flavorsAvailable = flavor + 1;\n    }\n\n    function setGumPerPack(uint flavor, uint256 amount) public onlyOwner {\n        require(gumFlavorAvailable(flavor), \"Flavor not available\");\n        _gumPerPack[flavor] = amount;\n    }\n\n    function setEarnedGumFlavor(uint flavor) public onlyOwner {\n        require(gumFlavorAvailable(flavor), \"Flavor not available\");\n        _earnedGumFlavor = flavor;\n    }\n\n    //\n    // Only Cards Contract\n    //\n\n    function transferCardGum(address to, uint gumAmount) public onlyCards returns (uint256) {\n        require(to != address(0x0), \"Invalid address supplied\");\n\n        uint256 available = packGumAvailable(_earnedGumFlavor);\n        if (gumAmount > available) {\n            gumAmount = available;\n        }\n\n        // Transfer Gum Tokens\n        _gumToken[_earnedGumFlavor].transfer(to, gumAmount);\n        return gumAmount;\n    }\n\n    //\n    // Only Packs Contract\n    //\n\n    function transferPackGum(address to, uint packCount) public onlyPacks returns (uint256) {\n        require(to != address(0x0), \"Invalid address supplied\");\n\n        uint256 gumAmount = _gumPerPack[_earnedGumFlavor] * packCount;\n        uint256 available = packGumAvailable(_earnedGumFlavor);\n        if (gumAmount > available) {\n            gumAmount = available;\n        }\n\n        // Transfer Gum Tokens\n        _gumToken[_earnedGumFlavor].transfer(to, gumAmount);\n        return gumAmount;\n    }\n}\n",
  "sourcePath": "/Users/robsecord/workspace/Ethereum/CryptoCards/cryptocards_contracts/contracts/CryptoCardsGum.sol",
  "compiler": {
    "name": "solc",
    "version": "0.5.2+commit.1df8f40c.Emscripten.clang"
  },
  "schemaVersion": "3.0.11",
  "updatedAt": "2019-09-17T00:52:56.689Z",
  "devdoc": {
    "methods": {
      "isOwner()": {
        "return": "true if `msg.sender` is the owner of the contract."
      },
      "owner()": {
        "return": "the address of the owner."
      },
      "renounceOwnership()": {
        "details": "Allows the current owner to relinquish control of the contract. It will not be possible to call the functions with the `onlyOwner` modifier anymore."
      },
      "transferOwnership(address)": {
        "details": "Allows the current owner to transfer control of the contract to a newOwner.",
        "params": {
          "newOwner": "The address to transfer ownership to."
        }
      }
    }
  },
  "userdoc": {
    "methods": {
      "renounceOwnership()": {
        "notice": "Renouncing ownership will leave the contract without an owner, thereby removing any functionality that is only available to the owner."
      }
    }
  }
}