{
  "contractName": "CryptoCardsPacks",
  "abi": [
    {
      "constant": false,
      "inputs": [],
      "name": "renounceOwnership",
      "outputs": [],
      "payable": false,
      "stateMutability": "nonpayable",
      "type": "function"
    },
    {
      "constant": true,
      "inputs": [],
      "name": "owner",
      "outputs": [
        {
          "name": "",
          "type": "address"
        }
      ],
      "payable": false,
      "stateMutability": "view",
      "type": "function"
    },
    {
      "constant": true,
      "inputs": [],
      "name": "isOwner",
      "outputs": [
        {
          "name": "",
          "type": "bool"
        }
      ],
      "payable": false,
      "stateMutability": "view",
      "type": "function"
    },
    {
      "constant": false,
      "inputs": [
        {
          "name": "newOwner",
          "type": "address"
        }
      ],
      "name": "transferOwnership",
      "outputs": [],
      "payable": false,
      "stateMutability": "nonpayable",
      "type": "function"
    },
    {
      "anonymous": false,
      "inputs": [
        {
          "indexed": true,
          "name": "receiver",
          "type": "address"
        },
        {
          "indexed": false,
          "name": "uuid",
          "type": "bytes16"
        },
        {
          "indexed": false,
          "name": "packId",
          "type": "uint256"
        },
        {
          "indexed": false,
          "name": "cards",
          "type": "uint256[]"
        }
      ],
      "name": "OpenedPack",
      "type": "event"
    },
    {
      "anonymous": false,
      "inputs": [
        {
          "indexed": true,
          "name": "owner",
          "type": "address"
        },
        {
          "indexed": false,
          "name": "uuid",
          "type": "bytes16"
        },
        {
          "indexed": false,
          "name": "packId",
          "type": "uint256"
        },
        {
          "indexed": false,
          "name": "price",
          "type": "uint256"
        }
      ],
      "name": "PackPriceSet",
      "type": "event"
    },
    {
      "anonymous": false,
      "inputs": [
        {
          "indexed": true,
          "name": "owner",
          "type": "address"
        },
        {
          "indexed": true,
          "name": "receiver",
          "type": "address"
        },
        {
          "indexed": false,
          "name": "uuid",
          "type": "bytes16"
        },
        {
          "indexed": false,
          "name": "packId",
          "type": "uint256"
        },
        {
          "indexed": false,
          "name": "price",
          "type": "uint256"
        }
      ],
      "name": "PackSale",
      "type": "event"
    },
    {
      "anonymous": false,
      "inputs": [
        {
          "indexed": true,
          "name": "previousOwner",
          "type": "address"
        },
        {
          "indexed": true,
          "name": "newOwner",
          "type": "address"
        }
      ],
      "name": "OwnershipTransferred",
      "type": "event"
    },
    {
      "constant": false,
      "inputs": [
        {
          "name": "owner",
          "type": "address"
        }
      ],
      "name": "initialize",
      "outputs": [],
      "payable": false,
      "stateMutability": "nonpayable",
      "type": "function"
    },
    {
      "constant": true,
      "inputs": [],
      "name": "totalMintedPacks",
      "outputs": [
        {
          "name": "",
          "type": "uint256"
        }
      ],
      "payable": false,
      "stateMutability": "view",
      "type": "function"
    },
    {
      "constant": true,
      "inputs": [
        {
          "name": "owner",
          "type": "address"
        }
      ],
      "name": "balanceOf",
      "outputs": [
        {
          "name": "",
          "type": "uint256"
        }
      ],
      "payable": false,
      "stateMutability": "view",
      "type": "function"
    },
    {
      "constant": true,
      "inputs": [
        {
          "name": "tokenId",
          "type": "uint256"
        }
      ],
      "name": "ownerOf",
      "outputs": [
        {
          "name": "",
          "type": "address"
        }
      ],
      "payable": false,
      "stateMutability": "view",
      "type": "function"
    },
    {
      "constant": true,
      "inputs": [
        {
          "name": "tokenId",
          "type": "uint256"
        }
      ],
      "name": "packDataById",
      "outputs": [
        {
          "name": "",
          "type": "string"
        }
      ],
      "payable": false,
      "stateMutability": "view",
      "type": "function"
    },
    {
      "constant": false,
      "inputs": [
        {
          "name": "packId",
          "type": "uint256"
        },
        {
          "name": "packPrice",
          "type": "uint256"
        },
        {
          "name": "uuid",
          "type": "bytes16"
        }
      ],
      "name": "updatePackPrice",
      "outputs": [],
      "payable": false,
      "stateMutability": "nonpayable",
      "type": "function"
    },
    {
      "constant": false,
      "inputs": [
        {
          "name": "packId",
          "type": "uint256"
        },
        {
          "name": "uuid",
          "type": "bytes16"
        }
      ],
      "name": "openPack",
      "outputs": [],
      "payable": false,
      "stateMutability": "nonpayable",
      "type": "function"
    },
    {
      "constant": false,
      "inputs": [
        {
          "name": "controller",
          "type": "address"
        }
      ],
      "name": "setContractController",
      "outputs": [],
      "payable": false,
      "stateMutability": "nonpayable",
      "type": "function"
    },
    {
      "constant": false,
      "inputs": [
        {
          "name": "oracle",
          "type": "address"
        }
      ],
      "name": "setOracleAddress",
      "outputs": [],
      "payable": false,
      "stateMutability": "nonpayable",
      "type": "function"
    },
    {
      "constant": false,
      "inputs": [
        {
          "name": "token",
          "type": "address"
        }
      ],
      "name": "setCryptoCardsPackToken",
      "outputs": [],
      "payable": false,
      "stateMutability": "nonpayable",
      "type": "function"
    },
    {
      "constant": false,
      "inputs": [
        {
          "name": "token",
          "type": "address"
        }
      ],
      "name": "setCryptoCardsCardToken",
      "outputs": [],
      "payable": false,
      "stateMutability": "nonpayable",
      "type": "function"
    },
    {
      "constant": false,
      "inputs": [
        {
          "name": "gum",
          "type": "address"
        }
      ],
      "name": "setGumAddress",
      "outputs": [],
      "payable": false,
      "stateMutability": "nonpayable",
      "type": "function"
    },
    {
      "constant": false,
      "inputs": [
        {
          "name": "lib",
          "type": "address"
        }
      ],
      "name": "setLibAddress",
      "outputs": [],
      "payable": false,
      "stateMutability": "nonpayable",
      "type": "function"
    },
    {
      "constant": false,
      "inputs": [
        {
          "name": "receiver",
          "type": "address"
        },
        {
          "name": "owner",
          "type": "address"
        },
        {
          "name": "packId",
          "type": "uint256"
        },
        {
          "name": "pricePaid",
          "type": "uint256"
        },
        {
          "name": "uuid",
          "type": "bytes16"
        }
      ],
      "name": "transferPackForBuyer",
      "outputs": [
        {
          "name": "",
          "type": "uint256"
        }
      ],
      "payable": false,
      "stateMutability": "nonpayable",
      "type": "function"
    },
    {
      "constant": false,
      "inputs": [
        {
          "name": "to",
          "type": "address"
        },
        {
          "name": "packData",
          "type": "string"
        }
      ],
      "name": "mintPack",
      "outputs": [
        {
          "name": "",
          "type": "uint256"
        }
      ],
      "payable": false,
      "stateMutability": "nonpayable",
      "type": "function"
    }
  ],
  "bytecode": "0x608060405234801561001057600080fd5b50612eff806100206000396000f3fe608060405234801561001057600080fd5b506004361061013e576000357c0100000000000000000000000000000000000000000000000000000000900480637273b299116100ca578063c4d66de81161008e578063c4d66de814610637578063d00fdec01461067b578063df1846da146106d0578063e45f7e8714610714578063f2fde38b146107585761013e565b80637273b2991461041557806380badd01146105045780638da5cb5b146105ad5780638f32d59b146105f7578063ae70e17a146106195761013e565b8063421e20e511610111578063421e20e5146102b65780634c69c00f146103015780636352211e1461034557806370a08231146103b3578063715018a61461040b5761013e565b80631e8d273a1461014357806322cc9a021461018757806325f7ee64146101cb578063314903e01461020f575b600080fd5b6101856004803603602081101561015957600080fd5b81019080803573ffffffffffffffffffffffffffffffffffffffff16906020019092919050505061079c565b005b6101c96004803603602081101561019d57600080fd5b81019080803573ffffffffffffffffffffffffffffffffffffffff169060200190929190505050610898565b005b61020d600480360360208110156101e157600080fd5b81019080803573ffffffffffffffffffffffffffffffffffffffff169060200190929190505050610994565b005b61023b6004803603602081101561022557600080fd5b8101908080359060200190929190505050610a90565b6040518080602001828103825283818151815260200191508051906020019080838360005b8381101561027b578082015181840152602081019050610260565b50505050905090810190601f1680156102a85780820380516001836020036101000a031916815260200191505b509250505060405180910390f35b6102ff600480360360408110156102cc57600080fd5b810190808035906020019092919080356fffffffffffffffffffffffffffffffff19169060200190929190505050610bb9565b005b6103436004803603602081101561031757600080fd5b81019080803573ffffffffffffffffffffffffffffffffffffffff1690602001909291905050506115bd565b005b6103716004803603602081101561035b57600080fd5b81019080803590602001909291905050506116b9565b604051808273ffffffffffffffffffffffffffffffffffffffff1673ffffffffffffffffffffffffffffffffffffffff16815260200191505060405180910390f35b6103f5600480360360208110156103c957600080fd5b81019080803573ffffffffffffffffffffffffffffffffffffffff16906020019092919050505061178c565b6040518082815260200191505060405180910390f35b61041361188b565b005b6104ee6004803603604081101561042b57600080fd5b81019080803573ffffffffffffffffffffffffffffffffffffffff1690602001909291908035906020019064010000000081111561046857600080fd5b82018360208201111561047a57600080fd5b8035906020019184600183028401116401000000008311171561049c57600080fd5b91908080601f016020809104026020016040519081016040528093929190818152602001838380828437600081840152601f19601f82011690508083019250505050505050919291929050505061195f565b6040518082815260200191505060405180910390f35b610597600480360360a081101561051a57600080fd5b81019080803573ffffffffffffffffffffffffffffffffffffffff169060200190929190803573ffffffffffffffffffffffffffffffffffffffff169060200190929190803590602001909291908035906020019092919080356fffffffffffffffffffffffffffffffff19169060200190929190505050611b76565b6040518082815260200191505060405180910390f35b6105b5611fb7565b604051808273ffffffffffffffffffffffffffffffffffffffff1673ffffffffffffffffffffffffffffffffffffffff16815260200191505060405180910390f35b6105ff611fe1565b604051808215151515815260200191505060405180910390f35b610621612039565b6040518082815260200191505060405180910390f35b6106796004803603602081101561064d57600080fd5b81019080803573ffffffffffffffffffffffffffffffffffffffff1690602001909291905050506120ff565b005b6106ce6004803603606081101561069157600080fd5b81019080803590602001909291908035906020019092919080356fffffffffffffffffffffffffffffffff1916906020019092919050505061220a565b005b610712600480360360208110156106e657600080fd5b81019080803573ffffffffffffffffffffffffffffffffffffffff169060200190929190505050612400565b005b6107566004803603602081101561072a57600080fd5b81019080803573ffffffffffffffffffffffffffffffffffffffff1690602001909291905050506124fc565b005b61079a6004803603602081101561076e57600080fd5b81019080803573ffffffffffffffffffffffffffffffffffffffff1690602001909291905050506125f8565b005b6107a4611fe1565b15156107af57600080fd5b600073ffffffffffffffffffffffffffffffffffffffff168173ffffffffffffffffffffffffffffffffffffffff1614151515610854576040517f08c379a00000000000000000000000000000000000000000000000000000000081526004018080602001828103825260188152602001807f496e76616c6964206164647265737320737570706c696564000000000000000081525060200191505060405180910390fd5b80606860006101000a81548173ffffffffffffffffffffffffffffffffffffffff021916908373ffffffffffffffffffffffffffffffffffffffff16021790555050565b6108a0611fe1565b15156108ab57600080fd5b600073ffffffffffffffffffffffffffffffffffffffff168173ffffffffffffffffffffffffffffffffffffffff1614151515610950576040517f08c379a00000000000000000000000000000000000000000000000000000000081526004018080602001828103825260188152602001807f496e76616c6964206164647265737320737570706c696564000000000000000081525060200191505060405180910390fd5b80606a60006101000a81548173ffffffffffffffffffffffffffffffffffffffff021916908373ffffffffffffffffffffffffffffffffffffffff16021790555050565b61099c611fe1565b15156109a757600080fd5b600073ffffffffffffffffffffffffffffffffffffffff168173ffffffffffffffffffffffffffffffffffffffff1614151515610a4c576040517f08c379a00000000000000000000000000000000000000000000000000000000081526004018080602001828103825260188152602001807f496e76616c6964206164647265737320737570706c696564000000000000000081525060200191505060405180910390fd5b80606960006101000a81548173ffffffffffffffffffffffffffffffffffffffff021916908373ffffffffffffffffffffffffffffffffffffffff16021790555050565b6060606660009054906101000a900473ffffffffffffffffffffffffffffffffffffffff1673ffffffffffffffffffffffffffffffffffffffff1663314903e0836040518263ffffffff167c01000000000000000000000000000000000000000000000000000000000281526004018082815260200191505060006040518083038186803b158015610b2157600080fd5b505afa158015610b35573d6000803e3d6000fd5b505050506040513d6000823e3d601f19601f820116820180604052506020811015610b5f57600080fd5b810190808051640100000000811115610b7757600080fd5b82810190506020810184811115610b8d57600080fd5b8151856001820283011164010000000082111715610baa57600080fd5b50509291905050509050919050565b6000606660009054906101000a900473ffffffffffffffffffffffffffffffffffffffff1673ffffffffffffffffffffffffffffffffffffffff16636352211e846040518263ffffffff167c01000000000000000000000000000000000000000000000000000000000281526004018082815260200191505060206040518083038186803b158015610c4a57600080fd5b505afa158015610c5e573d6000803e3d6000fd5b505050506040513d6020811015610c7457600080fd5b810190808051906020019092919050505090508073ffffffffffffffffffffffffffffffffffffffff163373ffffffffffffffffffffffffffffffffffffffff16141515610d2a576040517f08c379a000000000000000000000000000000000000000000000000000000000815260040180806020018281038252601c8152602001807f6f70656e6572206d757374206265206f776e6572206f66207061636b0000000081525060200191505060405180910390fd5b60606008604051908082528060200260200182016040528015610d5c5781602001602082028038833980820191505090505b509050610d67612de1565b610e8f606660009054906101000a900473ffffffffffffffffffffffffffffffffffffffff1673ffffffffffffffffffffffffffffffffffffffff1663314903e0876040518263ffffffff167c01000000000000000000000000000000000000000000000000000000000281526004018082815260200191505060006040518083038186803b158015610df957600080fd5b505afa158015610e0d573d6000803e3d6000fd5b505050506040513d6000823e3d601f19601f820116820180604052506020811015610e3757600080fd5b810190808051640100000000811115610e4f57600080fd5b82810190506020810184811115610e6557600080fd5b8151856001820283011164010000000082111715610e8257600080fd5b5050929190505050612617565b9050610e99612de1565b610ed76040805190810160405280600181526020017f2e00000000000000000000000000000000000000000000000000000000000000815250612617565b9050610eec818361264590919063ffffffff16565b5060008090505b60088110156111f257606960009054906101000a900473ffffffffffffffffffffffffffffffffffffffff1673ffffffffffffffffffffffffffffffffffffffff166302d06d05606960009054906101000a900473ffffffffffffffffffffffffffffffffffffffff1673ffffffffffffffffffffffffffffffffffffffff16638e7e34d7610f93610f8e878961264590919063ffffffff16565b61265f565b6040518263ffffffff167c01000000000000000000000000000000000000000000000000000000000281526004018080602001828103825283818151815260200191508051906020019080838360005b83811015610ffe578082015181840152602081019050610fe3565b50505050905090810190601f16801561102b5780820380516001836020036101000a031916815260200191505b509250505060006040518083038186803b15801561104857600080fd5b505afa15801561105c573d6000803e3d6000fd5b505050506040513d6000823e3d601f19601f82011682018060405250602081101561108657600080fd5b81019080805164010000000081111561109e57600080fd5b828101905060208101848111156110b457600080fd5b81518560018202830111640100000000821117156110d157600080fd5b50509291905050506040518263ffffffff167c01000000000000000000000000000000000000000000000000000000000281526004018080602001828103825283818151815260200191508051906020019080838360005b83811015611144578082015181840152602081019050611129565b50505050905090810190601f1680156111715780820380516001836020036101000a031916815260200191505b509250505060206040518083038186803b15801561118e57600080fd5b505afa1580156111a2573d6000803e3d6000fd5b505050506040513d60208110156111b857600080fd5b810190808051906020019092919050505084828151811015156111d757fe5b90602001906020020181815250508080600101915050610ef3565b50606760009054906101000a900473ffffffffffffffffffffffffffffffffffffffff1673ffffffffffffffffffffffffffffffffffffffff1663e48f0d0985856040518363ffffffff167c0100000000000000000000000000000000000000000000000000000000028152600401808373ffffffffffffffffffffffffffffffffffffffff1673ffffffffffffffffffffffffffffffffffffffff16815260200180602001828103825283818151815260200191508051906020019060200280838360005b838110156112d35780820151818401526020810190506112b8565b505050509050019350505050600060405180830381600087803b1580156112f957600080fd5b505af115801561130d573d6000803e3d6000fd5b50505050606660009054906101000a900473ffffffffffffffffffffffffffffffffffffffff1673ffffffffffffffffffffffffffffffffffffffff16637977d5b985886040518363ffffffff167c0100000000000000000000000000000000000000000000000000000000028152600401808373ffffffffffffffffffffffffffffffffffffffff1673ffffffffffffffffffffffffffffffffffffffff16815260200182815260200192505050600060405180830381600087803b1580156113d657600080fd5b505af11580156113ea573d6000803e3d6000fd5b50505050606860009054906101000a900473ffffffffffffffffffffffffffffffffffffffff1673ffffffffffffffffffffffffffffffffffffffff166388ebbc4b8560016040518363ffffffff167c0100000000000000000000000000000000000000000000000000000000028152600401808373ffffffffffffffffffffffffffffffffffffffff1673ffffffffffffffffffffffffffffffffffffffff16815260200182815260200192505050602060405180830381600087803b1580156114b457600080fd5b505af11580156114c8573d6000803e3d6000fd5b505050506040513d60208110156114de57600080fd5b8101908080519060200190929190505050508373ffffffffffffffffffffffffffffffffffffffff167f2dbfc73a79d6cb77c89f8fd4b6121a543a498c0ba0ed3d7ef4e6419d0add86d686888660405180846fffffffffffffffffffffffffffffffff19166fffffffffffffffffffffffffffffffff1916815260200183815260200180602001828103825283818151815260200191508051906020019060200280838360005b838110156115a0578082015181840152602081019050611585565b5050505090500194505050505060405180910390a2505050505050565b6115c5611fe1565b15156115d057600080fd5b600073ffffffffffffffffffffffffffffffffffffffff168173ffffffffffffffffffffffffffffffffffffffff1614151515611675576040517f08c379a00000000000000000000000000000000000000000000000000000000081526004018080602001828103825260188152602001807f496e76616c6964206164647265737320737570706c696564000000000000000081525060200191505060405180910390fd5b80606b60006101000a81548173ffffffffffffffffffffffffffffffffffffffff021916908373ffffffffffffffffffffffffffffffffffffffff16021790555050565b6000606660009054906101000a900473ffffffffffffffffffffffffffffffffffffffff1673ffffffffffffffffffffffffffffffffffffffff16636352211e836040518263ffffffff167c01000000000000000000000000000000000000000000000000000000000281526004018082815260200191505060206040518083038186803b15801561174a57600080fd5b505afa15801561175e573d6000803e3d6000fd5b505050506040513d602081101561177457600080fd5b81019080805190602001909291905050509050919050565b6000606660009054906101000a900473ffffffffffffffffffffffffffffffffffffffff1673ffffffffffffffffffffffffffffffffffffffff166370a08231836040518263ffffffff167c0100000000000000000000000000000000000000000000000000000000028152600401808273ffffffffffffffffffffffffffffffffffffffff1673ffffffffffffffffffffffffffffffffffffffff16815260200191505060206040518083038186803b15801561184957600080fd5b505afa15801561185d573d6000803e3d6000fd5b505050506040513d602081101561187357600080fd5b81019080805190602001909291905050509050919050565b611893611fe1565b151561189e57600080fd5b600073ffffffffffffffffffffffffffffffffffffffff16603360009054906101000a900473ffffffffffffffffffffffffffffffffffffffff1673ffffffffffffffffffffffffffffffffffffffff167f8be0079c531659141344cd1fd0a4f28419497f9722a3daafe3b4186f6b6457e060405160405180910390a36000603360006101000a81548173ffffffffffffffffffffffffffffffffffffffff021916908373ffffffffffffffffffffffffffffffffffffffff160217905550565b6000606b60009054906101000a900473ffffffffffffffffffffffffffffffffffffffff1673ffffffffffffffffffffffffffffffffffffffff163373ffffffffffffffffffffffffffffffffffffffff16141515611a09576040517f08c379a0000000000000000000000000000000000000000000000000000000008152600401808060200182810382526026815260200180612eae6026913960400191505060405180910390fd5b606660009054906101000a900473ffffffffffffffffffffffffffffffffffffffff1673ffffffffffffffffffffffffffffffffffffffff16637273b29984846040518363ffffffff167c0100000000000000000000000000000000000000000000000000000000028152600401808373ffffffffffffffffffffffffffffffffffffffff1673ffffffffffffffffffffffffffffffffffffffff16815260200180602001828103825283818151815260200191508051906020019080838360005b83811015611ae6578082015181840152602081019050611acb565b50505050905090810190601f168015611b135780820380516001836020036101000a031916815260200191505b509350505050602060405180830381600087803b158015611b3357600080fd5b505af1158015611b47573d6000803e3d6000fd5b505050506040513d6020811015611b5d57600080fd5b8101908080519060200190929190505050905092915050565b6000606a60009054906101000a900473ffffffffffffffffffffffffffffffffffffffff1673ffffffffffffffffffffffffffffffffffffffff163373ffffffffffffffffffffffffffffffffffffffff16141515611c20576040517f08c379a000000000000000000000000000000000000000000000000000000000815260040180806020018281038252602a815260200180612e2d602a913960400191505060405180910390fd5b6000606660009054906101000a900473ffffffffffffffffffffffffffffffffffffffff1673ffffffffffffffffffffffffffffffffffffffff16636352211e866040518263ffffffff167c01000000000000000000000000000000000000000000000000000000000281526004018082815260200191505060206040518083038186803b158015611cb157600080fd5b505afa158015611cc5573d6000803e3d6000fd5b505050506040513d6020811015611cdb57600080fd5b810190808051906020019092919050505090508073ffffffffffffffffffffffffffffffffffffffff168673ffffffffffffffffffffffffffffffffffffffff16141515611d74576040517f08c379a0000000000000000000000000000000000000000000000000000000008152600401808060200182810382526031815260200180612dfc6031913960400191505060405180910390fd5b8073ffffffffffffffffffffffffffffffffffffffff168773ffffffffffffffffffffffffffffffffffffffff1614151515611e18576040517f08c379a000000000000000000000000000000000000000000000000000000000815260040180806020018281038252601c8152602001807f43616e6e6f74207472616e73666572207061636b20746f2073656c660000000081525060200191505060405180910390fd5b6000606c6000878152602001908152602001600020549050600081111515611ea8576040517f08c379a00000000000000000000000000000000000000000000000000000000081526004018080602001828103825260148152602001807f5061636b206973206e6f7420666f722073616c6500000000000000000000000081525060200191505060405180910390fd5b808510151515611f03576040517f08c379a0000000000000000000000000000000000000000000000000000000008152600401808060200182810382526029815260200180612e856029913960400191505060405180910390fd5b611f0e8289886126c1565b8773ffffffffffffffffffffffffffffffffffffffff168773ffffffffffffffffffffffffffffffffffffffff167f5b60378816a2490b5164cad66f865cab4d8780efbf3d22bef7ae6d2bdccaa4a886898560405180846fffffffffffffffffffffffffffffffff19166fffffffffffffffffffffffffffffffff19168152602001838152602001828152602001935050505060405180910390a3809250505095945050505050565b6000603360009054906101000a900473ffffffffffffffffffffffffffffffffffffffff16905090565b6000603360009054906101000a900473ffffffffffffffffffffffffffffffffffffffff1673ffffffffffffffffffffffffffffffffffffffff163373ffffffffffffffffffffffffffffffffffffffff1614905090565b6000606660009054906101000a900473ffffffffffffffffffffffffffffffffffffffff1673ffffffffffffffffffffffffffffffffffffffff1663ae70e17a6040518163ffffffff167c010000000000000000000000000000000000000000000000000000000002815260040160206040518083038186803b1580156120bf57600080fd5b505afa1580156120d3573d6000803e3d6000fd5b505050506040513d60208110156120e957600080fd5b8101908080519060200190929190505050905090565b600060019054906101000a900460ff168061211e575061211d61292a565b5b8061213557506000809054906101000a900460ff16155b151561218c576040517f08c379a000000000000000000000000000000000000000000000000000000000815260040180806020018281038252602e815260200180612e57602e913960400191505060405180910390fd5b60008060019054906101000a900460ff1615905080156121dc576001600060016101000a81548160ff02191690831515021790555060016000806101000a81548160ff0219169083151502179055505b6121e58261293b565b80156122065760008060016101000a81548160ff0219169083151502179055505b5050565b6000606660009054906101000a900473ffffffffffffffffffffffffffffffffffffffff1673ffffffffffffffffffffffffffffffffffffffff16636352211e856040518263ffffffff167c01000000000000000000000000000000000000000000000000000000000281526004018082815260200191505060206040518083038186803b15801561229b57600080fd5b505afa1580156122af573d6000803e3d6000fd5b505050506040513d60208110156122c557600080fd5b810190808051906020019092919050505090508073ffffffffffffffffffffffffffffffffffffffff163373ffffffffffffffffffffffffffffffffffffffff1614151561235e576040517f08c379a0000000000000000000000000000000000000000000000000000000008152600401808060200182810382526031815260200180612dfc6031913960400191505060405180910390fd5b82606c6000868152602001908152602001600020819055508073ffffffffffffffffffffffffffffffffffffffff167fc44c37915a698cc58868dc743e33f68ee8d90a713475b4b359a47c4d0d2e5f1583868660405180846fffffffffffffffffffffffffffffffff19166fffffffffffffffffffffffffffffffff19168152602001838152602001828152602001935050505060405180910390a250505050565b612408611fe1565b151561241357600080fd5b600073ffffffffffffffffffffffffffffffffffffffff168173ffffffffffffffffffffffffffffffffffffffff16141515156124b8576040517f08c379a00000000000000000000000000000000000000000000000000000000081526004018080602001828103825260188152602001807f496e76616c6964206164647265737320737570706c696564000000000000000081525060200191505060405180910390fd5b80606660006101000a81548173ffffffffffffffffffffffffffffffffffffffff021916908373ffffffffffffffffffffffffffffffffffffffff16021790555050565b612504611fe1565b151561250f57600080fd5b600073ffffffffffffffffffffffffffffffffffffffff168173ffffffffffffffffffffffffffffffffffffffff16141515156125b4576040517f08c379a00000000000000000000000000000000000000000000000000000000081526004018080602001828103825260188152602001807f496e76616c6964206164647265737320737570706c696564000000000000000081525060200191505060405180910390fd5b80606760006101000a81548173ffffffffffffffffffffffffffffffffffffffff021916908373ffffffffffffffffffffffffffffffffffffffff16021790555050565b612600611fe1565b151561260b57600080fd5b61261481612afb565b50565b61261f612de1565b600060208301905060408051908101604052808451815260200182815250915050919050565b61264d612de1565b612658838383612bf7565b5092915050565b60608082600001516040519080825280601f01601f1916602001820160405280156126995781602001600182028038833980820191505090505b50905060006020820190506126b78185602001518660000151612c95565b8192505050919050565b600073ffffffffffffffffffffffffffffffffffffffff168373ffffffffffffffffffffffffffffffffffffffff1614151515612766576040517f08c379a000000000000000000000000000000000000000000000000000000000815260040180806020018281038252601d8152602001807f496e76616c69642066726f6d206164647265737320737570706c69656400000081525060200191505060405180910390fd5b600073ffffffffffffffffffffffffffffffffffffffff168273ffffffffffffffffffffffffffffffffffffffff161415151561280b576040517f08c379a000000000000000000000000000000000000000000000000000000000815260040180806020018281038252601b8152602001807f496e76616c696420746f206164647265737320737570706c696564000000000081525060200191505060405180910390fd5b61281481612ce0565b606660009054906101000a900473ffffffffffffffffffffffffffffffffffffffff1673ffffffffffffffffffffffffffffffffffffffff166315eaef6b8484846040518463ffffffff167c0100000000000000000000000000000000000000000000000000000000028152600401808473ffffffffffffffffffffffffffffffffffffffff1673ffffffffffffffffffffffffffffffffffffffff1681526020018373ffffffffffffffffffffffffffffffffffffffff1673ffffffffffffffffffffffffffffffffffffffff1681526020018281526020019350505050600060405180830381600087803b15801561290d57600080fd5b505af1158015612921573d6000803e3d6000fd5b50505050505050565b600080303b90506000811491505090565b600060019054906101000a900460ff168061295a575061295961292a565b5b8061297157506000809054906101000a900460ff16155b15156129c8576040517f08c379a000000000000000000000000000000000000000000000000000000000815260040180806020018281038252602e815260200180612e57602e913960400191505060405180910390fd5b60008060019054906101000a900460ff161590508015612a18576001600060016101000a81548160ff02191690831515021790555060016000806101000a81548160ff0219169083151502179055505b81603360006101000a81548173ffffffffffffffffffffffffffffffffffffffff021916908373ffffffffffffffffffffffffffffffffffffffff160217905550603360009054906101000a900473ffffffffffffffffffffffffffffffffffffffff1673ffffffffffffffffffffffffffffffffffffffff16600073ffffffffffffffffffffffffffffffffffffffff167f8be0079c531659141344cd1fd0a4f28419497f9722a3daafe3b4186f6b6457e060405160405180910390a38015612af75760008060016101000a81548160ff0219169083151502179055505b5050565b600073ffffffffffffffffffffffffffffffffffffffff168173ffffffffffffffffffffffffffffffffffffffff1614151515612b3757600080fd5b8073ffffffffffffffffffffffffffffffffffffffff16603360009054906101000a900473ffffffffffffffffffffffffffffffffffffffff1673ffffffffffffffffffffffffffffffffffffffff167f8be0079c531659141344cd1fd0a4f28419497f9722a3daafe3b4186f6b6457e060405160405180910390a380603360006101000a81548173ffffffffffffffffffffffffffffffffffffffff021916908373ffffffffffffffffffffffffffffffffffffffff16021790555050565b612bff612de1565b6000612c1d8560000151866020015186600001518760200151612cfc565b90508460200151836020018181525050846020015181038360000181815250508460000151856020015101811415612c5f576000856000018181525050612c8a565b8360000151836000015101856000018181510391508181525050836000015181018560200181815250505b829150509392505050565b5b602081101515612cbb5781518352602083019250602082019150602081039050612c96565b60006001826020036101000a0390508019835116818551168181178652505050505050565b6000606c60008381526020019081526020016000208190555050565b60008084905060008685111515612dd157602085111515612d8957600060018660200360080260020a0319600102905060008186511690506000878a8a0103905060008386511690505b8281141515612d7b578186101515612d68578a8a019650505050505050612dd9565b8580600101965050838651169050612d46565b859650505050505050612dd9565b60008585209050600091505b85880382111515612dcf576000868420905080821415612dbb5783945050505050612dd9565b600184019350508180600101925050612d95565b505b868601925050505b949350505050565b60408051908101604052806000815260200160008152509056fe496e76616c6964206f776e657220737570706c696564206f72206f776e6572206973206e6f74207061636b2d6f776e6572416374696f6e206f6e6c7920616c6c6f77656420627920436f6e74726f6c6c657220636f6e7472616374436f6e747261637420696e7374616e63652068617320616c7265616479206265656e20696e697469616c697a65645061636b2070726963652069732067726561746572207468616e207468652070726963652070616964416374696f6e206f6e6c7920616c6c6f776564206279204f7261636c6520636f6e7472616374a165627a7a7230582041f3ed2069951ec4119ae427a12fac0678365e9ae036ad6bbc0fdd72d6840d020029",
  "source": "/**\n * Phat Cats - Crypto-Cards\n *  - https://crypto-cards.io\n *  - https://phatcats.co\n *\n * Copyright 2019 (c) Phat Cats, Inc.\n */\n\npragma solidity 0.5.2;\n\nimport \"./strings.sol\";\n\nimport \"zos-lib/contracts/Initializable.sol\";\nimport \"openzeppelin-eth/contracts/ownership/Ownable.sol\";\n\nimport \"./CryptoCardsPackToken.sol\";\nimport \"./CryptoCardsCardToken.sol\";\nimport \"./CryptoCardsGum.sol\";\nimport \"./CryptoCardsLib.sol\";\n\n\n//\n// NOTE on Ownable:\n//   Owner Account is attached to a Multi-Sig wallet controlled by a minimum of 3 C-Level Executives.\n//\n\ncontract CryptoCardsPacks is Initializable, Ownable {\n    using strings for *;\n\n    //\n    // Storage\n    //\n    CryptoCardsPackToken internal _packToken;\n    CryptoCardsCardToken internal _cardToken;\n    CryptoCardsGum internal _gum;\n    CryptoCardsLib internal _lib;\n\n    // Contract Reference Addresses\n    address internal _controller;\n    address internal _oracle;\n\n    // Mapping from token ID to pack-data\n    mapping(uint256 => uint256) internal _packSalePriceById;\n\n    //\n    // Events\n    //\n    event OpenedPack  (address indexed receiver, bytes16 uuid, uint256 packId, uint256[] cards);\n    event PackPriceSet(address indexed owner, bytes16 uuid, uint256 packId, uint256 price);\n    event PackSale    (address indexed owner, address indexed receiver, bytes16 uuid, uint256 packId, uint256 price);\n\n    //\n    // Modifiers\n    //\n    modifier onlyController() {\n        require(msg.sender == _controller, \"Action only allowed by Controller contract\");\n        _;\n    }\n\n    modifier onlyOracle() {\n        require(msg.sender == _oracle, \"Action only allowed by Oracle contract\");\n        _;\n    }\n\n    //\n    // Initialize\n    //\n    function initialize(address owner) public initializer {\n        Ownable.initialize(owner);\n    }\n\n    //\n    // Public\n    //\n\n    function totalMintedPacks() public view returns (uint256) {\n        return _packToken.totalMintedPacks();\n    }\n\n    function balanceOf(address owner) public view returns (uint256) {\n        return _packToken.balanceOf(owner);\n    }\n\n    function ownerOf(uint256 tokenId) public view returns (address) {\n        return _packToken.ownerOf(tokenId);\n    }\n\n    function packDataById(uint256 tokenId) public view returns (string memory) {\n        return _packToken.packDataById(tokenId);\n    }\n\n    function updatePackPrice(uint256 packId, uint256 packPrice, bytes16 uuid) public {\n        address packOwner = _packToken.ownerOf(packId); // will revert if owner == address(0)\n        require(msg.sender == packOwner, \"Invalid owner supplied or owner is not pack-owner\");\n        _packSalePriceById[packId] = packPrice;\n        emit PackPriceSet(packOwner, uuid, packId, packPrice);\n    }\n\n    function openPack(uint256 packId, bytes16 uuid) public {\n        address owner = _packToken.ownerOf(packId); // will revert if owner == address(0)\n        require(msg.sender == owner, \"opener must be owner of pack\");\n\n        uint256[] memory mintedCards = new uint256[](8);\n        strings.slice memory s = _packToken.packDataById(packId).toSlice();\n        strings.slice memory d = \".\".toSlice();\n        s.split(d); // Skip response code\n        for (uint i = 0; i < 8; i++) {\n            mintedCards[i] = _lib.bytesToUint(_lib.fromHex(s.split(d).toString()));\n        }\n        _cardToken.mintCardsFromPack(owner, mintedCards);\n\n        // Burn Pack Token\n        _packToken.burnPack(owner, packId);\n\n        // Transfer Pack-Gum\n        _gum.transferPackGum(owner, 1);\n\n        emit OpenedPack(owner, uuid, packId, mintedCards);\n    }\n\n    //\n    // Only Owner\n    //\n\n    function setContractController(address controller) public onlyOwner {\n        require(controller != address(0), \"Invalid address supplied\");\n        _controller = controller;\n    }\n\n    function setOracleAddress(address oracle) public onlyOwner {\n        require(oracle != address(0), \"Invalid address supplied\");\n        _oracle = oracle;\n    }\n\n    function setCryptoCardsPackToken(CryptoCardsPackToken token) public onlyOwner {\n        require(address(token) != address(0), \"Invalid address supplied\");\n        _packToken = token;\n    }\n\n    function setCryptoCardsCardToken(CryptoCardsCardToken token) public onlyOwner {\n        require(address(token) != address(0), \"Invalid address supplied\");\n        _cardToken = token;\n    }\n\n    function setGumAddress(CryptoCardsGum gum) public onlyOwner {\n        require(address(gum) != address(0), \"Invalid address supplied\");\n        _gum = gum;\n    }\n\n    function setLibAddress(CryptoCardsLib lib) public onlyOwner {\n        require(address(lib) != address(0), \"Invalid address supplied\");\n        _lib = lib;\n    }\n\n    //\n    // Only Controller Contract\n    //\n\n    function transferPackForBuyer(address receiver, address owner, uint256 packId, uint256 pricePaid, bytes16 uuid) public onlyController returns (uint256) {\n        address packOwner = _packToken.ownerOf(packId); // will revert if owner == address(0)\n        require(owner == packOwner, \"Invalid owner supplied or owner is not pack-owner\");\n        require(receiver != packOwner, \"Cannot transfer pack to self\");\n\n        uint256 packPrice = _packSalePriceById[packId];\n        require(packPrice > 0, \"Pack is not for sale\");\n        require(pricePaid >= packPrice, \"Pack price is greater than the price paid\");\n\n        _transferPack(packOwner, receiver, packId);\n\n        emit PackSale(owner, receiver, uuid, packId, packPrice);\n\n        return packPrice;\n    }\n\n    //\n    // Only Oracle Contract\n    //\n\n    function mintPack(address to, string memory packData) public onlyOracle returns (uint256) {\n        return _packToken.mintPack(to, packData);\n    }\n\n    //\n    // Private\n    //\n\n    function _transferPack(address from, address to, uint256 packId) internal {\n        require(from != address(0), \"Invalid from address supplied\");\n        require(to != address(0), \"Invalid to address supplied\");\n\n        _resetPackValue(packId);\n        _packToken.tokenTransfer(from, to, packId);\n    }\n\n    function _resetPackValue(uint256 packId) internal {\n        _packSalePriceById[packId] = 0;\n    }\n}\n",
  "sourcePath": "/Users/robsecord/workspace/Ethereum/CryptoCards/cryptocards_contracts/contracts/CryptoCardsPacks.sol",
  "compiler": {
    "name": "solc",
    "version": "0.5.2+commit.1df8f40c.Emscripten.clang"
  },
  "schemaVersion": "3.0.11",
  "updatedAt": "2019-10-03T20:59:07.112Z",
  "devdoc": {
    "methods": {
      "isOwner()": {
        "return": "true if `msg.sender` is the owner of the contract."
      },
      "owner()": {
        "return": "the address of the owner."
      },
      "renounceOwnership()": {
        "details": "Allows the current owner to relinquish control of the contract. It will not be possible to call the functions with the `onlyOwner` modifier anymore."
      },
      "transferOwnership(address)": {
        "details": "Allows the current owner to transfer control of the contract to a newOwner.",
        "params": {
          "newOwner": "The address to transfer ownership to."
        }
      }
    }
  },
  "userdoc": {
    "methods": {
      "renounceOwnership()": {
        "notice": "Renouncing ownership will leave the contract without an owner, thereby removing any functionality that is only available to the owner."
      }
    }
  }
}