{
  "contractName": "CryptoCardsOracle",
  "abi": [
    {
      "constant": false,
      "inputs": [],
      "name": "renounceOwnership",
      "outputs": [],
      "payable": false,
      "stateMutability": "nonpayable",
      "type": "function"
    },
    {
      "constant": true,
      "inputs": [],
      "name": "owner",
      "outputs": [
        {
          "name": "",
          "type": "address"
        }
      ],
      "payable": false,
      "stateMutability": "view",
      "type": "function"
    },
    {
      "constant": true,
      "inputs": [],
      "name": "isOwner",
      "outputs": [
        {
          "name": "",
          "type": "bool"
        }
      ],
      "payable": false,
      "stateMutability": "view",
      "type": "function"
    },
    {
      "constant": false,
      "inputs": [
        {
          "name": "newOwner",
          "type": "address"
        }
      ],
      "name": "transferOwnership",
      "outputs": [],
      "payable": false,
      "stateMutability": "nonpayable",
      "type": "function"
    },
    {
      "anonymous": false,
      "inputs": [
        {
          "indexed": true,
          "name": "receiver",
          "type": "address"
        },
        {
          "indexed": false,
          "name": "uuid",
          "type": "bytes16"
        },
        {
          "indexed": false,
          "name": "packId",
          "type": "uint256"
        },
        {
          "indexed": false,
          "name": "packData",
          "type": "string"
        }
      ],
      "name": "ReceivedNewPack",
      "type": "event"
    },
    {
      "anonymous": false,
      "inputs": [
        {
          "indexed": true,
          "name": "receiver",
          "type": "address"
        },
        {
          "indexed": false,
          "name": "uuid",
          "type": "bytes16"
        },
        {
          "indexed": false,
          "name": "errorCode",
          "type": "uint8"
        }
      ],
      "name": "PackError",
      "type": "event"
    },
    {
      "anonymous": false,
      "inputs": [
        {
          "indexed": true,
          "name": "previousOwner",
          "type": "address"
        },
        {
          "indexed": true,
          "name": "newOwner",
          "type": "address"
        }
      ],
      "name": "OwnershipTransferred",
      "type": "event"
    },
    {
      "constant": false,
      "inputs": [
        {
          "name": "_owner",
          "type": "address"
        }
      ],
      "name": "initialize",
      "outputs": [],
      "payable": false,
      "stateMutability": "nonpayable",
      "type": "function"
    },
    {
      "constant": true,
      "inputs": [
        {
          "name": "_uuid",
          "type": "bytes16"
        }
      ],
      "name": "isValidUuid",
      "outputs": [
        {
          "name": "",
          "type": "bool"
        }
      ],
      "payable": false,
      "stateMutability": "view",
      "type": "function"
    },
    {
      "constant": false,
      "inputs": [],
      "name": "getGasReserve",
      "outputs": [
        {
          "name": "",
          "type": "uint256"
        }
      ],
      "payable": false,
      "stateMutability": "nonpayable",
      "type": "function"
    },
    {
      "constant": false,
      "inputs": [
        {
          "name": "receiver",
          "type": "address"
        },
        {
          "name": "gasReserve",
          "type": "uint256"
        },
        {
          "name": "uuid",
          "type": "bytes16"
        }
      ],
      "name": "getNewPack",
      "outputs": [],
      "payable": true,
      "stateMutability": "payable",
      "type": "function"
    },
    {
      "constant": false,
      "inputs": [
        {
          "name": "_myid",
          "type": "bytes32"
        },
        {
          "name": "_result",
          "type": "string"
        },
        {
          "name": "_proof",
          "type": "bytes"
        }
      ],
      "name": "__callback",
      "outputs": [],
      "payable": false,
      "stateMutability": "nonpayable",
      "type": "function"
    },
    {
      "constant": false,
      "inputs": [
        {
          "name": "_queryId",
          "type": "bytes32"
        },
        {
          "name": "_result",
          "type": "string"
        }
      ],
      "name": "__callback",
      "outputs": [],
      "payable": false,
      "stateMutability": "nonpayable",
      "type": "function"
    },
    {
      "constant": false,
      "inputs": [
        {
          "name": "_controller",
          "type": "address"
        }
      ],
      "name": "setContractController",
      "outputs": [],
      "payable": false,
      "stateMutability": "nonpayable",
      "type": "function"
    },
    {
      "constant": false,
      "inputs": [
        {
          "name": "_packs",
          "type": "address"
        }
      ],
      "name": "setPacksAddress",
      "outputs": [],
      "payable": false,
      "stateMutability": "nonpayable",
      "type": "function"
    },
    {
      "constant": false,
      "inputs": [
        {
          "name": "_endpoint",
          "type": "string"
        }
      ],
      "name": "updateApiEndpoint",
      "outputs": [],
      "payable": false,
      "stateMutability": "nonpayable",
      "type": "function"
    },
    {
      "constant": false,
      "inputs": [
        {
          "name": "_wei",
          "type": "uint256"
        }
      ],
      "name": "updateOracleGasPrice",
      "outputs": [],
      "payable": true,
      "stateMutability": "payable",
      "type": "function"
    },
    {
      "constant": false,
      "inputs": [
        {
          "name": "_wei",
          "type": "uint256"
        }
      ],
      "name": "updateOracleGasLimit",
      "outputs": [],
      "payable": false,
      "stateMutability": "nonpayable",
      "type": "function"
    }
  ],
  "bytecode": "0x608060405234801561001057600080fd5b50613406806100206000396000f3fe608060405260043610610105576000357c0100000000000000000000000000000000000000000000000000000000900480638da5cb5b116100a7578063c4d66de811610076578063c4d66de814610635578063df2b911914610686578063f2fde38b146106d7578063f9d147481461072857610105565b80638da5cb5b146104ac5780638f32d59b1461050357806393a3eaab14610532578063b8f230f21461056d57610105565b80632c51114e116100e35780632c51114e1461029357806338bbfa50146102c1578063715018a61461042a578063762233531461044157610105565b8063196698911461010a57806322cc9a021461017057806327dc297e146101c1575b600080fd5b34801561011657600080fd5b506101566004803603602081101561012d57600080fd5b8101908080356fffffffffffffffffffffffffffffffff19169060200190929190505050610753565b604051808215151515815260200191505060405180910390f35b34801561017c57600080fd5b506101bf6004803603602081101561019357600080fd5b81019080803573ffffffffffffffffffffffffffffffffffffffff16906020019092919050505061084c565b005b3480156101cd57600080fd5b50610291600480360360408110156101e457600080fd5b81019080803590602001909291908035906020019064010000000081111561020b57600080fd5b82018360208201111561021d57600080fd5b8035906020019184600183028401116401000000008311171561023f57600080fd5b91908080601f016020809104026020016040519081016040528093929190818152602001838380828437600081840152601f19601f820116905080830192505050505050509192919290505050610948565b005b6102bf600480360360208110156102a957600080fd5b8101908080359060200190929190505050610f96565b005b3480156102cd57600080fd5b50610428600480360360608110156102e457600080fd5b81019080803590602001909291908035906020019064010000000081111561030b57600080fd5b82018360208201111561031d57600080fd5b8035906020019184600183028401116401000000008311171561033f57600080fd5b91908080601f016020809104026020016040519081016040528093929190818152602001838380828437600081840152601f19601f820116905080830192505050505050509192919290803590602001906401000000008111156103a257600080fd5b8201836020820111156103b457600080fd5b803590602001918460018302840111640100000000831117156103d657600080fd5b91908080601f016020809104026020016040519081016040528093929190818152602001838380828437600081840152601f19601f820116905080830192505050505050509192919290505050610fb5565b005b34801561043657600080fd5b5061043f610fd9565b005b6104aa6004803603606081101561045757600080fd5b81019080803573ffffffffffffffffffffffffffffffffffffffff1690602001909291908035906020019092919080356fffffffffffffffffffffffffffffffff191690602001909291905050506110ad565b005b3480156104b857600080fd5b506104c161149b565b604051808273ffffffffffffffffffffffffffffffffffffffff1673ffffffffffffffffffffffffffffffffffffffff16815260200191505060405180910390f35b34801561050f57600080fd5b506105186114c5565b604051808215151515815260200191505060405180910390f35b34801561053e57600080fd5b5061056b6004803603602081101561055557600080fd5b810190808035906020019092919050505061151d565b005b34801561057957600080fd5b506106336004803603602081101561059057600080fd5b81019080803590602001906401000000008111156105ad57600080fd5b8201836020820111156105bf57600080fd5b803590602001918460018302840111640100000000831117156105e157600080fd5b91908080601f016020809104026020016040519081016040528093929190818152602001838380828437600081840152601f19601f82011690508083019250505050505050919291929050505061153a565b005b34801561064157600080fd5b506106846004803603602081101561065857600080fd5b81019080803573ffffffffffffffffffffffffffffffffffffffff169060200190929190505050611567565b005b34801561069257600080fd5b506106d5600480360360208110156106a957600080fd5b81019080803573ffffffffffffffffffffffffffffffffffffffff1690602001909291905050506116ea565b005b3480156106e357600080fd5b50610726600480360360208110156106fa57600080fd5b81019080803573ffffffffffffffffffffffffffffffffffffffff1690602001909291905050506117e6565b005b34801561073457600080fd5b5061073d611805565b6040518082815260200191505060405180910390f35b6000606c60009054906101000a900473ffffffffffffffffffffffffffffffffffffffff1673ffffffffffffffffffffffffffffffffffffffff163373ffffffffffffffffffffffffffffffffffffffff161415156107fd576040517f08c379a000000000000000000000000000000000000000000000000000000000815260040180806020018281038252602a815260200180613383602a913960400191505060405180910390fd5b60716000836fffffffffffffffffffffffffffffffff19166fffffffffffffffffffffffffffffffff1916815260200190815260200160002060009054906101000a900460ff16159050919050565b6108546114c5565b151561085f57600080fd5b600073ffffffffffffffffffffffffffffffffffffffff168173ffffffffffffffffffffffffffffffffffffffff1614151515610904576040517f08c379a00000000000000000000000000000000000000000000000000000000081526004018080602001828103825260188152602001807f496e76616c6964206164647265737320737570706c696564000000000000000081525060200191505060405180910390fd5b80606c60006101000a81548173ffffffffffffffffffffffffffffffffffffffff021916908373ffffffffffffffffffffffffffffffffffffffff16021790555050565b6070600083815260200190815260200160002060009054906101000a900460ff1615156109dd576040517f08c379a00000000000000000000000000000000000000000000000000000000081526004018080602001828103825260118152602001807f496e76616c6964206f7261636c6520696400000000000000000000000000000081525060200191505060405180910390fd5b6109e56118f5565b73ffffffffffffffffffffffffffffffffffffffff163373ffffffffffffffffffffffffffffffffffffffff16141515610a87576040517f08c379a00000000000000000000000000000000000000000000000000000000081526004018080602001828103825260158152602001807f496e76616c6964206f7261636c65206f726967696e000000000000000000000081525060200191505060405180910390fd5b60008151111515610b00576040517f08c379a00000000000000000000000000000000000000000000000000000000081526004018080602001828103825260178152602001807f496e76616c6964206f7261636c6520726573706f6e736500000000000000000081525060200191505060405180910390fd5b6000606e600084815260200190815260200160002060009054906101000a900473ffffffffffffffffffffffffffffffffffffffff1690506000610b4383611c6b565b905060008160ff161115610c08578173ffffffffffffffffffffffffffffffffffffffff167fc10066e9a047add222cfdd8ed78f78a0dfbc9d679528c2b6fbdb67bffbe73aa0606f600087815260200190815260200160002060009054906101000a9004700100000000000000000000000000000000028360405180836fffffffffffffffffffffffffffffffff19166fffffffffffffffffffffffffffffffff191681526020018260ff1660ff1681526020019250505060405180910390a2610e8c565b6000606b60009054906101000a900473ffffffffffffffffffffffffffffffffffffffff1673ffffffffffffffffffffffffffffffffffffffff16637273b29984866040518363ffffffff167c0100000000000000000000000000000000000000000000000000000000028152600401808373ffffffffffffffffffffffffffffffffffffffff1673ffffffffffffffffffffffffffffffffffffffff16815260200180602001828103825283818151815260200191508051906020019080838360005b83811015610ce7578082015181840152602081019050610ccc565b50505050905090810190601f168015610d145780820380516001836020036101000a031916815260200191505b509350505050602060405180830381600087803b158015610d3457600080fd5b505af1158015610d48573d6000803e3d6000fd5b505050506040513d6020811015610d5e57600080fd5b810190808051906020019092919050505090508273ffffffffffffffffffffffffffffffffffffffff167f1ed919bb314d52c4ea000eaa0174a00f4bd95f6498b94de5f22a29ca28ebe2dc606f600088815260200190815260200160002060009054906101000a900470010000000000000000000000000000000002838760405180846fffffffffffffffffffffffffffffffff19166fffffffffffffffffffffffffffffffff1916815260200183815260200180602001828103825283818151815260200191508051906020019080838360005b83811015610e4e578082015181840152602081019050610e33565b50505050905090810190601f168015610e7b5780820380516001836020036101000a031916815260200191505b5094505050505060405180910390a2505b60716000606f600087815260200190815260200160002060009054906101000a9004700100000000000000000000000000000000026fffffffffffffffffffffffffffffffff19166fffffffffffffffffffffffffffffffff1916815260200190815260200160002060006101000a81549060ff0219169055606e600085815260200190815260200160002060006101000a81549073ffffffffffffffffffffffffffffffffffffffff0219169055606f600085815260200190815260200160002060006101000a8154906fffffffffffffffffffffffffffffffff02191690556070600085815260200190815260200160002060006101000a81549060ff021916905550505050565b610f9e6114c5565b1515610fa957600080fd5b610fb281611cfa565b50565b60006001026069600080600102815260200190815260200160002081905550505050565b610fe16114c5565b1515610fec57600080fd5b600073ffffffffffffffffffffffffffffffffffffffff16603360009054906101000a900473ffffffffffffffffffffffffffffffffffffffff1673ffffffffffffffffffffffffffffffffffffffff167f8be0079c531659141344cd1fd0a4f28419497f9722a3daafe3b4186f6b6457e060405160405180910390a36000603360006101000a81548173ffffffffffffffffffffffffffffffffffffffff021916908373ffffffffffffffffffffffffffffffffffffffff160217905550565b606c60009054906101000a900473ffffffffffffffffffffffffffffffffffffffff1673ffffffffffffffffffffffffffffffffffffffff163373ffffffffffffffffffffffffffffffffffffffff16141515611155576040517f08c379a000000000000000000000000000000000000000000000000000000000815260040180806020018281038252602a815260200180613383602a913960400191505060405180910390fd5b3073ffffffffffffffffffffffffffffffffffffffff16318211156111fc578273ffffffffffffffffffffffffffffffffffffffff167fc10066e9a047add222cfdd8ed78f78a0dfbc9d679528c2b6fbdb67bffbe73aa082606460405180836fffffffffffffffffffffffffffffffff19166fffffffffffffffffffffffffffffffff191681526020018260ff1660ff1681526020019250505060405180910390a2611496565b60608160405160200180807f7b2275756964223a220000000000000000000000000000000000000000000000815250600901826fffffffffffffffffffffffffffffffff19166fffffffffffffffffffffffffffffffff19168152601001807f227d000000000000000000000000000000000000000000000000000000000000815250600201915050604051602081830303815290604052905060006113756040805190810160405280600381526020017f55524c000000000000000000000000000000000000000000000000000000000081525060728054600181600116156101000203166002900480601f0160208091040260200160405190810160405280929190818152602001828054600181600116156101000203166002900480156113675780601f1061133c57610100808354040283529160200191611367565b820191906000526020600020905b81548152906001019060200180831161134a57829003601f168201915b505050505084606d54612057565b9050600160716000856fffffffffffffffffffffffffffffffff19166fffffffffffffffffffffffffffffffff1916815260200190815260200160002060006101000a81548160ff02191690831515021790555084606e600083815260200190815260200160002060006101000a81548173ffffffffffffffffffffffffffffffffffffffff021916908373ffffffffffffffffffffffffffffffffffffffff16021790555082606f600083815260200190815260200160002060006101000a8154816fffffffffffffffffffffffffffffffff02191690837001000000000000000000000000000000009004021790555060016070600083815260200190815260200160002060006101000a81548160ff02191690831515021790555050505b505050565b6000603360009054906101000a900473ffffffffffffffffffffffffffffffffffffffff16905090565b6000603360009054906101000a900473ffffffffffffffffffffffffffffffffffffffff1673ffffffffffffffffffffffffffffffffffffffff163373ffffffffffffffffffffffffffffffffffffffff1614905090565b6115256114c5565b151561153057600080fd5b80606d8190555050565b6115426114c5565b151561154d57600080fd5b80607290805190602001906115639291906132dd565b5050565b600060019054906101000a900460ff16806115865750611585612690565b5b8061159d57506000809054906101000a900460ff16155b15156115f4576040517f08c379a000000000000000000000000000000000000000000000000000000000815260040180806020018281038252602e8152602001806133ad602e913960400191505060405180910390fd5b60008060019054906101000a900460ff161590508015611644576001600060016101000a81548160ff02191690831515021790555060016000806101000a81548160ff0219169083151502179055505b61164d826126a1565b736f485c8bf6fc43ea212e93bbf8ce046c7f1cb475606760006101000a81548173ffffffffffffffffffffffffffffffffffffffff021916908373ffffffffffffffffffffffffffffffffffffffff1602179055506116ac6002612861565b506116bb6402540be400611cfa565b6204e200606d8190555080156116e65760008060016101000a81548160ff0219169083151502179055505b5050565b6116f26114c5565b15156116fd57600080fd5b600073ffffffffffffffffffffffffffffffffffffffff168173ffffffffffffffffffffffffffffffffffffffff16141515156117a2576040517f08c379a00000000000000000000000000000000000000000000000000000000081526004018080602001828103825260188152602001807f496e76616c6964206164647265737320737570706c696564000000000000000081525060200191505060405180910390fd5b80606b60006101000a81548173ffffffffffffffffffffffffffffffffffffffff021916908373ffffffffffffffffffffffffffffffffffffffff16021790555050565b6117ee6114c5565b15156117f957600080fd5b61180281612872565b50565b6000606c60009054906101000a900473ffffffffffffffffffffffffffffffffffffffff1673ffffffffffffffffffffffffffffffffffffffff163373ffffffffffffffffffffffffffffffffffffffff161415156118af576040517f08c379a000000000000000000000000000000000000000000000000000000000815260040180806020018281038252602a815260200180613383602a913960400191505060405180910390fd5b6118f06040805190810160405280600381526020017f55524c0000000000000000000000000000000000000000000000000000000000815250606d5461296e565b905090565b60008073ffffffffffffffffffffffffffffffffffffffff16606760009054906101000a900473ffffffffffffffffffffffffffffffffffffffff1673ffffffffffffffffffffffffffffffffffffffff16148061197d5750600061197b606760009054906101000a900473ffffffffffffffffffffffffffffffffffffffff16612d61565b145b1561198e5761198c6000612861565b505b606760009054906101000a900473ffffffffffffffffffffffffffffffffffffffff1673ffffffffffffffffffffffffffffffffffffffff166338cc48316040518163ffffffff167c0100000000000000000000000000000000000000000000000000000000028152600401602060405180830381600087803b158015611a1457600080fd5b505af1158015611a28573d6000803e3d6000fd5b505050506040513d6020811015611a3e57600080fd5b810190808051906020019092919050505073ffffffffffffffffffffffffffffffffffffffff16606660009054906101000a900473ffffffffffffffffffffffffffffffffffffffff1673ffffffffffffffffffffffffffffffffffffffff16141515611ba757606760009054906101000a900473ffffffffffffffffffffffffffffffffffffffff1673ffffffffffffffffffffffffffffffffffffffff166338cc48316040518163ffffffff167c0100000000000000000000000000000000000000000000000000000000028152600401602060405180830381600087803b158015611b2b57600080fd5b505af1158015611b3f573d6000803e3d6000fd5b505050506040513d6020811015611b5557600080fd5b8101908080519060200190929190505050606660006101000a81548173ffffffffffffffffffffffffffffffffffffffff021916908373ffffffffffffffffffffffffffffffffffffffff1602179055505b606660009054906101000a900473ffffffffffffffffffffffffffffffffffffffff1673ffffffffffffffffffffffffffffffffffffffff1663c281d19e6040518163ffffffff167c010000000000000000000000000000000000000000000000000000000002815260040160206040518083038186803b158015611c2b57600080fd5b505afa158015611c3f573d6000803e3d6000fd5b505050506040513d6020811015611c5557600080fd5b8101908080519060200190929190505050905090565b600060608290506030816000815181101515611c8357fe5b9060200101517f010000000000000000000000000000000000000000000000000000000000000090047f0100000000000000000000000000000000000000000000000000000000000000027f0100000000000000000000000000000000000000000000000000000000000000900403915050919050565b600073ffffffffffffffffffffffffffffffffffffffff16606760009054906101000a900473ffffffffffffffffffffffffffffffffffffffff1673ffffffffffffffffffffffffffffffffffffffff161480611d8157506000611d7f606760009054906101000a900473ffffffffffffffffffffffffffffffffffffffff16612d61565b145b15611d9257611d906000612861565b505b606760009054906101000a900473ffffffffffffffffffffffffffffffffffffffff1673ffffffffffffffffffffffffffffffffffffffff166338cc48316040518163ffffffff167c0100000000000000000000000000000000000000000000000000000000028152600401602060405180830381600087803b158015611e1857600080fd5b505af1158015611e2c573d6000803e3d6000fd5b505050506040513d6020811015611e4257600080fd5b810190808051906020019092919050505073ffffffffffffffffffffffffffffffffffffffff16606660009054906101000a900473ffffffffffffffffffffffffffffffffffffffff1673ffffffffffffffffffffffffffffffffffffffff16141515611fab57606760009054906101000a900473ffffffffffffffffffffffffffffffffffffffff1673ffffffffffffffffffffffffffffffffffffffff166338cc48316040518163ffffffff167c0100000000000000000000000000000000000000000000000000000000028152600401602060405180830381600087803b158015611f2f57600080fd5b505af1158015611f43573d6000803e3d6000fd5b505050506040513d6020811015611f5957600080fd5b8101908080519060200190929190505050606660006101000a81548173ffffffffffffffffffffffffffffffffffffffff021916908373ffffffffffffffffffffffffffffffffffffffff1602179055505b606660009054906101000a900473ffffffffffffffffffffffffffffffffffffffff1673ffffffffffffffffffffffffffffffffffffffff1663ca6ad1e4826040518263ffffffff167c010000000000000000000000000000000000000000000000000000000002815260040180828152602001915050600060405180830381600087803b15801561203c57600080fd5b505af1158015612050573d6000803e3d6000fd5b5050505050565b60008073ffffffffffffffffffffffffffffffffffffffff16606760009054906101000a900473ffffffffffffffffffffffffffffffffffffffff1673ffffffffffffffffffffffffffffffffffffffff1614806120df575060006120dd606760009054906101000a900473ffffffffffffffffffffffffffffffffffffffff16612d61565b145b156120f0576120ee6000612861565b505b606760009054906101000a900473ffffffffffffffffffffffffffffffffffffffff1673ffffffffffffffffffffffffffffffffffffffff166338cc48316040518163ffffffff167c0100000000000000000000000000000000000000000000000000000000028152600401602060405180830381600087803b15801561217657600080fd5b505af115801561218a573d6000803e3d6000fd5b505050506040513d60208110156121a057600080fd5b810190808051906020019092919050505073ffffffffffffffffffffffffffffffffffffffff16606660009054906101000a900473ffffffffffffffffffffffffffffffffffffffff1673ffffffffffffffffffffffffffffffffffffffff1614151561230957606760009054906101000a900473ffffffffffffffffffffffffffffffffffffffff1673ffffffffffffffffffffffffffffffffffffffff166338cc48316040518163ffffffff167c0100000000000000000000000000000000000000000000000000000000028152600401602060405180830381600087803b15801561228d57600080fd5b505af11580156122a1573d6000803e3d6000fd5b505050506040513d60208110156122b757600080fd5b8101908080519060200190929190505050606660006101000a81548173ffffffffffffffffffffffffffffffffffffffff021916908373ffffffffffffffffffffffffffffffffffffffff1602179055505b6000606660009054906101000a900473ffffffffffffffffffffffffffffffffffffffff1673ffffffffffffffffffffffffffffffffffffffff16632ef3accc87856040518363ffffffff167c01000000000000000000000000000000000000000000000000000000000281526004018080602001838152602001828103825284818151815260200191508051906020019080838360005b838110156123bc5780820151818401526020810190506123a1565b50505050905090810190601f1680156123e95780820380516001836020036101000a031916815260200191505b509350505050602060405180830381600087803b15801561240957600080fd5b505af115801561241d573d6000803e3d6000fd5b505050506040513d602081101561243357600080fd5b81019080805190602001909291905050509050823a02670de0b6b3a764000001811115612467576000600102915050612688565b606660009054906101000a900473ffffffffffffffffffffffffffffffffffffffff1673ffffffffffffffffffffffffffffffffffffffff166385dee34c826000898989896040518763ffffffff167c010000000000000000000000000000000000000000000000000000000002815260040180868152602001806020018060200180602001858152602001848103845288818151815260200191508051906020019080838360005b8381101561252b578082015181840152602081019050612510565b50505050905090810190601f1680156125585780820380516001836020036101000a031916815260200191505b50848103835287818151815260200191508051906020019080838360005b83811015612591578082015181840152602081019050612576565b50505050905090810190601f1680156125be5780820380516001836020036101000a031916815260200191505b50848103825286818151815260200191508051906020019080838360005b838110156125f75780820151818401526020810190506125dc565b50505050905090810190601f1680156126245780820380516001836020036101000a031916815260200191505b50985050505050505050506020604051808303818588803b15801561264857600080fd5b505af115801561265c573d6000803e3d6000fd5b50505050506040513d602081101561267357600080fd5b81019080805190602001909291905050509150505b949350505050565b600080303b90506000811491505090565b600060019054906101000a900460ff16806126c057506126bf612690565b5b806126d757506000809054906101000a900460ff16155b151561272e576040517f08c379a000000000000000000000000000000000000000000000000000000000815260040180806020018281038252602e8152602001806133ad602e913960400191505060405180910390fd5b60008060019054906101000a900460ff16159050801561277e576001600060016101000a81548160ff02191690831515021790555060016000806101000a81548160ff0219169083151502179055505b81603360006101000a81548173ffffffffffffffffffffffffffffffffffffffff021916908373ffffffffffffffffffffffffffffffffffffffff160217905550603360009054906101000a900473ffffffffffffffffffffffffffffffffffffffff1673ffffffffffffffffffffffffffffffffffffffff16600073ffffffffffffffffffffffffffffffffffffffff167f8be0079c531659141344cd1fd0a4f28419497f9722a3daafe3b4186f6b6457e060405160405180910390a3801561285d5760008060016101000a81548160ff0219169083151502179055505b5050565b600061286b612d6c565b9050919050565b600073ffffffffffffffffffffffffffffffffffffffff168173ffffffffffffffffffffffffffffffffffffffff16141515156128ae57600080fd5b8073ffffffffffffffffffffffffffffffffffffffff16603360009054906101000a900473ffffffffffffffffffffffffffffffffffffffff1673ffffffffffffffffffffffffffffffffffffffff167f8be0079c531659141344cd1fd0a4f28419497f9722a3daafe3b4186f6b6457e060405160405180910390a380603360006101000a81548173ffffffffffffffffffffffffffffffffffffffff021916908373ffffffffffffffffffffffffffffffffffffffff16021790555050565b60008073ffffffffffffffffffffffffffffffffffffffff16606760009054906101000a900473ffffffffffffffffffffffffffffffffffffffff1673ffffffffffffffffffffffffffffffffffffffff1614806129f6575060006129f4606760009054906101000a900473ffffffffffffffffffffffffffffffffffffffff16612d61565b145b15612a0757612a056000612861565b505b606760009054906101000a900473ffffffffffffffffffffffffffffffffffffffff1673ffffffffffffffffffffffffffffffffffffffff166338cc48316040518163ffffffff167c0100000000000000000000000000000000000000000000000000000000028152600401602060405180830381600087803b158015612a8d57600080fd5b505af1158015612aa1573d6000803e3d6000fd5b505050506040513d6020811015612ab757600080fd5b810190808051906020019092919050505073ffffffffffffffffffffffffffffffffffffffff16606660009054906101000a900473ffffffffffffffffffffffffffffffffffffffff1673ffffffffffffffffffffffffffffffffffffffff16141515612c2057606760009054906101000a900473ffffffffffffffffffffffffffffffffffffffff1673ffffffffffffffffffffffffffffffffffffffff166338cc48316040518163ffffffff167c0100000000000000000000000000000000000000000000000000000000028152600401602060405180830381600087803b158015612ba457600080fd5b505af1158015612bb8573d6000803e3d6000fd5b505050506040513d6020811015612bce57600080fd5b8101908080519060200190929190505050606660006101000a81548173ffffffffffffffffffffffffffffffffffffffff021916908373ffffffffffffffffffffffffffffffffffffffff1602179055505b606660009054906101000a900473ffffffffffffffffffffffffffffffffffffffff1673ffffffffffffffffffffffffffffffffffffffff16632ef3accc84846040518363ffffffff167c01000000000000000000000000000000000000000000000000000000000281526004018080602001838152602001828103825284818151815260200191508051906020019080838360005b83811015612cd1578082015181840152602081019050612cb6565b50505050905090810190601f168015612cfe5780820380516001836020036101000a031916815260200191505b509350505050602060405180830381600087803b158015612d1e57600080fd5b505af1158015612d32573d6000803e3d6000fd5b505050506040513d6020811015612d4857600080fd5b8101908080519060200190929190505050905092915050565b6000813b9050919050565b600080612d8c731d3b2638a7cc9f2cb3d298a3da7a90b67e5506ed612d61565b1115612e2e57731d3b2638a7cc9f2cb3d298a3da7a90b67e5506ed606760006101000a81548173ffffffffffffffffffffffffffffffffffffffff021916908373ffffffffffffffffffffffffffffffffffffffff160217905550612e256040805190810160405280600b81526020017f6574685f6d61696e6e65740000000000000000000000000000000000000000008152506132c3565b600190506132c0565b6000612e4d73c03a2615d5efaf5f49f60b7bb6583eaec212fdf1612d61565b1115612eef5773c03a2615d5efaf5f49f60b7bb6583eaec212fdf1606760006101000a81548173ffffffffffffffffffffffffffffffffffffffff021916908373ffffffffffffffffffffffffffffffffffffffff160217905550612ee66040805190810160405280600c81526020017f6574685f726f707374656e3300000000000000000000000000000000000000008152506132c3565b600190506132c0565b6000612f0e73b7a07bcf2ba2f2703b24c0691b5278999c59ac7e612d61565b1115612fb05773b7a07bcf2ba2f2703b24c0691b5278999c59ac7e606760006101000a81548173ffffffffffffffffffffffffffffffffffffffff021916908373ffffffffffffffffffffffffffffffffffffffff160217905550612fa76040805190810160405280600981526020017f6574685f6b6f76616e00000000000000000000000000000000000000000000008152506132c3565b600190506132c0565b6000612fcf73146500cfd35b22e4a392fe0adc06de1a1368ed48612d61565b11156130715773146500cfd35b22e4a392fe0adc06de1a1368ed48606760006101000a81548173ffffffffffffffffffffffffffffffffffffffff021916908373ffffffffffffffffffffffffffffffffffffffff1602179055506130686040805190810160405280600b81526020017f6574685f72696e6b6562790000000000000000000000000000000000000000008152506132c3565b600190506132c0565b600061309073a2998efd205fb9d4b4963afb70778d6354ad3a41612d61565b11156131325773a2998efd205fb9d4b4963afb70778d6354ad3a41606760006101000a81548173ffffffffffffffffffffffffffffffffffffffff021916908373ffffffffffffffffffffffffffffffffffffffff1602179055506131296040805190810160405280600a81526020017f6574685f676f65726c69000000000000000000000000000000000000000000008152506132c3565b600190506132c0565b6000613151736f485c8bf6fc43ea212e93bbf8ce046c7f1cb475612d61565b11156131b557736f485c8bf6fc43ea212e93bbf8ce046c7f1cb475606760006101000a81548173ffffffffffffffffffffffffffffffffffffffff021916908373ffffffffffffffffffffffffffffffffffffffff160217905550600190506132c0565b60006131d47320e12a1f859b3feae5fb2a0a32c18f5a65555bbf612d61565b1115613238577320e12a1f859b3feae5fb2a0a32c18f5a65555bbf606760006101000a81548173ffffffffffffffffffffffffffffffffffffffff021916908373ffffffffffffffffffffffffffffffffffffffff160217905550600190506132c0565b60006132577351efaf4c8b3c9afbd5ab9f4bbc82784ab6ef8faa612d61565b11156132bb577351efaf4c8b3c9afbd5ab9f4bbc82784ab6ef8faa606760006101000a81548173ffffffffffffffffffffffffffffffffffffffff021916908373ffffffffffffffffffffffffffffffffffffffff160217905550600190506132c0565b600090505b90565b80606890805190602001906132d99291906132dd565b5050565b828054600181600116156101000203166002900490600052602060002090601f016020900481019282601f1061331e57805160ff191683800117855561334c565b8280016001018555821561334c579182015b8281111561334b578251825591602001919060010190613330565b5b509050613359919061335d565b5090565b61337f91905b8082111561337b576000816000905550600101613363565b5090565b9056fe416374696f6e206f6e6c7920616c6c6f77656420627920436f6e74726f6c6c657220636f6e7472616374436f6e747261637420696e7374616e63652068617320616c7265616479206265656e20696e697469616c697a6564a165627a7a72305820fae9ebc1f9fe0b9d5fa0d7cd39d734f818c3098aabcfe7c9eea53e577f6513bd0029",
  "source": "/**\n * Phat Cats - Crypto-Cards\n *  - https://crypto-cards.io\n *  - https://phatcats.co\n *\n * Copyright 2019 (c) Phat Cats, Inc.\n */\n\npragma solidity 0.5.2;\n\nimport \"./usingOraclize.sol\";\n\nimport \"zos-lib/contracts/Initializable.sol\";\nimport \"openzeppelin-eth/contracts/ownership/Ownable.sol\";\n\nimport \"./CryptoCardsPacks.sol\";\nimport \"./CryptoCardsController.sol\";\n\n\n//\n// NOTE on Ownable:\n//   Owner Account is attached to a Multi-Sig wallet controlled by a minimum of 3 C-Level Executives.\n//\n\ncontract CryptoCardsOracle is Ownable, usingOraclize {\n\n    //\n    // Storage\n    //\n    CryptoCardsPacks internal cryptoCardsPacks;\n    CryptoCardsController internal cryptoCardsController;\n\n    uint256 internal oracleGasLimit;\n\n    mapping(bytes32=>address) internal oracleIdToOwner;\n    mapping(bytes32=>bytes16) internal oracleIdToUUID;\n    mapping(bytes32=>bool) internal oracleIds;\n    mapping(bytes16=>bool) internal uuids;\n\n    string internal apiEndpoint;\n\n    //\n    // Events\n    //\n    event ReceivedNewPack(address indexed receiver, bytes16 uuid, uint256 packId, string packData);\n    event PackError      (address indexed receiver, bytes16 uuid, uint8 errorCode);\n\n    //\n    // Modifiers\n    //\n    modifier onlyController() {\n        require(msg.sender == address(cryptoCardsController), \"Action only allowed by Controller contract\");\n        _;\n    }\n\n    //\n    // Initialize\n    //\n    function initialize(address _owner) public initializer {\n        Ownable.initialize(_owner);\n\n        // ~~~~~~~~~~~~~~~~~~~~~~~~~~~~~~~~~~~~~~~~~~~~~~~~\n        // Local Only\n        OAR = OraclizeAddrResolverI(0x6f485C8BF6fc43eA212E93BBF8ce046C7f1cb475);\n        oraclize_setNetwork(networkID_testnet);\n        // ~~~~~~~~~~~~~~~~~~~~~~~~~~~~~~~~~~~~~~~~~~~~~~~~\n\n        oraclize_setCustomGasPrice(10000000000);  // 10 gwei\n        oracleGasLimit = 320000;                  // wei\n    }\n\n    //\n    // Only Controller\n    //\n\n    function isValidUuid(bytes16 _uuid) public view onlyController returns (bool) {\n        return !uuids[_uuid];\n    }\n\n    function getGasReserve() public onlyController returns (uint256) {\n        return oraclize_getPrice(\"URL\", oracleGasLimit);\n    }\n\n    function getNewPack(address receiver, uint256 gasReserve, bytes16 uuid) public onlyController payable {\n        if (gasReserve > address(this).balance) {\n            emit PackError(receiver, uuid, uint8(100));  // Insufficient Funds for Oracle Error\n        } else {\n            string memory apiParams = string(abi.encodePacked('{\"uuid\":\"', uuid, '\"}'));\n            bytes32 queryId = oraclize_query(\"URL\", apiEndpoint, apiParams, oracleGasLimit);\n\n            uuids[uuid] = true;\n            oracleIdToOwner[queryId] = receiver;\n            oracleIdToUUID[queryId] = uuid;\n            oracleIds[queryId] = true;\n        }\n    }\n\n    function __callback(bytes32 _queryId, string memory _result) public {\n        require(oracleIds[_queryId], \"Invalid oracle id\");\n        require(msg.sender == oraclize_cbAddress(), \"Invalid oracle origin\");\n        require(bytes(_result).length > 0, \"Invalid oracle response\");\n\n        address receiver = oracleIdToOwner[_queryId];\n\n        // Code 0 = All-Good - Pack Generated\n        // Code 1+ = Error Code\n        uint8 responseCode = _getResponseCode(_result);\n\n        // Check for Error from API\n        if (responseCode > 0) {\n            emit PackError(receiver, oracleIdToUUID[_queryId], responseCode);  // API Error\n        } else {\n            // Mint Pack and Transfer GUM Reward\n            uint256 packId = cryptoCardsPacks.mintPack(receiver, _result);\n            emit ReceivedNewPack(receiver, oracleIdToUUID[_queryId], packId, _result);\n        }\n        delete uuids[oracleIdToUUID[_queryId]];\n        delete oracleIdToOwner[_queryId];\n        delete oracleIdToUUID[_queryId];\n        delete oracleIds[_queryId];\n    }\n\n    //\n    // Only Owner\n    //\n\n    function setContractController(CryptoCardsController _controller) public onlyOwner {\n        require(address(_controller) != address(0), \"Invalid address supplied\");\n        cryptoCardsController = _controller;\n    }\n\n    function setPacksAddress(CryptoCardsPacks _packs) public onlyOwner {\n        require(address(_packs) != address(0), \"Invalid address supplied\");\n        cryptoCardsPacks = _packs;\n    }\n\n    function updateApiEndpoint(string memory _endpoint) public onlyOwner {\n        apiEndpoint = _endpoint;\n    }\n\n    function updateOracleGasPrice(uint _wei) public onlyOwner payable {\n        oraclize_setCustomGasPrice(_wei);\n    }\n\n    function updateOracleGasLimit(uint _wei) public onlyOwner {\n        oracleGasLimit = _wei;\n    }\n\n    //\n    // Private\n    //\n\n    function _getResponseCode(string memory str) internal pure returns (uint8) {\n        bytes memory b = bytes(str);\n        return uint8(b[0]) - 48;\n    }\n}\n",
  "sourcePath": "/Users/robsecord/workspace/Ethereum/CryptoCards/cryptocards_contracts/contracts/CryptoCardsOracle.sol",
  "compiler": {
    "name": "solc",
    "version": "0.5.2+commit.1df8f40c.Emscripten.clang"
  },
  "schemaVersion": "3.0.11",
  "updatedAt": "2019-09-17T00:52:56.706Z",
  "devdoc": {
    "methods": {
      "isOwner()": {
        "return": "true if `msg.sender` is the owner of the contract."
      },
      "owner()": {
        "return": "the address of the owner."
      },
      "renounceOwnership()": {
        "details": "Allows the current owner to relinquish control of the contract. It will not be possible to call the functions with the `onlyOwner` modifier anymore."
      },
      "transferOwnership(address)": {
        "details": "Allows the current owner to transfer control of the contract to a newOwner.",
        "params": {
          "newOwner": "The address to transfer ownership to."
        }
      }
    }
  },
  "userdoc": {
    "methods": {
      "renounceOwnership()": {
        "notice": "Renouncing ownership will leave the contract without an owner, thereby removing any functionality that is only available to the owner."
      }
    }
  }
}