{
  "contractName": "CryptoCardsCards",
  "abi": [
    {
      "constant": true,
      "inputs": [],
      "name": "MAX_TRADE_RANKS",
      "outputs": [
        {
          "name": "",
          "type": "uint256"
        }
      ],
      "payable": false,
      "stateMutability": "view",
      "type": "function"
    },
    {
      "constant": false,
      "inputs": [],
      "name": "renounceOwnership",
      "outputs": [],
      "payable": false,
      "stateMutability": "nonpayable",
      "type": "function"
    },
    {
      "constant": true,
      "inputs": [],
      "name": "owner",
      "outputs": [
        {
          "name": "",
          "type": "address"
        }
      ],
      "payable": false,
      "stateMutability": "view",
      "type": "function"
    },
    {
      "constant": true,
      "inputs": [],
      "name": "isOwner",
      "outputs": [
        {
          "name": "",
          "type": "bool"
        }
      ],
      "payable": false,
      "stateMutability": "view",
      "type": "function"
    },
    {
      "constant": false,
      "inputs": [
        {
          "name": "newOwner",
          "type": "address"
        }
      ],
      "name": "transferOwnership",
      "outputs": [],
      "payable": false,
      "stateMutability": "nonpayable",
      "type": "function"
    },
    {
      "anonymous": false,
      "inputs": [
        {
          "indexed": true,
          "name": "owner",
          "type": "address"
        },
        {
          "indexed": false,
          "name": "uuid",
          "type": "bytes16"
        },
        {
          "indexed": false,
          "name": "cardId",
          "type": "uint256"
        },
        {
          "indexed": false,
          "name": "price",
          "type": "uint256"
        }
      ],
      "name": "CardPriceSet",
      "type": "event"
    },
    {
      "anonymous": false,
      "inputs": [
        {
          "indexed": true,
          "name": "owner",
          "type": "address"
        },
        {
          "indexed": false,
          "name": "uuid",
          "type": "bytes16"
        },
        {
          "indexed": false,
          "name": "cardId",
          "type": "uint256"
        },
        {
          "indexed": false,
          "name": "cardRanks",
          "type": "uint256[]"
        },
        {
          "indexed": false,
          "name": "cardGens",
          "type": "uint256[]"
        },
        {
          "indexed": false,
          "name": "cardYears",
          "type": "uint256[]"
        }
      ],
      "name": "CardTradeValueSet",
      "type": "event"
    },
    {
      "anonymous": false,
      "inputs": [
        {
          "indexed": true,
          "name": "owner",
          "type": "address"
        },
        {
          "indexed": true,
          "name": "receiver",
          "type": "address"
        },
        {
          "indexed": false,
          "name": "uuid",
          "type": "bytes16"
        },
        {
          "indexed": false,
          "name": "cardId",
          "type": "uint256"
        },
        {
          "indexed": false,
          "name": "price",
          "type": "uint256"
        }
      ],
      "name": "CardSale",
      "type": "event"
    },
    {
      "anonymous": false,
      "inputs": [
        {
          "indexed": true,
          "name": "owner",
          "type": "address"
        },
        {
          "indexed": true,
          "name": "receiver",
          "type": "address"
        },
        {
          "indexed": false,
          "name": "uuid",
          "type": "bytes16"
        },
        {
          "indexed": false,
          "name": "ownerCardId",
          "type": "uint256"
        },
        {
          "indexed": false,
          "name": "tradeCardId",
          "type": "uint256"
        }
      ],
      "name": "CardTrade",
      "type": "event"
    },
    {
      "anonymous": false,
      "inputs": [
        {
          "indexed": true,
          "name": "previousOwner",
          "type": "address"
        },
        {
          "indexed": true,
          "name": "newOwner",
          "type": "address"
        }
      ],
      "name": "OwnershipTransferred",
      "type": "event"
    },
    {
      "constant": false,
      "inputs": [
        {
          "name": "owner",
          "type": "address"
        }
      ],
      "name": "initialize",
      "outputs": [],
      "payable": false,
      "stateMutability": "nonpayable",
      "type": "function"
    },
    {
      "constant": true,
      "inputs": [],
      "name": "totalMintedCards",
      "outputs": [
        {
          "name": "",
          "type": "uint256"
        }
      ],
      "payable": false,
      "stateMutability": "view",
      "type": "function"
    },
    {
      "constant": true,
      "inputs": [
        {
          "name": "owner",
          "type": "address"
        }
      ],
      "name": "balanceOf",
      "outputs": [
        {
          "name": "",
          "type": "uint256"
        }
      ],
      "payable": false,
      "stateMutability": "view",
      "type": "function"
    },
    {
      "constant": true,
      "inputs": [
        {
          "name": "tokenId",
          "type": "uint256"
        }
      ],
      "name": "ownerOf",
      "outputs": [
        {
          "name": "",
          "type": "address"
        }
      ],
      "payable": false,
      "stateMutability": "view",
      "type": "function"
    },
    {
      "constant": true,
      "inputs": [
        {
          "name": "tokenId",
          "type": "uint256"
        }
      ],
      "name": "getTotalIssued",
      "outputs": [
        {
          "name": "",
          "type": "uint256"
        }
      ],
      "payable": false,
      "stateMutability": "view",
      "type": "function"
    },
    {
      "constant": true,
      "inputs": [
        {
          "name": "tokenId",
          "type": "uint256"
        }
      ],
      "name": "getSalePrice",
      "outputs": [
        {
          "name": "",
          "type": "uint256"
        }
      ],
      "payable": false,
      "stateMutability": "view",
      "type": "function"
    },
    {
      "constant": true,
      "inputs": [
        {
          "name": "tokenId",
          "type": "uint256"
        }
      ],
      "name": "isTokenPrinted",
      "outputs": [
        {
          "name": "",
          "type": "bool"
        }
      ],
      "payable": false,
      "stateMutability": "view",
      "type": "function"
    },
    {
      "constant": true,
      "inputs": [
        {
          "name": "tokenA",
          "type": "uint256"
        },
        {
          "name": "tokenB",
          "type": "uint256"
        }
      ],
      "name": "canCombine",
      "outputs": [
        {
          "name": "",
          "type": "bool"
        }
      ],
      "payable": false,
      "stateMutability": "view",
      "type": "function"
    },
    {
      "constant": false,
      "inputs": [
        {
          "name": "tokenA",
          "type": "uint256"
        },
        {
          "name": "tokenB",
          "type": "uint256"
        },
        {
          "name": "newIssue",
          "type": "uint256"
        },
        {
          "name": "uuid",
          "type": "bytes16"
        }
      ],
      "name": "combineCards",
      "outputs": [
        {
          "name": "",
          "type": "uint256"
        }
      ],
      "payable": false,
      "stateMutability": "nonpayable",
      "type": "function"
    },
    {
      "constant": false,
      "inputs": [
        {
          "name": "tokenId",
          "type": "uint256"
        },
        {
          "name": "uuid",
          "type": "bytes16"
        }
      ],
      "name": "meltCard",
      "outputs": [],
      "payable": false,
      "stateMutability": "nonpayable",
      "type": "function"
    },
    {
      "constant": false,
      "inputs": [
        {
          "name": "tokenId",
          "type": "uint256"
        },
        {
          "name": "uuid",
          "type": "bytes16"
        }
      ],
      "name": "printCard",
      "outputs": [],
      "payable": false,
      "stateMutability": "nonpayable",
      "type": "function"
    },
    {
      "constant": false,
      "inputs": [
        {
          "name": "cardIds",
          "type": "uint256[]"
        },
        {
          "name": "uuid",
          "type": "bytes16"
        }
      ],
      "name": "printCards",
      "outputs": [],
      "payable": false,
      "stateMutability": "nonpayable",
      "type": "function"
    },
    {
      "constant": false,
      "inputs": [
        {
          "name": "cardId",
          "type": "uint256"
        },
        {
          "name": "cardPrice",
          "type": "uint256"
        },
        {
          "name": "uuid",
          "type": "bytes16"
        }
      ],
      "name": "updateCardPrice",
      "outputs": [],
      "payable": false,
      "stateMutability": "nonpayable",
      "type": "function"
    },
    {
      "constant": false,
      "inputs": [
        {
          "name": "cardId",
          "type": "uint256"
        },
        {
          "name": "cardRanks",
          "type": "uint256[]"
        },
        {
          "name": "cardGens",
          "type": "uint256[]"
        },
        {
          "name": "cardYears",
          "type": "uint256[]"
        },
        {
          "name": "uuid",
          "type": "bytes16"
        }
      ],
      "name": "updateCardTradeValue",
      "outputs": [],
      "payable": false,
      "stateMutability": "nonpayable",
      "type": "function"
    },
    {
      "constant": false,
      "inputs": [
        {
          "name": "controller",
          "type": "address"
        }
      ],
      "name": "setContractController",
      "outputs": [],
      "payable": false,
      "stateMutability": "nonpayable",
      "type": "function"
    },
    {
      "constant": false,
      "inputs": [
        {
          "name": "gum",
          "type": "address"
        }
      ],
      "name": "setGumAddress",
      "outputs": [],
      "payable": false,
      "stateMutability": "nonpayable",
      "type": "function"
    },
    {
      "constant": false,
      "inputs": [
        {
          "name": "token",
          "type": "address"
        }
      ],
      "name": "setCryptoCardsCardToken",
      "outputs": [],
      "payable": false,
      "stateMutability": "nonpayable",
      "type": "function"
    },
    {
      "constant": false,
      "inputs": [
        {
          "name": "receiver",
          "type": "address"
        },
        {
          "name": "owner",
          "type": "address"
        },
        {
          "name": "cardId",
          "type": "uint256"
        },
        {
          "name": "pricePaid",
          "type": "uint256"
        },
        {
          "name": "uuid",
          "type": "bytes16"
        }
      ],
      "name": "transferCardForBuyer",
      "outputs": [
        {
          "name": "",
          "type": "uint256"
        }
      ],
      "payable": false,
      "stateMutability": "nonpayable",
      "type": "function"
    },
    {
      "constant": false,
      "inputs": [
        {
          "name": "owner",
          "type": "address"
        },
        {
          "name": "ownerCardId",
          "type": "uint256"
        },
        {
          "name": "desiredCardId",
          "type": "uint256"
        },
        {
          "name": "uuid",
          "type": "bytes16"
        }
      ],
      "name": "tradeCardForCard",
      "outputs": [],
      "payable": false,
      "stateMutability": "nonpayable",
      "type": "function"
    }
  ],
  "bytecode": "0x608060405234801561001057600080fd5b50613385806100206000396000f3fe608060405234801561001057600080fd5b5060043610610175576000357c010000000000000000000000000000000000000000000000000000000090048063715018a6116100e0578063c4d66de811610099578063c4d66de8146108bb578063d80d6aa3146108ff578063e45f7e87146109a8578063f2a40a23146109ec578063f2fde38b14610a32578063f8eb5fc514610a7657610175565b8063715018a614610580578063770c8dbf1461058a57806383a76264146107915780638da5cb5b146107dc5780638f32d59b14610826578063bbf0f9271461084857610175565b80632a385e9d116101325780632a385e9d14610334578063493d9f9814610352578063571ff873146103c75780635f6459c4146103e55780636352211e146104ba57806370a082311461052857610175565b806307fdd0841461017a57806308f44a9b146101ca578063145459871461020c5780631e8d273a1461026157806322cc9a02146102a557806325e28b06146102e9575b600080fd5b6101b06004803603604081101561019057600080fd5b810190808035906020019092919080359060200190929190505050610ab8565b604051808215151515815260200191505060405180910390f35b6101f6600480360360208110156101e057600080fd5b8101908080359060200190929190505050610b94565b6040518082815260200191505060405180910390f35b61025f6004803603606081101561022257600080fd5b81019080803590602001909291908035906020019092919080356fffffffffffffffffffffffffffffffff19169060200190929190505050610c67565b005b6102a36004803603602081101561027757600080fd5b81019080803573ffffffffffffffffffffffffffffffffffffffff169060200190929190505050610e5d565b005b6102e7600480360360208110156102bb57600080fd5b81019080803573ffffffffffffffffffffffffffffffffffffffff169060200190929190505050610f59565b005b610332600480360360408110156102ff57600080fd5b810190808035906020019092919080356fffffffffffffffffffffffffffffffff19169060200190929190505050611055565b005b61033c611164565b6040518082815260200191505060405180910390f35b6103c56004803603608081101561036857600080fd5b81019080803573ffffffffffffffffffffffffffffffffffffffff169060200190929190803590602001909291908035906020019092919080356fffffffffffffffffffffffffffffffff19169060200190929190505050611169565b005b6103cf6114f6565b6040518082815260200191505060405180910390f35b6104b8600480360360408110156103fb57600080fd5b810190808035906020019064010000000081111561041857600080fd5b82018360208201111561042a57600080fd5b8035906020019184602083028401116401000000008311171561044c57600080fd5b919080806020026020016040519081016040528093929190818152602001838360200280828437600081840152601f19601f82011690508083019250505050505050919291929080356fffffffffffffffffffffffffffffffff191690602001909291905050506115bc565b005b6104e6600480360360208110156104d057600080fd5b81019080803590602001909291905050506116ff565b604051808273ffffffffffffffffffffffffffffffffffffffff1673ffffffffffffffffffffffffffffffffffffffff16815260200191505060405180910390f35b61056a6004803603602081101561053e57600080fd5b81019080803573ffffffffffffffffffffffffffffffffffffffff1690602001909291905050506117d2565b6040518082815260200191505060405180910390f35b6105886118d1565b005b61078f600480360360a08110156105a057600080fd5b8101908080359060200190929190803590602001906401000000008111156105c757600080fd5b8201836020820111156105d957600080fd5b803590602001918460208302840111640100000000831117156105fb57600080fd5b919080806020026020016040519081016040528093929190818152602001838360200280828437600081840152601f19601f8201169050808301925050505050505091929192908035906020019064010000000081111561065b57600080fd5b82018360208201111561066d57600080fd5b8035906020019184602083028401116401000000008311171561068f57600080fd5b919080806020026020016040519081016040528093929190818152602001838360200280828437600081840152601f19601f820116905080830192505050505050509192919290803590602001906401000000008111156106ef57600080fd5b82018360208201111561070157600080fd5b8035906020019184602083028401116401000000008311171561072357600080fd5b919080806020026020016040519081016040528093929190818152602001838360200280828437600081840152601f19601f82011690508083019250505050505050919291929080356fffffffffffffffffffffffffffffffff191690602001909291905050506119a5565b005b6107da600480360360408110156107a757600080fd5b810190808035906020019092919080356fffffffffffffffffffffffffffffffff19169060200190929190505050611e10565b005b6107e461205b565b604051808273ffffffffffffffffffffffffffffffffffffffff1673ffffffffffffffffffffffffffffffffffffffff16815260200191505060405180910390f35b61082e612085565b604051808215151515815260200191505060405180910390f35b6108a56004803603608081101561085e57600080fd5b8101908080359060200190929190803590602001909291908035906020019092919080356fffffffffffffffffffffffffffffffff191690602001909291905050506120dd565b6040518082815260200191505060405180910390f35b6108fd600480360360208110156108d157600080fd5b81019080803573ffffffffffffffffffffffffffffffffffffffff16906020019092919050505061223e565b005b610992600480360360a081101561091557600080fd5b81019080803573ffffffffffffffffffffffffffffffffffffffff169060200190929190803573ffffffffffffffffffffffffffffffffffffffff169060200190929190803590602001909291908035906020019092919080356fffffffffffffffffffffffffffffffff19169060200190929190505050612349565b6040518082815260200191505060405180910390f35b6109ea600480360360208110156109be57600080fd5b81019080803573ffffffffffffffffffffffffffffffffffffffff1690602001909291905050506127a6565b005b610a1860048036036020811015610a0257600080fd5b81019080803590602001909291905050506128a2565b604051808215151515815260200191505060405180910390f35b610a7460048036036020811015610a4857600080fd5b81019080803573ffffffffffffffffffffffffffffffffffffffff169060200190929190505050612975565b005b610aa260048036036020811015610a8c57600080fd5b8101908080359060200190929190505050612994565b6040518082815260200191505060405180910390f35b6000606660009054906101000a900473ffffffffffffffffffffffffffffffffffffffff1673ffffffffffffffffffffffffffffffffffffffff166307fdd08484846040518363ffffffff167c0100000000000000000000000000000000000000000000000000000000028152600401808381526020018281526020019250505060206040518083038186803b158015610b5157600080fd5b505afa158015610b65573d6000803e3d6000fd5b505050506040513d6020811015610b7b57600080fd5b8101908080519060200190929190505050905092915050565b6000606660009054906101000a900473ffffffffffffffffffffffffffffffffffffffff1673ffffffffffffffffffffffffffffffffffffffff166308f44a9b836040518263ffffffff167c01000000000000000000000000000000000000000000000000000000000281526004018082815260200191505060206040518083038186803b158015610c2557600080fd5b505afa158015610c39573d6000803e3d6000fd5b505050506040513d6020811015610c4f57600080fd5b81019080805190602001909291905050509050919050565b6000606660009054906101000a900473ffffffffffffffffffffffffffffffffffffffff1673ffffffffffffffffffffffffffffffffffffffff16636352211e856040518263ffffffff167c01000000000000000000000000000000000000000000000000000000000281526004018082815260200191505060206040518083038186803b158015610cf857600080fd5b505afa158015610d0c573d6000803e3d6000fd5b505050506040513d6020811015610d2257600080fd5b810190808051906020019092919050505090508073ffffffffffffffffffffffffffffffffffffffff163373ffffffffffffffffffffffffffffffffffffffff16141515610dbb576040517f08c379a00000000000000000000000000000000000000000000000000000000081526004018080602001828103825260318152602001806132876031913960400191505060405180910390fd5b8260696000868152602001908152602001600020819055508073ffffffffffffffffffffffffffffffffffffffff167f064a958a66dd0a2cb90c2790e4645b07885c6feb981ba6c117069ce590f872c983868660405180846fffffffffffffffffffffffffffffffff19166fffffffffffffffffffffffffffffffff19168152602001838152602001828152602001935050505060405180910390a250505050565b610e65612085565b1515610e7057600080fd5b600073ffffffffffffffffffffffffffffffffffffffff168173ffffffffffffffffffffffffffffffffffffffff1614151515610f15576040517f08c379a00000000000000000000000000000000000000000000000000000000081526004018080602001828103825260188152602001807f496e76616c6964206164647265737320737570706c696564000000000000000081525060200191505060405180910390fd5b80606760006101000a81548173ffffffffffffffffffffffffffffffffffffffff021916908373ffffffffffffffffffffffffffffffffffffffff16021790555050565b610f61612085565b1515610f6c57600080fd5b600073ffffffffffffffffffffffffffffffffffffffff168173ffffffffffffffffffffffffffffffffffffffff1614151515611011576040517f08c379a00000000000000000000000000000000000000000000000000000000081526004018080602001828103825260188152602001807f496e76616c6964206164647265737320737570706c696564000000000000000081525060200191505060405180910390fd5b80606860006101000a81548173ffffffffffffffffffffffffffffffffffffffff021916908373ffffffffffffffffffffffffffffffffffffffff16021790555050565b606660009054906101000a900473ffffffffffffffffffffffffffffffffffffffff1673ffffffffffffffffffffffffffffffffffffffff166313433b083384846040518463ffffffff167c0100000000000000000000000000000000000000000000000000000000028152600401808473ffffffffffffffffffffffffffffffffffffffff1673ffffffffffffffffffffffffffffffffffffffff168152602001838152602001826fffffffffffffffffffffffffffffffff19166fffffffffffffffffffffffffffffffff191681526020019350505050600060405180830381600087803b15801561114857600080fd5b505af115801561115c573d6000803e3d6000fd5b505050505050565b600a81565b606860009054906101000a900473ffffffffffffffffffffffffffffffffffffffff1673ffffffffffffffffffffffffffffffffffffffff163373ffffffffffffffffffffffffffffffffffffffff16141515611211576040517f08c379a000000000000000000000000000000000000000000000000000000000815260040180806020018281038252602a8152602001806132b8602a913960400191505060405180910390fd5b6000606660009054906101000a900473ffffffffffffffffffffffffffffffffffffffff1673ffffffffffffffffffffffffffffffffffffffff16636352211e856040518263ffffffff167c01000000000000000000000000000000000000000000000000000000000281526004018082815260200191505060206040518083038186803b1580156112a257600080fd5b505afa1580156112b6573d6000803e3d6000fd5b505050506040513d60208110156112cc57600080fd5b810190808051906020019092919050505090506000606660009054906101000a900473ffffffffffffffffffffffffffffffffffffffff1673ffffffffffffffffffffffffffffffffffffffff16636352211e856040518263ffffffff167c01000000000000000000000000000000000000000000000000000000000281526004018082815260200191505060206040518083038186803b15801561137057600080fd5b505afa158015611384573d6000803e3d6000fd5b505050506040513d602081101561139a57600080fd5b810190808051906020019092919050505090508573ffffffffffffffffffffffffffffffffffffffff168273ffffffffffffffffffffffffffffffffffffffff16141515611433576040517f08c379a000000000000000000000000000000000000000000000000000000000815260040180806020018281038252602881526020018061325f6028913960400191505060405180910390fd5b61143d85856129b1565b611448828287612d44565b611453818386612d44565b8073ffffffffffffffffffffffffffffffffffffffff168673ffffffffffffffffffffffffffffffffffffffff167fab76c42200950e9bc1cf717fffe26d20065adfa55a800f6f5df36ab724bc934585888860405180846fffffffffffffffffffffffffffffffff19166fffffffffffffffffffffffffffffffff19168152602001838152602001828152602001935050505060405180910390a3505050505050565b6000606660009054906101000a900473ffffffffffffffffffffffffffffffffffffffff1673ffffffffffffffffffffffffffffffffffffffff166318160ddd6040518163ffffffff167c010000000000000000000000000000000000000000000000000000000002815260040160206040518083038186803b15801561157c57600080fd5b505afa158015611590573d6000803e3d6000fd5b505050506040513d60208110156115a657600080fd5b8101908080519060200190929190505050905090565b60008090505b82518110156116fa57606660009054906101000a900473ffffffffffffffffffffffffffffffffffffffff1673ffffffffffffffffffffffffffffffffffffffff166313433b0833858481518110151561161857fe5b90602001906020020151856040518463ffffffff167c0100000000000000000000000000000000000000000000000000000000028152600401808473ffffffffffffffffffffffffffffffffffffffff1673ffffffffffffffffffffffffffffffffffffffff168152602001838152602001826fffffffffffffffffffffffffffffffff19166fffffffffffffffffffffffffffffffff191681526020019350505050600060405180830381600087803b1580156116d557600080fd5b505af11580156116e9573d6000803e3d6000fd5b5050505080806001019150506115c2565b505050565b6000606660009054906101000a900473ffffffffffffffffffffffffffffffffffffffff1673ffffffffffffffffffffffffffffffffffffffff16636352211e836040518263ffffffff167c01000000000000000000000000000000000000000000000000000000000281526004018082815260200191505060206040518083038186803b15801561179057600080fd5b505afa1580156117a4573d6000803e3d6000fd5b505050506040513d60208110156117ba57600080fd5b81019080805190602001909291905050509050919050565b6000606660009054906101000a900473ffffffffffffffffffffffffffffffffffffffff1673ffffffffffffffffffffffffffffffffffffffff166370a08231836040518263ffffffff167c0100000000000000000000000000000000000000000000000000000000028152600401808273ffffffffffffffffffffffffffffffffffffffff1673ffffffffffffffffffffffffffffffffffffffff16815260200191505060206040518083038186803b15801561188f57600080fd5b505afa1580156118a3573d6000803e3d6000fd5b505050506040513d60208110156118b957600080fd5b81019080805190602001909291905050509050919050565b6118d9612085565b15156118e457600080fd5b600073ffffffffffffffffffffffffffffffffffffffff16603360009054906101000a900473ffffffffffffffffffffffffffffffffffffffff1673ffffffffffffffffffffffffffffffffffffffff167f8be0079c531659141344cd1fd0a4f28419497f9722a3daafe3b4186f6b6457e060405160405180910390a36000603360006101000a81548173ffffffffffffffffffffffffffffffffffffffff021916908373ffffffffffffffffffffffffffffffffffffffff160217905550565b6000606660009054906101000a900473ffffffffffffffffffffffffffffffffffffffff1673ffffffffffffffffffffffffffffffffffffffff16636352211e876040518263ffffffff167c01000000000000000000000000000000000000000000000000000000000281526004018082815260200191505060206040518083038186803b158015611a3657600080fd5b505afa158015611a4a573d6000803e3d6000fd5b505050506040513d6020811015611a6057600080fd5b810190808051906020019092919050505090508073ffffffffffffffffffffffffffffffffffffffff163373ffffffffffffffffffffffffffffffffffffffff16141515611af9576040517f08c379a00000000000000000000000000000000000000000000000000000000081526004018080602001828103825260318152602001806132876031913960400191505060405180910390fd5b606a60008781526020019081526020016000206000611b189190613218565b606b60008781526020019081526020016000206000611b379190613218565b606c60008781526020019081526020016000206000611b569190613218565b60008086519050600091505b80821015611bcb57606a60008981526020019081526020016000208783815181101515611b8b57fe5b9060200190602002015190806001815401808255809150509060018203906000526020600020016000909192909190915055508180600101925050611b62565b85519050600091505b80821015611c3d57606b60008981526020019081526020016000208683815181101515611bfd57fe5b9060200190602002015190806001815401808255809150509060018203906000526020600020016000909192909190915055508180600101925050611bd4565b84519050600091505b80821015611caf57606c60008981526020019081526020016000208583815181101515611c6f57fe5b9060200190602002015190806001815401808255809150509060018203906000526020600020016000909192909190915055508180600101925050611c46565b8273ffffffffffffffffffffffffffffffffffffffff167f259f65d2176922e47507015704cbfc3022e319385d7b5cc7128abd8f44a59cc2858a8a8a8a60405180866fffffffffffffffffffffffffffffffff19166fffffffffffffffffffffffffffffffff19168152602001858152602001806020018060200180602001848103845287818151815260200191508051906020019060200280838360005b83811015611d69578082015181840152602081019050611d4e565b50505050905001848103835286818151815260200191508051906020019060200280838360005b83811015611dab578082015181840152602081019050611d90565b50505050905001848103825285818151815260200191508051906020019060200280838360005b83811015611ded578082015181840152602081019050611dd2565b505050509050019850505050505050505060405180910390a25050505050505050565b6000606660009054906101000a900473ffffffffffffffffffffffffffffffffffffffff1673ffffffffffffffffffffffffffffffffffffffff16638829b04f3385856040518463ffffffff167c0100000000000000000000000000000000000000000000000000000000028152600401808473ffffffffffffffffffffffffffffffffffffffff1673ffffffffffffffffffffffffffffffffffffffff168152602001838152602001826fffffffffffffffffffffffffffffffff19166fffffffffffffffffffffffffffffffff191681526020019350505050602060405180830381600087803b158015611f0557600080fd5b505af1158015611f19573d6000803e3d6000fd5b505050506040513d6020811015611f2f57600080fd5b81019080805190602001909291905050509050611f4b83612e63565b606760009054906101000a900473ffffffffffffffffffffffffffffffffffffffff1673ffffffffffffffffffffffffffffffffffffffff1663707208d63367016345785d8a000084026040518363ffffffff167c0100000000000000000000000000000000000000000000000000000000028152600401808373ffffffffffffffffffffffffffffffffffffffff1673ffffffffffffffffffffffffffffffffffffffff16815260200182815260200192505050602060405180830381600087803b15801561201a57600080fd5b505af115801561202e573d6000803e3d6000fd5b505050506040513d602081101561204457600080fd5b810190808051906020019092919050505050505050565b6000603360009054906101000a900473ffffffffffffffffffffffffffffffffffffffff16905090565b6000603360009054906101000a900473ffffffffffffffffffffffffffffffffffffffff1673ffffffffffffffffffffffffffffffffffffffff163373ffffffffffffffffffffffffffffffffffffffff1614905090565b600080606660009054906101000a900473ffffffffffffffffffffffffffffffffffffffff1673ffffffffffffffffffffffffffffffffffffffff1663b0fbf9ca33888888886040518663ffffffff167c0100000000000000000000000000000000000000000000000000000000028152600401808673ffffffffffffffffffffffffffffffffffffffff1673ffffffffffffffffffffffffffffffffffffffff168152602001858152602001848152602001838152602001826fffffffffffffffffffffffffffffffff19166fffffffffffffffffffffffffffffffff1916815260200195505050505050602060405180830381600087803b1580156121e357600080fd5b505af11580156121f7573d6000803e3d6000fd5b505050506040513d602081101561220d57600080fd5b8101908080519060200190929190505050905061222986612e63565b61223285612e63565b80915050949350505050565b600060019054906101000a900460ff168061225d575061225c612edc565b5b8061227457506000809054906101000a900460ff16155b15156122cb576040517f08c379a000000000000000000000000000000000000000000000000000000000815260040180806020018281038252602e815260200180613303602e913960400191505060405180910390fd5b60008060019054906101000a900460ff16159050801561231b576001600060016101000a81548160ff02191690831515021790555060016000806101000a81548160ff0219169083151502179055505b61232482612eed565b80156123455760008060016101000a81548160ff0219169083151502179055505b5050565b6000606860009054906101000a900473ffffffffffffffffffffffffffffffffffffffff1673ffffffffffffffffffffffffffffffffffffffff163373ffffffffffffffffffffffffffffffffffffffff161415156123f3576040517f08c379a000000000000000000000000000000000000000000000000000000000815260040180806020018281038252602a8152602001806132b8602a913960400191505060405180910390fd5b6000606660009054906101000a900473ffffffffffffffffffffffffffffffffffffffff1673ffffffffffffffffffffffffffffffffffffffff16636352211e866040518263ffffffff167c01000000000000000000000000000000000000000000000000000000000281526004018082815260200191505060206040518083038186803b15801561248457600080fd5b505afa158015612498573d6000803e3d6000fd5b505050506040513d60208110156124ae57600080fd5b810190808051906020019092919050505090508073ffffffffffffffffffffffffffffffffffffffff168673ffffffffffffffffffffffffffffffffffffffff16141515612547576040517f08c379a00000000000000000000000000000000000000000000000000000000081526004018080602001828103825260318152602001806132876031913960400191505060405180910390fd5b600073ffffffffffffffffffffffffffffffffffffffff168773ffffffffffffffffffffffffffffffffffffffff16141580156125b057508073ffffffffffffffffffffffffffffffffffffffff168773ffffffffffffffffffffffffffffffffffffffff1614155b1515612607576040517f08c379a00000000000000000000000000000000000000000000000000000000081526004018080602001828103825260218152602001806132e26021913960400191505060405180910390fd5b600060696000878152602001908152602001600020549050600081111515612697576040517f08c379a00000000000000000000000000000000000000000000000000000000081526004018080602001828103825260148152602001807f43617264206973206e6f7420666f722073616c6500000000000000000000000081525060200191505060405180910390fd5b8085101515156126f2576040517f08c379a00000000000000000000000000000000000000000000000000000000081526004018080602001828103825260298152602001806133316029913960400191505060405180910390fd5b6126fd828988612d44565b8773ffffffffffffffffffffffffffffffffffffffff168273ffffffffffffffffffffffffffffffffffffffff167fc9115e7044acb140190b8ea9be0f71262681887fa69611b0a1dc30269e2cfbd886898560405180846fffffffffffffffffffffffffffffffff19166fffffffffffffffffffffffffffffffff19168152602001838152602001828152602001935050505060405180910390a3809250505095945050505050565b6127ae612085565b15156127b957600080fd5b600073ffffffffffffffffffffffffffffffffffffffff168173ffffffffffffffffffffffffffffffffffffffff161415151561285e576040517f08c379a00000000000000000000000000000000000000000000000000000000081526004018080602001828103825260188152602001807f496e76616c6964206164647265737320737570706c696564000000000000000081525060200191505060405180910390fd5b80606660006101000a81548173ffffffffffffffffffffffffffffffffffffffff021916908373ffffffffffffffffffffffffffffffffffffffff16021790555050565b6000606660009054906101000a900473ffffffffffffffffffffffffffffffffffffffff1673ffffffffffffffffffffffffffffffffffffffff1663f2a40a23836040518263ffffffff167c01000000000000000000000000000000000000000000000000000000000281526004018082815260200191505060206040518083038186803b15801561293357600080fd5b505afa158015612947573d6000803e3d6000fd5b505050506040513d602081101561295d57600080fd5b81019080805190602001909291905050509050919050565b61297d612085565b151561298857600080fd5b612991816130ad565b50565b600060696000838152602001908152602001600020549050919050565b6000806000606660009054906101000a900473ffffffffffffffffffffffffffffffffffffffff1673ffffffffffffffffffffffffffffffffffffffff1663aaad472a866040518263ffffffff167c01000000000000000000000000000000000000000000000000000000000281526004018082815260200191505060606040518083038186803b158015612a4557600080fd5b505afa158015612a59573d6000803e3d6000fd5b505050506040513d6060811015612a6f57600080fd5b81019080805190602001909291908051906020019092919080519060200190929190505050925092509250612b07606a6000868152602001908152602001600020805480602002602001604051908101604052809291908181526020018280548015612afa57602002820191906000526020600020905b815481526020019060010190808311612ae6575b50505050508260006131a9565b1515612b7b576040517f08c379a00000000000000000000000000000000000000000000000000000000081526004018080602001828103825260168152602001807f496e76616c69642052616e6b20666f722054726164650000000000000000000081525060200191505060405180910390fd5b612be8606b6000868152602001908152602001600020805480602002602001604051908101604052809291908181526020018280548015612bdb57602002820191906000526020600020905b815481526020019060010190808311612bc7575b50505050508360016131a9565b1515612c5c576040517f08c379a000000000000000000000000000000000000000000000000000000000815260040180806020018281038252601c8152602001807f496e76616c69642047656e65726174696f6e20666f722054726164650000000081525060200191505060405180910390fd5b612cc9606c6000868152602001908152602001600020805480602002602001604051908101604052809291908181526020018280548015612cbc57602002820191906000526020600020905b815481526020019060010190808311612ca8575b50505050508460016131a9565b1515612d3d576040517f08c379a00000000000000000000000000000000000000000000000000000000081526004018080602001828103825260168152602001807f496e76616c6964205965617220666f722054726164650000000000000000000081525060200191505060405180910390fd5b5050505050565b612d4d81612e63565b606660009054906101000a900473ffffffffffffffffffffffffffffffffffffffff1673ffffffffffffffffffffffffffffffffffffffff166315eaef6b8484846040518463ffffffff167c0100000000000000000000000000000000000000000000000000000000028152600401808473ffffffffffffffffffffffffffffffffffffffff1673ffffffffffffffffffffffffffffffffffffffff1681526020018373ffffffffffffffffffffffffffffffffffffffff1673ffffffffffffffffffffffffffffffffffffffff1681526020018281526020019350505050600060405180830381600087803b158015612e4657600080fd5b505af1158015612e5a573d6000803e3d6000fd5b50505050505050565b606a60008281526020019081526020016000206000612e829190613218565b606b60008281526020019081526020016000206000612ea19190613218565b606c60008281526020019081526020016000206000612ec09190613218565b6000606960008381526020019081526020016000208190555050565b600080303b90506000811491505090565b600060019054906101000a900460ff1680612f0c5750612f0b612edc565b5b80612f2357506000809054906101000a900460ff16155b1515612f7a576040517f08c379a000000000000000000000000000000000000000000000000000000000815260040180806020018281038252602e815260200180613303602e913960400191505060405180910390fd5b60008060019054906101000a900460ff161590508015612fca576001600060016101000a81548160ff02191690831515021790555060016000806101000a81548160ff0219169083151502179055505b81603360006101000a81548173ffffffffffffffffffffffffffffffffffffffff021916908373ffffffffffffffffffffffffffffffffffffffff160217905550603360009054906101000a900473ffffffffffffffffffffffffffffffffffffffff1673ffffffffffffffffffffffffffffffffffffffff16600073ffffffffffffffffffffffffffffffffffffffff167f8be0079c531659141344cd1fd0a4f28419497f9722a3daafe3b4186f6b6457e060405160405180910390a380156130a95760008060016101000a81548160ff0219169083151502179055505b5050565b600073ffffffffffffffffffffffffffffffffffffffff168173ffffffffffffffffffffffffffffffffffffffff16141515156130e957600080fd5b8073ffffffffffffffffffffffffffffffffffffffff16603360009054906101000a900473ffffffffffffffffffffffffffffffffffffffff1673ffffffffffffffffffffffffffffffffffffffff167f8be0079c531659141344cd1fd0a4f28419497f9722a3daafe3b4186f6b6457e060405160405180910390a380603360006101000a81548173ffffffffffffffffffffffffffffffffffffffff021916908373ffffffffffffffffffffffffffffffffffffffff16021790555050565b6000808451905060008114156131c25782915050613211565b600080905060008090505b8281101561320a578587828151811015156131e457fe5b9060200190602002015114156131fd576001915061320a565b80806001019150506131cd565b5080925050505b9392505050565b50805460008255906000526020600020908101906132369190613239565b50565b61325b91905b8082111561325757600081600090555060010161323f565b5090565b9056fe6f776e657220737570706c696564206973206e6f74207265616c206f776e6572206f662063617264496e76616c6964206f776e657220737570706c696564206f72206f776e6572206973206e6f7420636172642d6f776e6572416374696f6e206f6e6c7920616c6c6f77656420627920436f6e74726f6c6c657220636f6e7472616374496e76616c6964207265636569766572206164647265737320737570706c696564436f6e747261637420696e7374616e63652068617320616c7265616479206265656e20696e697469616c697a6564436172642070726963652069732067726561746572207468616e207468652070726963652070616964a165627a7a7230582003001dc50f10a083b5d9e5b6a45e16229e5a1ec5ecdedd0fa2a031e850635fe40029",
  "source": "/**\n * Phat Cats - Crypto-Cards\n *  - https://crypto-cards.io\n *  - https://phatcats.co\n *\n * Copyright 2019 (c) Phat Cats, Inc.\n */\n\npragma solidity 0.5.2;\n\nimport \"zos-lib/contracts/Initializable.sol\";\nimport \"openzeppelin-eth/contracts/ownership/Ownable.sol\";\n\nimport \"./CryptoCardsCardToken.sol\";\nimport \"./CryptoCardsGum.sol\";\n\n\n//\n// NOTE on Ownable:\n//   Owner Account is attached to a Multi-Sig wallet controlled by a minimum of 3 C-Level Executives.\n//\n\ncontract CryptoCardsCards is Initializable, Ownable {\n    uint public constant MAX_TRADE_RANKS = 10;\n\n    //\n    // Storage\n    //\n    CryptoCardsCardToken internal _cardToken;\n    CryptoCardsGum internal _gum;\n\n    // Contract Reference Addresses\n    address internal _controller;\n\n    // Mapping from token ID to sell-value\n    mapping(uint256 => uint256) internal _cardSalePriceById;\n\n    // Mapping from Token ID to Allowed Trade Values\n    mapping(uint256 => uint256[]) internal _cardAllowedTradeRanks;\n    mapping(uint256 => uint256[]) internal _cardAllowedTradeGens;\n    mapping(uint256 => uint256[]) internal _cardAllowedTradeYears;\n\n    //\n    // Events\n    //\n    event CardPriceSet      (address indexed owner, bytes16 uuid, uint256 cardId, uint256 price);\n    event CardTradeValueSet (address indexed owner, bytes16 uuid, uint256 cardId, uint256[] cardRanks, uint256[] cardGens, uint256[] cardYears);\n    event CardSale          (address indexed owner, address indexed receiver, bytes16 uuid, uint256 cardId, uint256 price);\n    event CardTrade         (address indexed owner, address indexed receiver, bytes16 uuid, uint256 ownerCardId, uint256 tradeCardId);\n\n    //\n    // Modifiers\n    //\n    modifier onlyController() {\n        require(msg.sender == _controller, \"Action only allowed by Controller contract\");\n        _;\n    }\n\n    //\n    // Initialize\n    //\n    function initialize(address owner) public initializer {\n        Ownable.initialize(owner);\n    }\n\n    //\n    // Public\n    //\n\n    function totalMintedCards() public view returns (uint256) {\n        return _cardToken.totalSupply();\n    }\n\n    function balanceOf(address owner) public view returns (uint256) {\n        return _cardToken.balanceOf(owner);\n    }\n\n    function ownerOf(uint256 tokenId) public view returns (address) {\n        return _cardToken.ownerOf(tokenId);\n    }\n\n    function getTotalIssued(uint256 tokenId) public view returns (uint) {\n        return _cardToken.getTotalIssued(tokenId);\n    }\n\n    function getSalePrice(uint256 tokenId) public view returns (uint256) {\n        return _cardSalePriceById[tokenId];\n    }\n\n    function isTokenPrinted(uint256 tokenId) public view returns (bool) {\n        return _cardToken.isTokenPrinted(tokenId);\n    }\n\n    function canCombine(uint256 tokenA, uint256 tokenB) public view returns (bool) {\n        return _cardToken.canCombine(tokenA, tokenB);\n    }\n\n    function combineCards(uint256 tokenA, uint256 tokenB, uint newIssue, bytes16 uuid) public returns (uint256) {\n        uint256 newTokenId = _cardToken.combineFor(msg.sender, tokenA, tokenB, newIssue, uuid);\n        _resetCardValue(tokenA);\n        _resetCardValue(tokenB);\n        return newTokenId;\n    }\n\n    function meltCard(uint256 tokenId, bytes16 uuid) public {\n        uint wrappedGum = _cardToken.meltFor(msg.sender, tokenId, uuid);\n        _resetCardValue(tokenId);\n        _gum.transferCardGum(msg.sender, wrappedGum * (10**17));\n    }\n\n    function printCard(uint256 tokenId, bytes16 uuid) public {\n        _cardToken.printFor(msg.sender, tokenId, uuid);\n    }\n\n    function printCards(uint256[] memory cardIds, bytes16 uuid) public {\n        for (uint i = 0; i < cardIds.length; i++) {\n            _cardToken.printFor(msg.sender, cardIds[i], uuid);\n        }\n    }\n\n    function updateCardPrice(uint256 cardId, uint256 cardPrice, bytes16 uuid) public {\n        address cardOwner = _cardToken.ownerOf(cardId); // will revert if owner == address(0)\n        require(msg.sender == cardOwner, \"Invalid owner supplied or owner is not card-owner\");\n        _cardSalePriceById[cardId] = cardPrice;\n        emit CardPriceSet(cardOwner, uuid, cardId, cardPrice);\n    }\n\n    function updateCardTradeValue(uint256 cardId, uint256[] memory cardRanks, uint256[] memory cardGens, uint256[] memory cardYears, bytes16 uuid) public {\n        address cardOwner = _cardToken.ownerOf(cardId); // will revert if owner == address(0)\n        require(msg.sender == cardOwner, \"Invalid owner supplied or owner is not card-owner\");\n\n        delete _cardAllowedTradeRanks[cardId];\n        delete _cardAllowedTradeGens[cardId];\n        delete _cardAllowedTradeYears[cardId];\n\n        uint i;\n        uint n = cardRanks.length;\n        for (i = 0; i < n; i++) {\n            _cardAllowedTradeRanks[cardId].push(cardRanks[i]);\n        }\n        n = cardGens.length;\n        for (i = 0; i < n; i++) {\n            _cardAllowedTradeGens[cardId].push(cardGens[i]);\n        }\n        n = cardYears.length;\n        for (i = 0; i < n; i++) {\n            _cardAllowedTradeYears[cardId].push(cardYears[i]);\n        }\n\n        emit CardTradeValueSet(cardOwner, uuid, cardId, cardRanks, cardGens, cardYears);\n    }\n\n    //\n    // Only Owner\n    //\n\n    function setContractController(address controller) public onlyOwner {\n        require(controller != address(0), \"Invalid address supplied\");\n        _controller = controller;\n    }\n\n    function setGumAddress(CryptoCardsGum gum) public onlyOwner {\n        require(address(gum) != address(0), \"Invalid address supplied\");\n        _gum = gum;\n    }\n\n    function setCryptoCardsCardToken(CryptoCardsCardToken token) public onlyOwner {\n        require(address(token) != address(0), \"Invalid address supplied\");\n        _cardToken = token;\n    }\n\n    //\n    // Only Controller Contract\n    //\n\n    function transferCardForBuyer(address receiver, address owner, uint256 cardId, uint256 pricePaid, bytes16 uuid)\n        public\n        onlyController\n        returns (uint256)\n    {\n        address cardOwner = _cardToken.ownerOf(cardId); // will revert if owner == address(0)\n        require(owner == cardOwner, \"Invalid owner supplied or owner is not card-owner\");\n        require(receiver != address(0) && receiver != cardOwner, \"Invalid receiver address supplied\");\n\n        uint256 cardPrice = _cardSalePriceById[cardId];\n        require(cardPrice > 0, \"Card is not for sale\");\n        require(pricePaid >= cardPrice, \"Card price is greater than the price paid\");\n\n        _transferCard(cardOwner, receiver, cardId);\n\n        emit CardSale(cardOwner, receiver, uuid, cardId, cardPrice);\n\n        return cardPrice;\n    }\n\n    function tradeCardForCard(address owner, uint256 ownerCardId, uint256 desiredCardId, bytes16 uuid)\n        public\n        onlyController\n    {\n        address ownerCardRealOwner = _cardToken.ownerOf(ownerCardId); // will revert if owner == address(0)\n        address desiredCardRealOwner = _cardToken.ownerOf(desiredCardId); // will revert if owner == address(0)\n        require(ownerCardRealOwner == owner, \"owner supplied is not real owner of card\");\n\n        // Validate Trade\n        _validateTradeValue(ownerCardId, desiredCardId);\n\n        // Trade Cards\n        _transferCard(ownerCardRealOwner, desiredCardRealOwner, ownerCardId); // initiator gives first\n        _transferCard(desiredCardRealOwner, ownerCardRealOwner, desiredCardId);\n\n        emit CardTrade(owner, desiredCardRealOwner, uuid, ownerCardId, desiredCardId);\n    }\n\n    //\n    // Private\n    //\n\n    function _transferCard(address from, address to, uint256 cardId) internal {\n        _resetCardValue(cardId);\n        _cardToken.tokenTransfer(from, to, cardId);\n    }\n\n    function _resetCardValue(uint256 cardId) internal {\n        delete _cardAllowedTradeRanks[cardId];\n        delete _cardAllowedTradeGens[cardId];\n        delete _cardAllowedTradeYears[cardId];\n        _cardSalePriceById[cardId] = 0;\n    }\n\n    function _validateTradeValue(uint256 ownerCardId, uint256 desiredCardId) internal view {\n        (uint oY, uint oG, uint oR) = _cardToken.getTypeIndicators(ownerCardId);\n\n        require(_isValidTradeValue(_cardAllowedTradeRanks[desiredCardId], oR, false), \"Invalid Rank for Trade\");\n        require(_isValidTradeValue(_cardAllowedTradeGens[desiredCardId], oG, true), \"Invalid Generation for Trade\");\n        require(_isValidTradeValue(_cardAllowedTradeYears[desiredCardId], oY, true), \"Invalid Year for Trade\");\n    }\n\n    function _isValidTradeValue(uint256[] memory allowedTradeValues, uint tradeValue, bool allowAny) internal pure returns (bool) {\n        uint n = allowedTradeValues.length;\n        if (n == 0) { return allowAny; }\n\n        bool isValid = false;\n        for (uint i = 0; i < n; i++) {\n            if (allowedTradeValues[i] == uint256(tradeValue)) {\n                isValid = true;\n                break;\n            }\n        }\n        return isValid;\n    }\n}\n",
  "sourcePath": "/Users/robsecord/workspace/Ethereum/CryptoCards/cryptocards_contracts/contracts/CryptoCardsCards.sol",
  "compiler": {
    "name": "solc",
    "version": "0.5.2+commit.1df8f40c.Emscripten.clang"
  },
  "schemaVersion": "3.0.11",
  "updatedAt": "2019-10-03T03:28:19.924Z",
  "devdoc": {
    "methods": {
      "isOwner()": {
        "return": "true if `msg.sender` is the owner of the contract."
      },
      "owner()": {
        "return": "the address of the owner."
      },
      "renounceOwnership()": {
        "details": "Allows the current owner to relinquish control of the contract. It will not be possible to call the functions with the `onlyOwner` modifier anymore."
      },
      "transferOwnership(address)": {
        "details": "Allows the current owner to transfer control of the contract to a newOwner.",
        "params": {
          "newOwner": "The address to transfer ownership to."
        }
      }
    }
  },
  "userdoc": {
    "methods": {
      "renounceOwnership()": {
        "notice": "Renouncing ownership will leave the contract without an owner, thereby removing any functionality that is only available to the owner."
      }
    }
  }
}