{
  "contractName": "CryptoCardsController",
  "abi": [
    {
      "constant": false,
      "inputs": [],
      "name": "unpause",
      "outputs": [],
      "payable": false,
      "stateMutability": "nonpayable",
      "type": "function"
    },
    {
      "constant": true,
      "inputs": [
        {
          "name": "account",
          "type": "address"
        }
      ],
      "name": "isPauser",
      "outputs": [
        {
          "name": "",
          "type": "bool"
        }
      ],
      "payable": false,
      "stateMutability": "view",
      "type": "function"
    },
    {
      "constant": true,
      "inputs": [],
      "name": "paused",
      "outputs": [
        {
          "name": "",
          "type": "bool"
        }
      ],
      "payable": false,
      "stateMutability": "view",
      "type": "function"
    },
    {
      "constant": false,
      "inputs": [],
      "name": "renouncePauser",
      "outputs": [],
      "payable": false,
      "stateMutability": "nonpayable",
      "type": "function"
    },
    {
      "constant": false,
      "inputs": [],
      "name": "renounceOwnership",
      "outputs": [],
      "payable": false,
      "stateMutability": "nonpayable",
      "type": "function"
    },
    {
      "constant": false,
      "inputs": [
        {
          "name": "account",
          "type": "address"
        }
      ],
      "name": "addPauser",
      "outputs": [],
      "payable": false,
      "stateMutability": "nonpayable",
      "type": "function"
    },
    {
      "constant": false,
      "inputs": [],
      "name": "pause",
      "outputs": [],
      "payable": false,
      "stateMutability": "nonpayable",
      "type": "function"
    },
    {
      "constant": true,
      "inputs": [],
      "name": "owner",
      "outputs": [
        {
          "name": "",
          "type": "address"
        }
      ],
      "payable": false,
      "stateMutability": "view",
      "type": "function"
    },
    {
      "constant": true,
      "inputs": [],
      "name": "isOwner",
      "outputs": [
        {
          "name": "",
          "type": "bool"
        }
      ],
      "payable": false,
      "stateMutability": "view",
      "type": "function"
    },
    {
      "constant": false,
      "inputs": [
        {
          "name": "newOwner",
          "type": "address"
        }
      ],
      "name": "transferOwnership",
      "outputs": [],
      "payable": false,
      "stateMutability": "nonpayable",
      "type": "function"
    },
    {
      "anonymous": false,
      "inputs": [
        {
          "indexed": true,
          "name": "receiver",
          "type": "address"
        },
        {
          "indexed": false,
          "name": "uuid",
          "type": "bytes16"
        },
        {
          "indexed": false,
          "name": "pricePaid",
          "type": "uint256"
        },
        {
          "indexed": false,
          "name": "referredBy",
          "type": "address"
        },
        {
          "indexed": false,
          "name": "promoCode",
          "type": "uint256"
        }
      ],
      "name": "BuyNewPack",
      "type": "event"
    },
    {
      "anonymous": false,
      "inputs": [
        {
          "indexed": false,
          "name": "account",
          "type": "address"
        }
      ],
      "name": "Paused",
      "type": "event"
    },
    {
      "anonymous": false,
      "inputs": [
        {
          "indexed": false,
          "name": "account",
          "type": "address"
        }
      ],
      "name": "Unpaused",
      "type": "event"
    },
    {
      "anonymous": false,
      "inputs": [
        {
          "indexed": true,
          "name": "account",
          "type": "address"
        }
      ],
      "name": "PauserAdded",
      "type": "event"
    },
    {
      "anonymous": false,
      "inputs": [
        {
          "indexed": true,
          "name": "account",
          "type": "address"
        }
      ],
      "name": "PauserRemoved",
      "type": "event"
    },
    {
      "anonymous": false,
      "inputs": [
        {
          "indexed": true,
          "name": "previousOwner",
          "type": "address"
        },
        {
          "indexed": true,
          "name": "newOwner",
          "type": "address"
        }
      ],
      "name": "OwnershipTransferred",
      "type": "event"
    },
    {
      "constant": false,
      "inputs": [],
      "name": "initialize",
      "outputs": [],
      "payable": false,
      "stateMutability": "nonpayable",
      "type": "function"
    },
    {
      "constant": false,
      "inputs": [
        {
          "name": "owner",
          "type": "address"
        }
      ],
      "name": "initialize",
      "outputs": [],
      "payable": false,
      "stateMutability": "nonpayable",
      "type": "function"
    },
    {
      "constant": true,
      "inputs": [],
      "name": "getVersion",
      "outputs": [
        {
          "name": "",
          "type": "string"
        }
      ],
      "payable": false,
      "stateMutability": "pure",
      "type": "function"
    },
    {
      "constant": false,
      "inputs": [
        {
          "name": "referredBy",
          "type": "address"
        },
        {
          "name": "promoCode",
          "type": "uint256"
        },
        {
          "name": "uuid",
          "type": "bytes16"
        }
      ],
      "name": "buyPackOfCards",
      "outputs": [],
      "payable": true,
      "stateMutability": "payable",
      "type": "function"
    },
    {
      "constant": false,
      "inputs": [
        {
          "name": "owner",
          "type": "address"
        },
        {
          "name": "packId",
          "type": "uint256"
        },
        {
          "name": "uuid",
          "type": "bytes16"
        }
      ],
      "name": "buyPackFromOwner",
      "outputs": [],
      "payable": true,
      "stateMutability": "payable",
      "type": "function"
    },
    {
      "constant": false,
      "inputs": [
        {
          "name": "cardOwner",
          "type": "address"
        },
        {
          "name": "cardId",
          "type": "uint256"
        },
        {
          "name": "uuid",
          "type": "bytes16"
        }
      ],
      "name": "buyCardFromOwner",
      "outputs": [],
      "payable": true,
      "stateMutability": "payable",
      "type": "function"
    },
    {
      "constant": false,
      "inputs": [
        {
          "name": "owner",
          "type": "address"
        },
        {
          "name": "ownerCardId",
          "type": "uint256"
        },
        {
          "name": "tradeCardId",
          "type": "uint256"
        },
        {
          "name": "uuid",
          "type": "bytes16"
        }
      ],
      "name": "tradeCardForCard",
      "outputs": [],
      "payable": false,
      "stateMutability": "nonpayable",
      "type": "function"
    },
    {
      "constant": false,
      "inputs": [
        {
          "name": "oracle",
          "type": "address"
        },
        {
          "name": "cards",
          "type": "address"
        },
        {
          "name": "packs",
          "type": "address"
        },
        {
          "name": "treasury",
          "type": "address"
        },
        {
          "name": "lib",
          "type": "address"
        }
      ],
      "name": "setContractAddresses",
      "outputs": [],
      "payable": false,
      "stateMutability": "nonpayable",
      "type": "function"
    }
  ],
  "bytecode": "0x608060405234801561001057600080fd5b50612b50806100206000396000f3fe608060405260043610610126576000357c01000000000000000000000000000000000000000000000000000000009004806382dc1ec4116100b2578063afc2f74011610081578063afc2f7401461048a578063c4d66de8146104f5578063d8373fe814610546578063e847ae1e146105b1578063f2fde38b1461068257610126565b806382dc1ec41461039c5780638456cb59146103ed5780638da5cb5b146104045780638f32d59b1461045b57610126565b80635c975abb116100f95780635c975abb146102bd57806367bdd8ad146102ec5780636ef8d66d14610357578063715018a61461036e5780638129fc1c1461038557610126565b80630d8e6e2c1461012b5780633f4ba83a146101bb57806346fbf68e146101d2578063493d9f981461023b575b600080fd5b34801561013757600080fd5b506101406106d3565b6040518080602001828103825283818151815260200191508051906020019080838360005b83811015610180578082015181840152602081019050610165565b50505050905090810190601f1680156101ad5780820380516001836020036101000a031916815260200191505b509250505060405180910390f35b3480156101c757600080fd5b506101d0610710565b005b3480156101de57600080fd5b50610221600480360360208110156101f557600080fd5b81019080803573ffffffffffffffffffffffffffffffffffffffff1690602001909291905050506107bf565b604051808215151515815260200191505060405180910390f35b34801561024757600080fd5b506102bb6004803603608081101561025e57600080fd5b81019080803573ffffffffffffffffffffffffffffffffffffffff169060200190929190803590602001909291908035906020019092919080356fffffffffffffffffffffffffffffffff191690602001909291905050506107dc565b005b3480156102c957600080fd5b506102d2610a17565b604051808215151515815260200191505060405180910390f35b6103556004803603606081101561030257600080fd5b81019080803573ffffffffffffffffffffffffffffffffffffffff1690602001909291908035906020019092919080356fffffffffffffffffffffffffffffffff19169060200190929190505050610a2e565b005b34801561036357600080fd5b5061036c610d6a565b005b34801561037a57600080fd5b50610383610d75565b005b34801561039157600080fd5b5061039a610e49565b005b3480156103a857600080fd5b506103eb600480360360208110156103bf57600080fd5b81019080803573ffffffffffffffffffffffffffffffffffffffff169060200190929190505050610f52565b005b3480156103f957600080fd5b50610402610f72565b005b34801561041057600080fd5b50610419611022565b604051808273ffffffffffffffffffffffffffffffffffffffff1673ffffffffffffffffffffffffffffffffffffffff16815260200191505060405180910390f35b34801561046757600080fd5b5061047061104c565b604051808215151515815260200191505060405180910390f35b6104f3600480360360608110156104a057600080fd5b81019080803573ffffffffffffffffffffffffffffffffffffffff1690602001909291908035906020019092919080356fffffffffffffffffffffffffffffffff191690602001909291905050506110a4565b005b34801561050157600080fd5b506105446004803603602081101561051857600080fd5b81019080803573ffffffffffffffffffffffffffffffffffffffff169060200190929190505050611a3c565b005b6105af6004803603606081101561055c57600080fd5b81019080803573ffffffffffffffffffffffffffffffffffffffff1690602001909291908035906020019092919080356fffffffffffffffffffffffffffffffff19169060200190929190505050611b50565b005b3480156105bd57600080fd5b50610680600480360360a08110156105d457600080fd5b81019080803573ffffffffffffffffffffffffffffffffffffffff169060200190929190803573ffffffffffffffffffffffffffffffffffffffff169060200190929190803573ffffffffffffffffffffffffffffffffffffffff169060200190929190803573ffffffffffffffffffffffffffffffffffffffff169060200190929190803573ffffffffffffffffffffffffffffffffffffffff169060200190929190505050611e86565b005b34801561068e57600080fd5b506106d1600480360360208110156106a557600080fd5b81019080803573ffffffffffffffffffffffffffffffffffffffff169060200190929190505050612322565b005b60606040805190810160405280600681526020017f76322e322e310000000000000000000000000000000000000000000000000000815250905090565b610719336107bf565b151561072457600080fd5b609960009054906101000a900460ff16151561073f57600080fd5b6000609960006101000a81548160ff0219169083151502179055507f5db9ee0a495bf2e6ff9c91a7834c1ba4fdd244a5e8aa4e537bd38aeae4b073aa33604051808273ffffffffffffffffffffffffffffffffffffffff1673ffffffffffffffffffffffffffffffffffffffff16815260200191505060405180910390a1565b60006107d582606661234190919063ffffffff16565b9050919050565b600160cc60008282540192505081905550600060cc549050609960009054906101000a900460ff1615151561081057600080fd5b600073ffffffffffffffffffffffffffffffffffffffff168573ffffffffffffffffffffffffffffffffffffffff161415801561087857508473ffffffffffffffffffffffffffffffffffffffff163373ffffffffffffffffffffffffffffffffffffffff16145b15156108ec576040517f08c379a000000000000000000000000000000000000000000000000000000000815260040180806020018281038252600d8152602001807f496e76616c6964206f776e65720000000000000000000000000000000000000081525060200191505060405180910390fd5b61010260009054906101000a900473ffffffffffffffffffffffffffffffffffffffff1673ffffffffffffffffffffffffffffffffffffffff1663493d9f98868686866040518563ffffffff167c0100000000000000000000000000000000000000000000000000000000028152600401808573ffffffffffffffffffffffffffffffffffffffff1673ffffffffffffffffffffffffffffffffffffffff168152602001848152602001838152602001826fffffffffffffffffffffffffffffffff19166fffffffffffffffffffffffffffffffff19168152602001945050505050600060405180830381600087803b1580156109e857600080fd5b505af11580156109fc573d6000803e3d6000fd5b5050505060cc5481141515610a1057600080fd5b5050505050565b6000609960009054906101000a900460ff16905090565b600160cc60008282540192505081905550600060cc549050609960009054906101000a900460ff16151515610a6257600080fd5b600073ffffffffffffffffffffffffffffffffffffffff168473ffffffffffffffffffffffffffffffffffffffff1614158015610acb57508373ffffffffffffffffffffffffffffffffffffffff163373ffffffffffffffffffffffffffffffffffffffff1614155b1515610b3f576040517f08c379a00000000000000000000000000000000000000000000000000000000081526004018080602001828103825260128152602001807f496e76616c69642063617264206f776e6572000000000000000000000000000081525060200191505060405180910390fd5b60008490506000349050600061010260009054906101000a900473ffffffffffffffffffffffffffffffffffffffff1673ffffffffffffffffffffffffffffffffffffffff1663d80d6aa3338989868a6040518663ffffffff167c0100000000000000000000000000000000000000000000000000000000028152600401808673ffffffffffffffffffffffffffffffffffffffff1673ffffffffffffffffffffffffffffffffffffffff1681526020018573ffffffffffffffffffffffffffffffffffffffff1673ffffffffffffffffffffffffffffffffffffffff168152602001848152602001838152602001826fffffffffffffffffffffffffffffffff19166fffffffffffffffffffffffffffffffff1916815260200195505050505050602060405180830381600087803b158015610c7b57600080fd5b505af1158015610c8f573d6000803e3d6000fd5b505050506040513d6020811015610ca557600080fd5b810190808051906020019092919050505090508273ffffffffffffffffffffffffffffffffffffffff166108fc829081150290604051600060405180830381858888f19350505050158015610cfe573d6000803e3d6000fd5b5080821115610d51573373ffffffffffffffffffffffffffffffffffffffff166108fc8284039081150290604051600060405180830381858888f19350505050158015610d4f573d6000803e3d6000fd5b505b50505060cc5481141515610d6457600080fd5b50505050565b610d73336123d5565b565b610d7d61104c565b1515610d8857600080fd5b600073ffffffffffffffffffffffffffffffffffffffff16603360009054906101000a900473ffffffffffffffffffffffffffffffffffffffff1673ffffffffffffffffffffffffffffffffffffffff167f8be0079c531659141344cd1fd0a4f28419497f9722a3daafe3b4186f6b6457e060405160405180910390a36000603360006101000a81548173ffffffffffffffffffffffffffffffffffffffff021916908373ffffffffffffffffffffffffffffffffffffffff160217905550565b600060019054906101000a900460ff1680610e685750610e6761242f565b5b80610e7f57506000809054906101000a900460ff16155b1515610ed6576040517f08c379a000000000000000000000000000000000000000000000000000000000815260040180806020018281038252602e815260200180612af7602e913960400191505060405180910390fd5b60008060019054906101000a900460ff161590508015610f26576001600060016101000a81548160ff02191690831515021790555060016000806101000a81548160ff0219169083151502179055505b600160cc819055508015610f4f5760008060016101000a81548160ff0219169083151502179055505b50565b610f5b336107bf565b1515610f6657600080fd5b610f6f81612440565b50565b610f7b336107bf565b1515610f8657600080fd5b609960009054906101000a900460ff16151515610fa257600080fd5b6001609960006101000a81548160ff0219169083151502179055507f62e78cea01bee320cd4e420270b5ea74000d11b0c9f74754ebdbfc544b05a25833604051808273ffffffffffffffffffffffffffffffffffffffff1673ffffffffffffffffffffffffffffffffffffffff16815260200191505060405180910390a1565b6000603360009054906101000a900473ffffffffffffffffffffffffffffffffffffffff16905090565b6000603360009054906101000a900473ffffffffffffffffffffffffffffffffffffffff1673ffffffffffffffffffffffffffffffffffffffff163373ffffffffffffffffffffffffffffffffffffffff1614905090565b600160cc60008282540192505081905550600060cc549050609960009054906101000a900460ff161515156110d857600080fd5b600073ffffffffffffffffffffffffffffffffffffffff163373ffffffffffffffffffffffffffffffffffffffff1614158015611202575061010060009054906101000a900473ffffffffffffffffffffffffffffffffffffffff1673ffffffffffffffffffffffffffffffffffffffff166319669891836040518263ffffffff167c010000000000000000000000000000000000000000000000000000000002815260040180826fffffffffffffffffffffffffffffffff19166fffffffffffffffffffffffffffffffff1916815260200191505060206040518083038186803b1580156111c657600080fd5b505afa1580156111da573d6000803e3d6000fd5b505050506040513d60208110156111f057600080fd5b81019080805190602001909291905050505b1515611276576040517f08c379a000000000000000000000000000000000000000000000000000000000815260040180806020018281038252600e8152602001807f496e76616c696420706172616d7300000000000000000000000000000000000081525060200191505060405180910390fd5b6000809050600073ffffffffffffffffffffffffffffffffffffffff168573ffffffffffffffffffffffffffffffffffffffff16141580156112e457503073ffffffffffffffffffffffffffffffffffffffff168573ffffffffffffffffffffffffffffffffffffffff1614155b156112ee57600190505b6000349050600061010360009054906101000a900473ffffffffffffffffffffffffffffffffffffffff1673ffffffffffffffffffffffffffffffffffffffff1663e4a40b1287856040518363ffffffff167c010000000000000000000000000000000000000000000000000000000002815260040180838152602001821515151581526020019250505060206040518083038186803b15801561139157600080fd5b505afa1580156113a5573d6000803e3d6000fd5b505050506040513d60208110156113bb57600080fd5b81019080805190602001909291905050509050808210151515611446576040517f08c379a000000000000000000000000000000000000000000000000000000000815260040180806020018281038252601b8152602001807f496e73756666696369656e742066756e647320666f72207061636b000000000081525060200191505060405180910390fd5b600061010060009054906101000a900473ffffffffffffffffffffffffffffffffffffffff1673ffffffffffffffffffffffffffffffffffffffff1663f9d147486040518163ffffffff167c0100000000000000000000000000000000000000000000000000000000028152600401602060405180830381600087803b1580156114cf57600080fd5b505af11580156114e3573d6000803e3d6000fd5b505050506040513d60208110156114f957600080fd5b8101908080519060200190929190505050905061010060009054906101000a900473ffffffffffffffffffffffffffffffffffffffff1673ffffffffffffffffffffffffffffffffffffffff1663762233538233848a6040518563ffffffff167c0100000000000000000000000000000000000000000000000000000000028152600401808473ffffffffffffffffffffffffffffffffffffffff1673ffffffffffffffffffffffffffffffffffffffff168152602001838152602001826fffffffffffffffffffffffffffffffff19166fffffffffffffffffffffffffffffffff1916815260200193505050506000604051808303818588803b15801561160057600080fd5b505af1158015611614573d6000803e3d6000fd5b5050505050600081830390506000809050851561172d5761010360009054906101000a900473ffffffffffffffffffffffffffffffffffffffff1673ffffffffffffffffffffffffffffffffffffffff1663e84380948b866040518363ffffffff167c0100000000000000000000000000000000000000000000000000000000028152600401808373ffffffffffffffffffffffffffffffffffffffff1673ffffffffffffffffffffffffffffffffffffffff1681526020018281526020019250505060206040518083038186803b1580156116ef57600080fd5b505afa158015611703573d6000803e3d6000fd5b505050506040513d602081101561171957600080fd5b810190808051906020019092919050505090505b60ff60009054906101000a900473ffffffffffffffffffffffffffffffffffffffff1673ffffffffffffffffffffffffffffffffffffffff16638dbdbe6d8384848e6040518563ffffffff167c0100000000000000000000000000000000000000000000000000000000028152600401808481526020018381526020018273ffffffffffffffffffffffffffffffffffffffff1673ffffffffffffffffffffffffffffffffffffffff16815260200193505050506000604051808303818588803b1580156117fa57600080fd5b505af115801561180e573d6000803e3d6000fd5b50505050503373ffffffffffffffffffffffffffffffffffffffff167fbbe0bf44403d27eeaa3f1033b1724845fa1cfabf8315d3dabc22849b4a32074989878d8d60405180856fffffffffffffffffffffffffffffffff19166fffffffffffffffffffffffffffffffff191681526020018481526020018373ffffffffffffffffffffffffffffffffffffffff1673ffffffffffffffffffffffffffffffffffffffff16815260200182815260200194505050505060405180910390a261010360009054906101000a900473ffffffffffffffffffffffffffffffffffffffff1673ffffffffffffffffffffffffffffffffffffffff1663ab678f713360016040518363ffffffff167c0100000000000000000000000000000000000000000000000000000000028152600401808373ffffffffffffffffffffffffffffffffffffffff1673ffffffffffffffffffffffffffffffffffffffff16815260200182815260200192505050602060405180830381600087803b15801561199257600080fd5b505af11580156119a6573d6000803e3d6000fd5b505050506040513d60208110156119bc57600080fd5b81019080805190602001909291905050505083851115611a20573373ffffffffffffffffffffffffffffffffffffffff166108fc8587039081150290604051600060405180830381858888f19350505050158015611a1e573d6000803e3d6000fd5b505b50505050505060cc5481141515611a3657600080fd5b50505050565b600060019054906101000a900460ff1680611a5b5750611a5a61242f565b5b80611a7257506000809054906101000a900460ff16155b1515611ac9576040517f08c379a000000000000000000000000000000000000000000000000000000000815260040180806020018281038252602e815260200180612af7602e913960400191505060405180910390fd5b60008060019054906101000a900460ff161590508015611b19576001600060016101000a81548160ff02191690831515021790555060016000806101000a81548160ff0219169083151502179055505b611b228261249a565b611b2b8261265a565b8015611b4c5760008060016101000a81548160ff0219169083151502179055505b5050565b600160cc60008282540192505081905550600060cc549050609960009054906101000a900460ff16151515611b8457600080fd5b600073ffffffffffffffffffffffffffffffffffffffff168473ffffffffffffffffffffffffffffffffffffffff1614158015611bed57508373ffffffffffffffffffffffffffffffffffffffff163373ffffffffffffffffffffffffffffffffffffffff1614155b1515611c61576040517f08c379a000000000000000000000000000000000000000000000000000000000815260040180806020018281038252600d8152602001807f496e76616c6964206f776e65720000000000000000000000000000000000000081525060200191505060405180910390fd5b6000349050600061010160009054906101000a900473ffffffffffffffffffffffffffffffffffffffff1673ffffffffffffffffffffffffffffffffffffffff166380badd0133888886896040518663ffffffff167c0100000000000000000000000000000000000000000000000000000000028152600401808673ffffffffffffffffffffffffffffffffffffffff1673ffffffffffffffffffffffffffffffffffffffff1681526020018573ffffffffffffffffffffffffffffffffffffffff1673ffffffffffffffffffffffffffffffffffffffff168152602001848152602001838152602001826fffffffffffffffffffffffffffffffff19166fffffffffffffffffffffffffffffffff1916815260200195505050505050602060405180830381600087803b158015611d9857600080fd5b505af1158015611dac573d6000803e3d6000fd5b505050506040513d6020811015611dc257600080fd5b810190808051906020019092919050505090508573ffffffffffffffffffffffffffffffffffffffff166108fc829081150290604051600060405180830381858888f19350505050158015611e1b573d6000803e3d6000fd5b5080821115611e6e573373ffffffffffffffffffffffffffffffffffffffff166108fc8284039081150290604051600060405180830381858888f19350505050158015611e6c573d6000803e3d6000fd5b505b505060cc5481141515611e8057600080fd5b50505050565b611e8e61104c565b1515611e9957600080fd5b600073ffffffffffffffffffffffffffffffffffffffff168573ffffffffffffffffffffffffffffffffffffffff1614151515611f3e576040517f08c379a00000000000000000000000000000000000000000000000000000000081526004018080602001828103825260168152602001807f496e76616c6964206f7261636c6520616464726573730000000000000000000081525060200191505060405180910390fd5b600073ffffffffffffffffffffffffffffffffffffffff168473ffffffffffffffffffffffffffffffffffffffff1614151515611fe3576040517f08c379a00000000000000000000000000000000000000000000000000000000081526004018080602001828103825260158152602001807f496e76616c69642063617264732061646472657373000000000000000000000081525060200191505060405180910390fd5b600073ffffffffffffffffffffffffffffffffffffffff168373ffffffffffffffffffffffffffffffffffffffff1614151515612088576040517f08c379a00000000000000000000000000000000000000000000000000000000081526004018080602001828103825260158152602001807f496e76616c6964207061636b732061646472657373000000000000000000000081525060200191505060405180910390fd5b600073ffffffffffffffffffffffffffffffffffffffff168273ffffffffffffffffffffffffffffffffffffffff161415151561212d576040517f08c379a00000000000000000000000000000000000000000000000000000000081526004018080602001828103825260188152602001807f496e76616c69642074726561737572792061646472657373000000000000000081525060200191505060405180910390fd5b600073ffffffffffffffffffffffffffffffffffffffff168173ffffffffffffffffffffffffffffffffffffffff16141515156121d2576040517f08c379a00000000000000000000000000000000000000000000000000000000081526004018080602001828103825260138152602001807f496e76616c6964206c696220616464726573730000000000000000000000000081525060200191505060405180910390fd5b8461010060006101000a81548173ffffffffffffffffffffffffffffffffffffffff021916908373ffffffffffffffffffffffffffffffffffffffff1602179055508361010260006101000a81548173ffffffffffffffffffffffffffffffffffffffff021916908373ffffffffffffffffffffffffffffffffffffffff1602179055508261010160006101000a81548173ffffffffffffffffffffffffffffffffffffffff021916908373ffffffffffffffffffffffffffffffffffffffff1602179055508160ff60006101000a81548173ffffffffffffffffffffffffffffffffffffffff021916908373ffffffffffffffffffffffffffffffffffffffff1602179055508061010360006101000a81548173ffffffffffffffffffffffffffffffffffffffff021916908373ffffffffffffffffffffffffffffffffffffffff1602179055505050505050565b61232a61104c565b151561233557600080fd5b61233e81612780565b50565b60008073ffffffffffffffffffffffffffffffffffffffff168273ffffffffffffffffffffffffffffffffffffffff161415151561237e57600080fd5b8260000160008373ffffffffffffffffffffffffffffffffffffffff1673ffffffffffffffffffffffffffffffffffffffff16815260200190815260200160002060009054906101000a900460ff16905092915050565b6123e981606661287c90919063ffffffff16565b8073ffffffffffffffffffffffffffffffffffffffff167fcd265ebaf09df2871cc7bd4133404a235ba12eff2041bb89d9c714a2621c7c7e60405160405180910390a250565b600080303b90506000811491505090565b61245481606661292b90919063ffffffff16565b8073ffffffffffffffffffffffffffffffffffffffff167f6719d08c1888103bea251a4ed56406bd0c3e69723c8a1686e017e7bbe159b6f860405160405180910390a250565b600060019054906101000a900460ff16806124b957506124b861242f565b5b806124d057506000809054906101000a900460ff16155b1515612527576040517f08c379a000000000000000000000000000000000000000000000000000000000815260040180806020018281038252602e815260200180612af7602e913960400191505060405180910390fd5b60008060019054906101000a900460ff161590508015612577576001600060016101000a81548160ff02191690831515021790555060016000806101000a81548160ff0219169083151502179055505b81603360006101000a81548173ffffffffffffffffffffffffffffffffffffffff021916908373ffffffffffffffffffffffffffffffffffffffff160217905550603360009054906101000a900473ffffffffffffffffffffffffffffffffffffffff1673ffffffffffffffffffffffffffffffffffffffff16600073ffffffffffffffffffffffffffffffffffffffff167f8be0079c531659141344cd1fd0a4f28419497f9722a3daafe3b4186f6b6457e060405160405180910390a380156126565760008060016101000a81548160ff0219169083151502179055505b5050565b600060019054906101000a900460ff1680612679575061267861242f565b5b8061269057506000809054906101000a900460ff16155b15156126e7576040517f08c379a000000000000000000000000000000000000000000000000000000000815260040180806020018281038252602e815260200180612af7602e913960400191505060405180910390fd5b60008060019054906101000a900460ff161590508015612737576001600060016101000a81548160ff02191690831515021790555060016000806101000a81548160ff0219169083151502179055505b612740826129db565b6000609960006101000a81548160ff021916908315150217905550801561277c5760008060016101000a81548160ff0219169083151502179055505b5050565b600073ffffffffffffffffffffffffffffffffffffffff168173ffffffffffffffffffffffffffffffffffffffff16141515156127bc57600080fd5b8073ffffffffffffffffffffffffffffffffffffffff16603360009054906101000a900473ffffffffffffffffffffffffffffffffffffffff1673ffffffffffffffffffffffffffffffffffffffff167f8be0079c531659141344cd1fd0a4f28419497f9722a3daafe3b4186f6b6457e060405160405180910390a380603360006101000a81548173ffffffffffffffffffffffffffffffffffffffff021916908373ffffffffffffffffffffffffffffffffffffffff16021790555050565b600073ffffffffffffffffffffffffffffffffffffffff168173ffffffffffffffffffffffffffffffffffffffff16141515156128b857600080fd5b6128c28282612341565b15156128cd57600080fd5b60008260000160008373ffffffffffffffffffffffffffffffffffffffff1673ffffffffffffffffffffffffffffffffffffffff16815260200190815260200160002060006101000a81548160ff0219169083151502179055505050565b600073ffffffffffffffffffffffffffffffffffffffff168173ffffffffffffffffffffffffffffffffffffffff161415151561296757600080fd5b6129718282612341565b15151561297d57600080fd5b60018260000160008373ffffffffffffffffffffffffffffffffffffffff1673ffffffffffffffffffffffffffffffffffffffff16815260200190815260200160002060006101000a81548160ff0219169083151502179055505050565b600060019054906101000a900460ff16806129fa57506129f961242f565b5b80612a1157506000809054906101000a900460ff16155b1515612a68576040517f08c379a000000000000000000000000000000000000000000000000000000000815260040180806020018281038252602e815260200180612af7602e913960400191505060405180910390fd5b60008060019054906101000a900460ff161590508015612ab8576001600060016101000a81548160ff02191690831515021790555060016000806101000a81548160ff0219169083151502179055505b612ac1826107bf565b1515612ad157612ad082612440565b5b8015612af25760008060016101000a81548160ff0219169083151502179055505b505056fe436f6e747261637420696e7374616e63652068617320616c7265616479206265656e20696e697469616c697a6564a165627a7a72305820f7f3c3fb517790e3c26b0065831d9a3eaa07b91a092a6eac9a69b524ec2f82660029",
  "source": "/**\n * Phat Cats - Crypto-Cards\n *  - https://crypto-cards.io\n *  - https://phatcats.co\n *\n * Copyright 2019 (c) Phat Cats, Inc.\n */\n\npragma solidity 0.5.2;\n\nimport \"zos-lib/contracts/Initializable.sol\";\nimport \"openzeppelin-eth/contracts/ownership/Ownable.sol\";\nimport \"openzeppelin-eth/contracts/lifecycle/Pausable.sol\";\nimport \"openzeppelin-eth/contracts/utils/ReentrancyGuard.sol\";\n\nimport \"./CryptoCardsLib.sol\";\nimport \"./CryptoCardsTreasury.sol\";\nimport \"./CryptoCardsOracle.sol\";\nimport \"./CryptoCardsPacks.sol\";\nimport \"./CryptoCardsCards.sol\";\n\n\n//\n// NOTE on Ownable:\n//   Owner Account is attached to a Multi-Sig wallet controlled by a minimum of 3 C-Level Executives.\n//\n\ncontract CryptoCardsController is Initializable, Ownable, Pausable, ReentrancyGuard {\n\n    //\n    // Storage\n    //\n    CryptoCardsTreasury internal _cryptoCardsTreasury;\n    CryptoCardsOracle internal _cryptoCardsOracle;\n    CryptoCardsPacks internal _cryptoCardsPacks;\n    CryptoCardsCards internal _cryptoCardsCards;\n    CryptoCardsLib internal _cryptoCardsLib;\n\n    //\n    // Events\n    //\n    event BuyNewPack(address indexed receiver, bytes16 uuid, uint256 pricePaid, address referredBy, uint256 promoCode);\n\n    //\n    // Modifiers\n    //\n    modifier onlyOracle() {\n        require(msg.sender == address(_cryptoCardsOracle), \"Oracle Only\");\n        _;\n    }\n\n    //\n    // Initialize\n    //\n    function initialize(address owner) public initializer {\n        Ownable.initialize(owner);\n        Pausable.initialize(owner);\n    }\n\n    //\n    // Public\n    //\n\n    function getVersion() public pure returns (string memory) {\n        return \"v2.2.1\";\n    }\n\n    //\n    // Buy/Sell/Trade\n    //\n\n    function buyPackOfCards(address referredBy, uint256 promoCode, bytes16 uuid) public nonReentrant whenNotPaused payable {\n        require(msg.sender != address(0) && _cryptoCardsOracle.isValidUuid(uuid), \"Invalid params\");\n\n        bool hasReferral = false;\n        if (referredBy != address(0) && referredBy != address(this)) {\n            hasReferral = true;\n        }\n\n        uint256 pricePaid = msg.value;\n        uint256 cost = _cryptoCardsLib.getPricePerPack(promoCode, hasReferral);\n        require(pricePaid >= cost, \"Insufficient funds for pack\");\n\n        // Get Pack of Cards and Assign to Receiver\n        uint256 oracleGasReserve = _cryptoCardsOracle.getGasReserve();\n        _cryptoCardsOracle.getNewPack.value(oracleGasReserve)(msg.sender, oracleGasReserve, uuid);\n\n        // Distribute Payment for Pack\n        uint256 netAmount = cost - oracleGasReserve;\n        uint256 forReferrer = 0;\n        if (hasReferral) {\n            forReferrer = _cryptoCardsLib.getAmountForReferrer(referredBy, cost);\n        }\n\n        // Deposit Funds to Treasury\n        _cryptoCardsTreasury.deposit.value(netAmount)(netAmount, forReferrer, referredBy);\n\n        // Emit Event to DApp\n        emit BuyNewPack(msg.sender, uuid, pricePaid, referredBy, promoCode);\n        _cryptoCardsLib.incrementPurchasedPackCount(msg.sender, 1);\n\n        // Refund over-spend\n        if (pricePaid > cost) {\n            msg.sender.transfer(pricePaid - cost);\n        }\n    }\n\n    function buyPackFromOwner(address payable owner, uint256 packId, bytes16 uuid) public nonReentrant whenNotPaused payable {\n        require(owner != address(0) && msg.sender != owner, \"Invalid owner\");\n\n        // Transfer Pack\n        uint256 pricePaid = msg.value;\n        uint256 packPrice = _cryptoCardsPacks.transferPackForBuyer(msg.sender, owner, packId, pricePaid, uuid);\n\n        // Pay for Pack\n        owner.transfer(packPrice);\n\n        // Refund over-spend\n        if (pricePaid > packPrice) {\n            msg.sender.transfer(pricePaid - packPrice);\n        }\n    }\n\n    function buyCardFromOwner(address cardOwner, uint256 cardId, bytes16 uuid) public nonReentrant whenNotPaused payable {\n        require(cardOwner != address(0) && msg.sender != cardOwner, \"Invalid card owner\");\n        address payable ownerWallet = address(uint160(cardOwner));\n\n        // Transfer Card\n        uint256 pricePaid = msg.value;\n        uint256 cardPrice = _cryptoCardsCards.transferCardForBuyer(msg.sender, cardOwner, cardId, pricePaid, uuid);\n\n        // Pay for Card\n        ownerWallet.transfer(cardPrice);\n\n        // Refund over-spend\n        if (pricePaid > cardPrice) {\n            msg.sender.transfer(pricePaid - cardPrice);\n        }\n    }\n\n    function tradeCardForCard(address owner, uint256 ownerCardId, uint256 tradeCardId, bytes16 uuid) public nonReentrant whenNotPaused {\n        require(owner != address(0) && msg.sender == owner, \"Invalid owner\");\n\n        _cryptoCardsCards.tradeCardForCard(owner, ownerCardId, tradeCardId, uuid);\n    }\n\n    //\n    // Only Owner\n    //\n\n    function setContractAddresses(\n        CryptoCardsOracle oracle,\n        CryptoCardsCards cards,\n        CryptoCardsPacks packs,\n        CryptoCardsTreasury treasury,\n        CryptoCardsLib lib\n    ) public onlyOwner {\n        require(address(oracle) != address(0), \"Invalid oracle address\");\n        require(address(cards) != address(0), \"Invalid cards address\");\n        require(address(packs) != address(0), \"Invalid packs address\");\n        require(address(treasury) != address(0), \"Invalid treasury address\");\n        require(address(lib) != address(0), \"Invalid lib address\");\n\n        _cryptoCardsOracle = oracle;\n        _cryptoCardsCards = cards;\n        _cryptoCardsPacks = packs;\n        _cryptoCardsTreasury = treasury;\n        _cryptoCardsLib = lib;\n    }\n}\n",
  "sourcePath": "/Users/robsecord/workspace/Ethereum/CryptoCards/cryptocards_contracts/contracts/CryptoCardsController.sol",
  "compiler": {
    "name": "solc",
    "version": "0.5.2+commit.1df8f40c.Emscripten.clang"
  },
  "schemaVersion": "3.0.11",
  "updatedAt": "2019-10-03T03:51:25.918Z",
  "devdoc": {
    "methods": {
      "isOwner()": {
        "return": "true if `msg.sender` is the owner of the contract."
      },
      "owner()": {
        "return": "the address of the owner."
      },
      "pause()": {
        "details": "called by the owner to pause, triggers stopped state"
      },
      "paused()": {
        "return": "true if the contract is paused, false otherwise."
      },
      "renounceOwnership()": {
        "details": "Allows the current owner to relinquish control of the contract. It will not be possible to call the functions with the `onlyOwner` modifier anymore."
      },
      "transferOwnership(address)": {
        "details": "Allows the current owner to transfer control of the contract to a newOwner.",
        "params": {
          "newOwner": "The address to transfer ownership to."
        }
      },
      "unpause()": {
        "details": "called by the owner to unpause, returns to normal state"
      }
    }
  },
  "userdoc": {
    "methods": {
      "renounceOwnership()": {
        "notice": "Renouncing ownership will leave the contract without an owner, thereby removing any functionality that is only available to the owner."
      }
    }
  }
}