{
  "contractName": "ReentrancyGuard",
  "abi": [
    {
      "constant": false,
      "inputs": [],
      "name": "initialize",
      "outputs": [],
      "payable": false,
      "stateMutability": "nonpayable",
      "type": "function"
    }
  ],
  "bytecode": "0x608060405234801561001057600080fd5b506101cb806100206000396000f3fe608060405234801561001057600080fd5b5060043610610048576000357c0100000000000000000000000000000000000000000000000000000000900480638129fc1c1461004d575b600080fd5b610055610057565b005b600060019054906101000a900460ff16806100765750610075610160565b5b8061008d57506000809054906101000a900460ff16155b15156100e4576040517f08c379a000000000000000000000000000000000000000000000000000000000815260040180806020018281038252602e815260200180610172602e913960400191505060405180910390fd5b60008060019054906101000a900460ff161590508015610134576001600060016101000a81548160ff02191690831515021790555060016000806101000a81548160ff0219169083151502179055505b6001603381905550801561015d5760008060016101000a81548160ff0219169083151502179055505b50565b600080303b9050600081149150509056fe436f6e747261637420696e7374616e63652068617320616c7265616479206265656e20696e697469616c697a6564a165627a7a7230582018eefbcf0782b7ab625256a59feefb9677367e4b4b6b307958796ff5e32426b40029",
  "source": "pragma solidity ^0.5.2;\n\nimport \"zos-lib/contracts/Initializable.sol\";\n\n/**\n * @title Helps contracts guard against reentrancy attacks.\n * @author Remco Bloemen <remco@2π.com>, Eenae <alexey@mixbytes.io>\n * @dev If you mark a function `nonReentrant`, you should also\n * mark it `external`.\n */\ncontract ReentrancyGuard is Initializable {\n    /// @dev counter to allow mutex lock with only one SSTORE operation\n    uint256 private _guardCounter;\n\n    function initialize() public initializer {\n        // The counter starts at one to prevent changing it from zero to a non-zero\n        // value, which is a more expensive operation.\n        _guardCounter = 1;\n    }\n\n    /**\n     * @dev Prevents a contract from calling itself, directly or indirectly.\n     * Calling a `nonReentrant` function from another `nonReentrant`\n     * function is not supported. It is possible to prevent this from happening\n     * by making the `nonReentrant` function external, and make it call a\n     * `private` function that does the actual work.\n     */\n    modifier nonReentrant() {\n        _guardCounter += 1;\n        uint256 localCounter = _guardCounter;\n        _;\n        require(localCounter == _guardCounter);\n    }\n\n    uint256[50] private ______gap;\n}\n",
  "sourcePath": "openzeppelin-eth/contracts/utils/ReentrancyGuard.sol",
  "compiler": {
    "name": "solc",
    "version": "0.5.2+commit.1df8f40c.Emscripten.clang"
  },
  "schemaVersion": "3.0.11",
  "updatedAt": "2019-09-17T00:52:57.529Z",
  "devdoc": {
    "author": "Remco Bloemen <remco@2π.com>, Eenae <alexey@mixbytes.io>",
    "details": "If you mark a function `nonReentrant`, you should also mark it `external`.",
    "methods": {},
    "title": "Helps contracts guard against reentrancy attacks."
  },
  "userdoc": {
    "methods": {}
  }
}