{
  "contractName": "SignerRole",
  "abi": [
    {
      "anonymous": false,
      "inputs": [
        {
          "indexed": true,
          "name": "account",
          "type": "address"
        }
      ],
      "name": "SignerAdded",
      "type": "event"
    },
    {
      "anonymous": false,
      "inputs": [
        {
          "indexed": true,
          "name": "account",
          "type": "address"
        }
      ],
      "name": "SignerRemoved",
      "type": "event"
    },
    {
      "constant": false,
      "inputs": [
        {
          "name": "sender",
          "type": "address"
        }
      ],
      "name": "initialize",
      "outputs": [],
      "payable": false,
      "stateMutability": "nonpayable",
      "type": "function"
    },
    {
      "constant": true,
      "inputs": [
        {
          "name": "account",
          "type": "address"
        }
      ],
      "name": "isSigner",
      "outputs": [
        {
          "name": "",
          "type": "bool"
        }
      ],
      "payable": false,
      "stateMutability": "view",
      "type": "function"
    },
    {
      "constant": false,
      "inputs": [
        {
          "name": "account",
          "type": "address"
        }
      ],
      "name": "addSigner",
      "outputs": [],
      "payable": false,
      "stateMutability": "nonpayable",
      "type": "function"
    },
    {
      "constant": false,
      "inputs": [],
      "name": "renounceSigner",
      "outputs": [],
      "payable": false,
      "stateMutability": "nonpayable",
      "type": "function"
    }
  ],
  "bytecode": "0x608060405234801561001057600080fd5b506105d1806100206000396000f3fe608060405234801561001057600080fd5b5060043610610069576000357c0100000000000000000000000000000000000000000000000000000000900480637df73e271461006e578063c4d66de8146100ca578063e5c8b03d1461010e578063eb12d61e14610118575b600080fd5b6100b06004803603602081101561008457600080fd5b81019080803573ffffffffffffffffffffffffffffffffffffffff16906020019092919050505061015c565b604051808215151515815260200191505060405180910390f35b61010c600480360360208110156100e057600080fd5b81019080803573ffffffffffffffffffffffffffffffffffffffff169060200190929190505050610179565b005b610116610294565b005b61015a6004803603602081101561012e57600080fd5b81019080803573ffffffffffffffffffffffffffffffffffffffff16906020019092919050505061029f565b005b60006101728260336102bf90919063ffffffff16565b9050919050565b600060019054906101000a900460ff16806101985750610197610353565b5b806101af57506000809054906101000a900460ff16155b1515610206576040517f08c379a000000000000000000000000000000000000000000000000000000000815260040180806020018281038252602e815260200180610578602e913960400191505060405180910390fd5b60008060019054906101000a900460ff161590508015610256576001600060016101000a81548160ff02191690831515021790555060016000806101000a81548160ff0219169083151502179055505b61025f8261015c565b151561026f5761026e82610364565b5b80156102905760008060016101000a81548160ff0219169083151502179055505b5050565b61029d336103be565b565b6102a83361015c565b15156102b357600080fd5b6102bc81610364565b50565b60008073ffffffffffffffffffffffffffffffffffffffff168273ffffffffffffffffffffffffffffffffffffffff16141515156102fc57600080fd5b8260000160008373ffffffffffffffffffffffffffffffffffffffff1673ffffffffffffffffffffffffffffffffffffffff16815260200190815260200160002060009054906101000a900460ff16905092915050565b600080303b90506000811491505090565b61037881603361041890919063ffffffff16565b8073ffffffffffffffffffffffffffffffffffffffff167f47d1c22a25bb3a5d4e481b9b1e6944c2eade3181a0a20b495ed61d35b5323f2460405160405180910390a250565b6103d28160336104c890919063ffffffff16565b8073ffffffffffffffffffffffffffffffffffffffff167f3525e22824a8a7df2c9a6029941c824cf95b6447f1e13d5128fd3826d35afe8b60405160405180910390a250565b600073ffffffffffffffffffffffffffffffffffffffff168173ffffffffffffffffffffffffffffffffffffffff161415151561045457600080fd5b61045e82826102bf565b15151561046a57600080fd5b60018260000160008373ffffffffffffffffffffffffffffffffffffffff1673ffffffffffffffffffffffffffffffffffffffff16815260200190815260200160002060006101000a81548160ff0219169083151502179055505050565b600073ffffffffffffffffffffffffffffffffffffffff168173ffffffffffffffffffffffffffffffffffffffff161415151561050457600080fd5b61050e82826102bf565b151561051957600080fd5b60008260000160008373ffffffffffffffffffffffffffffffffffffffff1673ffffffffffffffffffffffffffffffffffffffff16815260200190815260200160002060006101000a81548160ff021916908315150217905550505056fe436f6e747261637420696e7374616e63652068617320616c7265616479206265656e20696e697469616c697a6564a165627a7a72305820221a11e9f9cf2c6d501027b8f05d5ea9797b0ba7c84b2067e5936b07dc6ae8100029",
  "source": "pragma solidity ^0.5.2;\n\nimport \"zos-lib/contracts/Initializable.sol\";\nimport \"../Roles.sol\";\n\n\ncontract SignerRole is Initializable {\n    using Roles for Roles.Role;\n\n    event SignerAdded(address indexed account);\n    event SignerRemoved(address indexed account);\n\n    Roles.Role private _signers;\n\n    function initialize(address sender) public initializer {\n        if (!isSigner(sender)) {\n            _addSigner(sender);\n        }\n    }\n\n    modifier onlySigner() {\n        require(isSigner(msg.sender));\n        _;\n    }\n\n    function isSigner(address account) public view returns (bool) {\n        return _signers.has(account);\n    }\n\n    function addSigner(address account) public onlySigner {\n        _addSigner(account);\n    }\n\n    function renounceSigner() public {\n        _removeSigner(msg.sender);\n    }\n\n    function _addSigner(address account) internal {\n        _signers.add(account);\n        emit SignerAdded(account);\n    }\n\n    function _removeSigner(address account) internal {\n        _signers.remove(account);\n        emit SignerRemoved(account);\n    }\n\n    uint256[50] private ______gap;\n}\n",
  "sourcePath": "openzeppelin-eth/contracts/access/roles/SignerRole.sol",
  "compiler": {
    "name": "solc",
    "version": "0.5.2+commit.1df8f40c.Emscripten.clang"
  },
  "schemaVersion": "3.0.11",
  "updatedAt": "2019-09-18T20:40:18.348Z",
  "devdoc": {
    "methods": {}
  },
  "userdoc": {
    "methods": {}
  }
}